{
  "_format": "hh-sol-artifact-1",
  "contractName": "NFTAVs",
  "sourceName": "contracts/NFTAVs.sol",
  "abi": [
    {
      "inputs": [],
      "stateMutability": "nonpayable",
      "type": "constructor"
    },
    {
      "inputs": [],
      "name": "ApprovalCallerNotOwnerNorApproved",
      "type": "error"
    },
    {
      "inputs": [],
      "name": "ApprovalQueryForNonexistentToken",
      "type": "error"
    },
    {
      "inputs": [],
      "name": "ApprovalToCurrentOwner",
      "type": "error"
    },
    {
      "inputs": [],
      "name": "ApproveToCaller",
      "type": "error"
    },
    {
      "inputs": [],
      "name": "BalanceQueryForZeroAddress",
      "type": "error"
    },
    {
      "inputs": [],
      "name": "MintToZeroAddress",
      "type": "error"
    },
    {
      "inputs": [],
      "name": "MintZeroQuantity",
      "type": "error"
    },
    {
      "inputs": [],
      "name": "OwnerQueryForNonexistentToken",
      "type": "error"
    },
    {
      "inputs": [],
      "name": "TransferCallerNotOwnerNorApproved",
      "type": "error"
    },
    {
      "inputs": [],
      "name": "TransferFromIncorrectOwner",
      "type": "error"
    },
    {
      "inputs": [],
      "name": "TransferToNonERC721ReceiverImplementer",
      "type": "error"
    },
    {
      "inputs": [],
      "name": "TransferToZeroAddress",
      "type": "error"
    },
    {
      "inputs": [],
      "name": "URIQueryForNonexistentToken",
      "type": "error"
    },
    {
      "anonymous": false,
      "inputs": [
        {
          "indexed": true,
          "internalType": "address",
          "name": "owner",
          "type": "address"
        },
        {
          "indexed": true,
          "internalType": "address",
          "name": "approved",
          "type": "address"
        },
        {
          "indexed": true,
          "internalType": "uint256",
          "name": "tokenId",
          "type": "uint256"
        }
      ],
      "name": "Approval",
      "type": "event"
    },
    {
      "anonymous": false,
      "inputs": [
        {
          "indexed": true,
          "internalType": "address",
          "name": "owner",
          "type": "address"
        },
        {
          "indexed": true,
          "internalType": "address",
          "name": "operator",
          "type": "address"
        },
        {
          "indexed": false,
          "internalType": "bool",
          "name": "approved",
          "type": "bool"
        }
      ],
      "name": "ApprovalForAll",
      "type": "event"
    },
    {
      "anonymous": false,
      "inputs": [
        {
          "indexed": true,
          "internalType": "address",
          "name": "previousOwner",
          "type": "address"
        },
        {
          "indexed": true,
          "internalType": "address",
          "name": "newOwner",
          "type": "address"
        }
      ],
      "name": "OwnershipTransferred",
      "type": "event"
    },
    {
      "anonymous": false,
      "inputs": [
        {
          "indexed": true,
          "internalType": "address",
          "name": "from",
          "type": "address"
        },
        {
          "indexed": true,
          "internalType": "address",
          "name": "to",
          "type": "address"
        },
        {
          "indexed": true,
          "internalType": "uint256",
          "name": "tokenId",
          "type": "uint256"
        }
      ],
      "name": "Transfer",
      "type": "event"
    },
    {
      "inputs": [
        {
          "internalType": "address",
          "name": "to",
          "type": "address"
        },
        {
          "internalType": "uint256",
          "name": "tokenId",
          "type": "uint256"
        }
      ],
      "name": "approve",
      "outputs": [],
      "stateMutability": "nonpayable",
      "type": "function"
    },
    {
      "inputs": [
        {
          "internalType": "address",
          "name": "owner",
          "type": "address"
        }
      ],
      "name": "balanceOf",
      "outputs": [
        {
          "internalType": "uint256",
          "name": "",
          "type": "uint256"
        }
      ],
      "stateMutability": "view",
      "type": "function"
    },
    {
      "inputs": [],
      "name": "count",
      "outputs": [
        {
          "internalType": "uint256",
          "name": "",
          "type": "uint256"
        }
      ],
      "stateMutability": "view",
      "type": "function"
    },
    {
      "inputs": [
        {
          "internalType": "uint256",
          "name": "tokenId",
          "type": "uint256"
        }
      ],
      "name": "getApproved",
      "outputs": [
        {
          "internalType": "address",
          "name": "",
          "type": "address"
        }
      ],
      "stateMutability": "view",
      "type": "function"
    },
    {
      "inputs": [
        {
          "internalType": "address",
          "name": "owner",
          "type": "address"
        },
        {
          "internalType": "address",
          "name": "operator",
          "type": "address"
        }
      ],
      "name": "isApprovedForAll",
      "outputs": [
        {
          "internalType": "bool",
          "name": "",
          "type": "bool"
        }
      ],
      "stateMutability": "view",
      "type": "function"
    },
    {
      "inputs": [
        {
          "internalType": "string",
          "name": "uri",
          "type": "string"
        }
      ],
      "name": "isContentOwned",
      "outputs": [
        {
          "internalType": "bool",
          "name": "",
          "type": "bool"
        }
      ],
      "stateMutability": "view",
      "type": "function"
    },
    {
      "inputs": [
        {
          "internalType": "uint256",
          "name": "quantity",
          "type": "uint256"
        }
      ],
      "name": "mint",
      "outputs": [],
      "stateMutability": "payable",
      "type": "function"
    },
    {
      "inputs": [],
      "name": "name",
      "outputs": [
        {
          "internalType": "string",
          "name": "",
          "type": "string"
        }
      ],
      "stateMutability": "view",
      "type": "function"
    },
    {
      "inputs": [],
      "name": "owner",
      "outputs": [
        {
          "internalType": "address",
          "name": "",
          "type": "address"
        }
      ],
      "stateMutability": "view",
      "type": "function"
    },
    {
      "inputs": [
        {
          "internalType": "uint256",
          "name": "tokenId",
          "type": "uint256"
        }
      ],
      "name": "ownerOf",
      "outputs": [
        {
          "internalType": "address",
          "name": "",
          "type": "address"
        }
      ],
      "stateMutability": "view",
      "type": "function"
    },
    {
      "inputs": [
        {
          "internalType": "string",
          "name": "metadataURI",
          "type": "string"
        },
        {
          "internalType": "uint256",
          "name": "quantity",
          "type": "uint256"
        }
      ],
      "name": "payToMint",
      "outputs": [],
      "stateMutability": "payable",
      "type": "function"
    },
    {
      "inputs": [],
      "name": "renounceOwnership",
      "outputs": [],
      "stateMutability": "nonpayable",
      "type": "function"
    },
    {
      "inputs": [
        {
          "internalType": "address",
          "name": "from",
          "type": "address"
        },
        {
          "internalType": "address",
          "name": "to",
          "type": "address"
        },
        {
          "internalType": "uint256",
          "name": "tokenId",
          "type": "uint256"
        }
      ],
      "name": "safeTransferFrom",
      "outputs": [],
      "stateMutability": "nonpayable",
      "type": "function"
    },
    {
      "inputs": [
        {
          "internalType": "address",
          "name": "from",
          "type": "address"
        },
        {
          "internalType": "address",
          "name": "to",
          "type": "address"
        },
        {
          "internalType": "uint256",
          "name": "tokenId",
          "type": "uint256"
        },
        {
          "internalType": "bytes",
          "name": "_data",
          "type": "bytes"
        }
      ],
      "name": "safeTransferFrom",
      "outputs": [],
      "stateMutability": "nonpayable",
      "type": "function"
    },
    {
      "inputs": [
        {
          "internalType": "address",
          "name": "operator",
          "type": "address"
        },
        {
          "internalType": "bool",
          "name": "approved",
          "type": "bool"
        }
      ],
      "name": "setApprovalForAll",
      "outputs": [],
      "stateMutability": "nonpayable",
      "type": "function"
    },
    {
      "inputs": [
        {
          "internalType": "bytes4",
          "name": "interfaceId",
          "type": "bytes4"
        }
      ],
      "name": "supportsInterface",
      "outputs": [
        {
          "internalType": "bool",
          "name": "",
          "type": "bool"
        }
      ],
      "stateMutability": "view",
      "type": "function"
    },
    {
      "inputs": [],
      "name": "symbol",
      "outputs": [
        {
          "internalType": "string",
          "name": "",
          "type": "string"
        }
      ],
      "stateMutability": "view",
      "type": "function"
    },
    {
      "inputs": [
        {
          "internalType": "uint256",
          "name": "tokenId",
          "type": "uint256"
        }
      ],
      "name": "tokenURI",
      "outputs": [
        {
          "internalType": "string",
          "name": "",
          "type": "string"
        }
      ],
      "stateMutability": "view",
      "type": "function"
    },
    {
      "inputs": [],
      "name": "totalSupply",
      "outputs": [
        {
          "internalType": "uint256",
          "name": "",
          "type": "uint256"
        }
      ],
      "stateMutability": "view",
      "type": "function"
    },
    {
      "inputs": [
        {
          "internalType": "address",
          "name": "from",
          "type": "address"
        },
        {
          "internalType": "address",
          "name": "to",
          "type": "address"
        },
        {
          "internalType": "uint256",
          "name": "tokenId",
          "type": "uint256"
        }
      ],
      "name": "transferFrom",
      "outputs": [],
      "stateMutability": "nonpayable",
      "type": "function"
    },
    {
      "inputs": [
        {
          "internalType": "address",
          "name": "newOwner",
          "type": "address"
        }
      ],
      "name": "transferOwnership",
      "outputs": [],
      "stateMutability": "nonpayable",
      "type": "function"
    }
  ],
  "bytecode": "0x60806040523480156200001157600080fd5b506040518060400160405280600681526020017f4e465441567300000000000000000000000000000000000000000000000000008152506040518060400160405280600381526020017f4e41560000000000000000000000000000000000000000000000000000000000815250816002908051906020019062000096929190620001c1565b508060039080519060200190620000af929190620001c1565b50620000c0620000ee60201b60201c565b6000819055505050620000e8620000dc620000f360201b60201c565b620000fb60201b60201c565b620002d6565b600090565b600033905090565b6000600860009054906101000a900473ffffffffffffffffffffffffffffffffffffffff16905081600860006101000a81548173ffffffffffffffffffffffffffffffffffffffff021916908373ffffffffffffffffffffffffffffffffffffffff1602179055508173ffffffffffffffffffffffffffffffffffffffff168173ffffffffffffffffffffffffffffffffffffffff167f8be0079c531659141344cd1fd0a4f28419497f9722a3daafe3b4186f6b6457e060405160405180910390a35050565b828054620001cf90620002a0565b90600052602060002090601f016020900481019282620001f357600085556200023f565b82601f106200020e57805160ff19168380011785556200023f565b828001600101855582156200023f579182015b828111156200023e57825182559160200191906001019062000221565b5b5090506200024e919062000252565b5090565b5b808211156200026d57600081600090555060010162000253565b5090565b7f4e487b7100000000000000000000000000000000000000000000000000000000600052602260045260246000fd5b60006002820490506001821680620002b957607f821691505b60208210811415620002d057620002cf62000271565b5b50919050565b612f9b80620002e66000396000f3fe60806040526004361061012a5760003560e01c8063715018a6116100ab578063a0712d681161006f578063a0712d68146103e5578063a22cb46514610401578063b88d4fde1461042a578063c87b56dd14610453578063e985e9c514610490578063f2fde38b146104cd5761012a565b8063715018a61461031f57806376b308ee146103365780638da5cb5b1461035257806395d89b411461037d5780639f1cabc6146103a85761012a565b806318160ddd116100f257806318160ddd1461022857806323b872dd1461025357806342842e0e1461027c5780636352211e146102a557806370a08231146102e25761012a565b806301ffc9a71461012f57806306661abd1461016c57806306fdde0314610197578063081812fc146101c2578063095ea7b3146101ff575b600080fd5b34801561013b57600080fd5b50610156600480360381019061015191906122af565b6104f6565b60405161016391906122f7565b60405180910390f35b34801561017857600080fd5b506101816105d8565b60405161018e919061232b565b60405180910390f35b3480156101a357600080fd5b506101ac6105e9565b6040516101b991906123df565b60405180910390f35b3480156101ce57600080fd5b506101e960048036038101906101e4919061242d565b61067b565b6040516101f6919061249b565b60405180910390f35b34801561020b57600080fd5b50610226600480360381019061022191906124e2565b6106f7565b005b34801561023457600080fd5b5061023d610802565b60405161024a919061232b565b60405180910390f35b34801561025f57600080fd5b5061027a60048036038101906102759190612522565b610819565b005b34801561028857600080fd5b506102a3600480360381019061029e9190612522565b610829565b005b3480156102b157600080fd5b506102cc60048036038101906102c7919061242d565b610849565b6040516102d9919061249b565b60405180910390f35b3480156102ee57600080fd5b5061030960048036038101906103049190612575565b61085f565b604051610316919061232b565b60405180910390f35b34801561032b57600080fd5b5061033461092f565b005b610350600480360381019061034b91906126d7565b6109b7565b005b34801561035e57600080fd5b50610367610ae7565b604051610374919061249b565b60405180910390f35b34801561038957600080fd5b50610392610b11565b60405161039f91906123df565b60405180910390f35b3480156103b457600080fd5b506103cf60048036038101906103ca9190612733565b610ba3565b6040516103dc91906122f7565b60405180910390f35b6103ff60048036038101906103fa919061242d565b610bde565b005b34801561040d57600080fd5b50610428600480360381019061042391906127a8565b610cbf565b005b34801561043657600080fd5b50610451600480360381019061044c9190612889565b610e37565b005b34801561045f57600080fd5b5061047a6004803603810190610475919061242d565b610eb3565b60405161048791906123df565b60405180910390f35b34801561049c57600080fd5b506104b760048036038101906104b2919061290c565b610ec5565b6040516104c491906122f7565b60405180910390f35b3480156104d957600080fd5b506104f460048036038101906104ef9190612575565b610f59565b005b60007f80ac58cd000000000000000000000000000000000000000000000000000000007bffffffffffffffffffffffffffffffffffffffffffffffffffffffff1916827bffffffffffffffffffffffffffffffffffffffffffffffffffffffff191614806105c157507f5b5e139f000000000000000000000000000000000000000000000000000000007bffffffffffffffffffffffffffffffffffffffffffffffffffffffff1916827bffffffffffffffffffffffffffffffffffffffffffffffffffffffff1916145b806105d157506105d082611051565b5b9050919050565b60006105e460096110bb565b905090565b6060600280546105f89061297b565b80601f01602080910402602001604051908101604052809291908181526020018280546106249061297b565b80156106715780601f1061064657610100808354040283529160200191610671565b820191906000526020600020905b81548152906001019060200180831161065457829003601f168201915b5050505050905090565b6000610686826110c9565b6106bc576040517fcf4700e400000000000000000000000000000000000000000000000000000000815260040160405180910390fd5b6006600083815260200190815260200160002060009054906101000a900473ffffffffffffffffffffffffffffffffffffffff169050919050565b600061070282610849565b90508073ffffffffffffffffffffffffffffffffffffffff168373ffffffffffffffffffffffffffffffffffffffff16141561076a576040517f943f7b8c00000000000000000000000000000000000000000000000000000000815260040160405180910390fd5b8073ffffffffffffffffffffffffffffffffffffffff16610789611117565b73ffffffffffffffffffffffffffffffffffffffff16141580156107bb57506107b9816107b4611117565b610ec5565b155b156107f2576040517fcfb3b94200000000000000000000000000000000000000000000000000000000815260040160405180910390fd5b6107fd83838361111f565b505050565b600061080c6111d1565b6001546000540303905090565b6108248383836111d6565b505050565b61084483838360405180602001604052806000815250610e37565b505050565b6000610854826116c7565b600001519050919050565b60008073ffffffffffffffffffffffffffffffffffffffff168273ffffffffffffffffffffffffffffffffffffffff1614156108c7576040517f8f4eb60400000000000000000000000000000000000000000000000000000000815260040160405180910390fd5b600560008373ffffffffffffffffffffffffffffffffffffffff1673ffffffffffffffffffffffffffffffffffffffff16815260200190815260200160002060000160009054906101000a900467ffffffffffffffff1667ffffffffffffffff169050919050565b610937611117565b73ffffffffffffffffffffffffffffffffffffffff16610955610ae7565b73ffffffffffffffffffffffffffffffffffffffff16146109ab576040517f08c379a00000000000000000000000000000000000000000000000000000000081526004016109a2906129f9565b60405180910390fd5b6109b56000611956565b565b6001600a836040516109c99190612a55565b908152602001604051809103902060009054906101000a900460ff1660ff161415610a29576040517f08c379a0000000000000000000000000000000000000000000000000000000008152600401610a2090612ab8565b60405180910390fd5b8066b1a2bc2ec50000610a3c9190612b07565b341015610a7e576040517f08c379a0000000000000000000000000000000000000000000000000000000008152600401610a7590612bad565b60405180910390fd5b6000610a8a60096110bb565b9050610a966009611a1c565b6001600a84604051610aa89190612a55565b908152602001604051809103902060006101000a81548160ff021916908360ff160217905550610ad83383611a32565b610ae181610eb3565b50505050565b6000600860009054906101000a900473ffffffffffffffffffffffffffffffffffffffff16905090565b606060038054610b209061297b565b80601f0160208091040260200160405190810160405280929190818152602001828054610b4c9061297b565b8015610b995780601f10610b6e57610100808354040283529160200191610b99565b820191906000526020600020905b815481529060010190602001808311610b7c57829003601f168201915b5050505050905090565b60006001600a83604051610bb79190612a55565b908152602001604051809103902060009054906101000a900460ff1660ff16149050919050565b8066b1a2bc2ec50000610bf19190612b07565b341015610c33576040517f08c379a0000000000000000000000000000000000000000000000000000000008152600401610c2a90612bad565b60405180910390fd5b6000600a82610c40611a50565b610c4a9190612bcd565b1190508015610c8e576040517f08c379a0000000000000000000000000000000000000000000000000000000008152600401610c8590612c6f565b60405180910390fd5b6000610c9a60096110bb565b9050610ca66009611a1c565b610cb03384611a32565b610cb981610eb3565b50505050565b610cc7611117565b73ffffffffffffffffffffffffffffffffffffffff168273ffffffffffffffffffffffffffffffffffffffff161415610d2c576040517fb06307db00000000000000000000000000000000000000000000000000000000815260040160405180910390fd5b8060076000610d39611117565b73ffffffffffffffffffffffffffffffffffffffff1673ffffffffffffffffffffffffffffffffffffffff16815260200190815260200160002060008473ffffffffffffffffffffffffffffffffffffffff1673ffffffffffffffffffffffffffffffffffffffff16815260200190815260200160002060006101000a81548160ff0219169083151502179055508173ffffffffffffffffffffffffffffffffffffffff16610de6611117565b73ffffffffffffffffffffffffffffffffffffffff167f17307eab39ab6107e8899845ad3d59bd9653f200f220920489ca2b5937696c3183604051610e2b91906122f7565b60405180910390a35050565b610e428484846111d6565b610e618373ffffffffffffffffffffffffffffffffffffffff16611a63565b8015610e765750610e7484848484611a86565b155b15610ead576040517fd1a57ed600000000000000000000000000000000000000000000000000000000815260040160405180910390fd5b50505050565b6060610ebe82611bd7565b9050919050565b6000600760008473ffffffffffffffffffffffffffffffffffffffff1673ffffffffffffffffffffffffffffffffffffffff16815260200190815260200160002060008373ffffffffffffffffffffffffffffffffffffffff1673ffffffffffffffffffffffffffffffffffffffff16815260200190815260200160002060009054906101000a900460ff16905092915050565b610f61611117565b73ffffffffffffffffffffffffffffffffffffffff16610f7f610ae7565b73ffffffffffffffffffffffffffffffffffffffff1614610fd5576040517f08c379a0000000000000000000000000000000000000000000000000000000008152600401610fcc906129f9565b60405180910390fd5b600073ffffffffffffffffffffffffffffffffffffffff168173ffffffffffffffffffffffffffffffffffffffff161415611045576040517f08c379a000000000000000000000000000000000000000000000000000000000815260040161103c90612d01565b60405180910390fd5b61104e81611956565b50565b60007f01ffc9a7000000000000000000000000000000000000000000000000000000007bffffffffffffffffffffffffffffffffffffffffffffffffffffffff1916827bffffffffffffffffffffffffffffffffffffffffffffffffffffffff1916149050919050565b600081600001549050919050565b6000816110d46111d1565b111580156110e3575060005482105b8015611110575060046000838152602001908152602001600020600001601c9054906101000a900460ff16155b9050919050565b600033905090565b826006600084815260200190815260200160002060006101000a81548173ffffffffffffffffffffffffffffffffffffffff021916908373ffffffffffffffffffffffffffffffffffffffff160217905550818373ffffffffffffffffffffffffffffffffffffffff168273ffffffffffffffffffffffffffffffffffffffff167f8c5be1e5ebec7d5bd14f71427d1e84f3dd0314c0f7b2291e5b200ac8c7c3b92560405160405180910390a4505050565b600090565b60006111e1826116c7565b90506000816000015173ffffffffffffffffffffffffffffffffffffffff16611208611117565b73ffffffffffffffffffffffffffffffffffffffff16148061123b575061123a8260000151611235611117565b610ec5565b5b806112805750611249611117565b73ffffffffffffffffffffffffffffffffffffffff166112688461067b565b73ffffffffffffffffffffffffffffffffffffffff16145b9050806112b9576040517f59c896be00000000000000000000000000000000000000000000000000000000815260040160405180910390fd5b8473ffffffffffffffffffffffffffffffffffffffff16826000015173ffffffffffffffffffffffffffffffffffffffff1614611322576040517fa114810000000000000000000000000000000000000000000000000000000000815260040160405180910390fd5b600073ffffffffffffffffffffffffffffffffffffffff168473ffffffffffffffffffffffffffffffffffffffff161415611389576040517fea553b3400000000000000000000000000000000000000000000000000000000815260040160405180910390fd5b6113968585856001611c76565b6113a6600084846000015161111f565b6001600560008773ffffffffffffffffffffffffffffffffffffffff1673ffffffffffffffffffffffffffffffffffffffff16815260200190815260200160002060000160008282829054906101000a900467ffffffffffffffff160392506101000a81548167ffffffffffffffff021916908367ffffffffffffffff1602179055506001600560008673ffffffffffffffffffffffffffffffffffffffff1673ffffffffffffffffffffffffffffffffffffffff16815260200190815260200160002060000160008282829054906101000a900467ffffffffffffffff160192506101000a81548167ffffffffffffffff021916908367ffffffffffffffff160217905550836004600085815260200190815260200160002060000160006101000a81548173ffffffffffffffffffffffffffffffffffffffff021916908373ffffffffffffffffffffffffffffffffffffffff160217905550426004600085815260200190815260200160002060000160146101000a81548167ffffffffffffffff021916908367ffffffffffffffff1602179055506000600184019050600073ffffffffffffffffffffffffffffffffffffffff166004600083815260200190815260200160002060000160009054906101000a900473ffffffffffffffffffffffffffffffffffffffff1673ffffffffffffffffffffffffffffffffffffffff161415611657576000548110156116565782600001516004600083815260200190815260200160002060000160006101000a81548173ffffffffffffffffffffffffffffffffffffffff021916908373ffffffffffffffffffffffffffffffffffffffff16021790555082602001516004600083815260200190815260200160002060000160146101000a81548167ffffffffffffffff021916908367ffffffffffffffff1602179055505b5b50828473ffffffffffffffffffffffffffffffffffffffff168673ffffffffffffffffffffffffffffffffffffffff167fddf252ad1be2c89b69c2b068fc378daa952ba7f163c4a11628f55a4df523b3ef60405160405180910390a46116c08585856001611c7c565b5050505050565b6116cf612200565b6000829050806116dd6111d1565b111580156116ec575060005481105b1561191f576000600460008381526020019081526020016000206040518060600160405290816000820160009054906101000a900473ffffffffffffffffffffffffffffffffffffffff1673ffffffffffffffffffffffffffffffffffffffff1673ffffffffffffffffffffffffffffffffffffffff1681526020016000820160149054906101000a900467ffffffffffffffff1667ffffffffffffffff1667ffffffffffffffff16815260200160008201601c9054906101000a900460ff1615151515815250509050806040015161191d57600073ffffffffffffffffffffffffffffffffffffffff16816000015173ffffffffffffffffffffffffffffffffffffffff1614611801578092505050611951565b5b60011561191c57818060019003925050600460008381526020019081526020016000206040518060600160405290816000820160009054906101000a900473ffffffffffffffffffffffffffffffffffffffff1673ffffffffffffffffffffffffffffffffffffffff1673ffffffffffffffffffffffffffffffffffffffff1681526020016000820160149054906101000a900467ffffffffffffffff1667ffffffffffffffff1667ffffffffffffffff16815260200160008201601c9054906101000a900460ff1615151515815250509050600073ffffffffffffffffffffffffffffffffffffffff16816000015173ffffffffffffffffffffffffffffffffffffffff1614611917578092505050611951565b611802565b5b505b6040517fdf2d9b4200000000000000000000000000000000000000000000000000000000815260040160405180910390fd5b919050565b6000600860009054906101000a900473ffffffffffffffffffffffffffffffffffffffff16905081600860006101000a81548173ffffffffffffffffffffffffffffffffffffffff021916908373ffffffffffffffffffffffffffffffffffffffff1602179055508173ffffffffffffffffffffffffffffffffffffffff168173ffffffffffffffffffffffffffffffffffffffff167f8be0079c531659141344cd1fd0a4f28419497f9722a3daafe3b4186f6b6457e060405160405180910390a35050565b6001816000016000828254019250508190555050565b611a4c828260405180602001604052806000815250611c82565b5050565b6000611a5a6111d1565b60005403905090565b6000808273ffffffffffffffffffffffffffffffffffffffff163b119050919050565b60008373ffffffffffffffffffffffffffffffffffffffff1663150b7a02611aac611117565b8786866040518563ffffffff1660e01b8152600401611ace9493929190612d76565b6020604051808303816000875af1925050508015611b0a57506040513d601f19601f82011682018060405250810190611b079190612dd7565b60015b611b84573d8060008114611b3a576040519150601f19603f3d011682016040523d82523d6000602084013e611b3f565b606091505b50600081511415611b7c576040517fd1a57ed600000000000000000000000000000000000000000000000000000000815260040160405180910390fd5b805181602001fd5b63150b7a0260e01b7bffffffffffffffffffffffffffffffffffffffffffffffffffffffff1916817bffffffffffffffffffffffffffffffffffffffffffffffffffffffff191614915050949350505050565b6060611be2826110c9565b611c18576040517fa14c4b5000000000000000000000000000000000000000000000000000000000815260040160405180910390fd5b6000611c22611c94565b9050600081511415611c435760405180602001604052806000815250611c6e565b80611c4d84611cd1565b604051602001611c5e929190612e04565b6040516020818303038152906040525b915050919050565b50505050565b50505050565b611c8f8383836001611e32565b505050565b60606040518060400160405280600781526020017f697066733a2f2f00000000000000000000000000000000000000000000000000815250905090565b60606000821415611d19576040518060400160405280600181526020017f30000000000000000000000000000000000000000000000000000000000000008152509050611e2d565b600082905060005b60008214611d4b578080611d3490612e28565b915050600a82611d449190612ea0565b9150611d21565b60008167ffffffffffffffff811115611d6757611d666125ac565b5b6040519080825280601f01601f191660200182016040528015611d995781602001600182028036833780820191505090505b5090505b60008514611e2657600182611db29190612ed1565b9150600a85611dc19190612f05565b6030611dcd9190612bcd565b60f81b818381518110611de357611de2612f36565b5b60200101907effffffffffffffffffffffffffffffffffffffffffffffffffffffffffffff1916908160001a905350600a85611e1f9190612ea0565b9450611d9d565b8093505050505b919050565b600080549050600073ffffffffffffffffffffffffffffffffffffffff168573ffffffffffffffffffffffffffffffffffffffff161415611e9f576040517f2e07630000000000000000000000000000000000000000000000000000000000815260040160405180910390fd5b6000841415611eda576040517fb562e8dd00000000000000000000000000000000000000000000000000000000815260040160405180910390fd5b611ee76000868387611c76565b83600560008773ffffffffffffffffffffffffffffffffffffffff1673ffffffffffffffffffffffffffffffffffffffff16815260200190815260200160002060000160008282829054906101000a900467ffffffffffffffff160192506101000a81548167ffffffffffffffff021916908367ffffffffffffffff16021790555083600560008773ffffffffffffffffffffffffffffffffffffffff1673ffffffffffffffffffffffffffffffffffffffff16815260200190815260200160002060000160088282829054906101000a900467ffffffffffffffff160192506101000a81548167ffffffffffffffff021916908367ffffffffffffffff160217905550846004600083815260200190815260200160002060000160006101000a81548173ffffffffffffffffffffffffffffffffffffffff021916908373ffffffffffffffffffffffffffffffffffffffff160217905550426004600083815260200190815260200160002060000160146101000a81548167ffffffffffffffff021916908367ffffffffffffffff1602179055506000819050600085820190508380156120b157506120b08773ffffffffffffffffffffffffffffffffffffffff16611a63565b5b15612177575b818773ffffffffffffffffffffffffffffffffffffffff16600073ffffffffffffffffffffffffffffffffffffffff167fddf252ad1be2c89b69c2b068fc378daa952ba7f163c4a11628f55a4df523b3ef60405160405180910390a46121266000888480600101955088611a86565b61215c576040517fd1a57ed600000000000000000000000000000000000000000000000000000000815260040160405180910390fd5b808214156120b757826000541461217257600080fd5b6121e3565b5b818060010192508773ffffffffffffffffffffffffffffffffffffffff16600073ffffffffffffffffffffffffffffffffffffffff167fddf252ad1be2c89b69c2b068fc378daa952ba7f163c4a11628f55a4df523b3ef60405160405180910390a480821415612178575b8160008190555050506121f96000868387611c7c565b5050505050565b6040518060600160405280600073ffffffffffffffffffffffffffffffffffffffff168152602001600067ffffffffffffffff1681526020016000151581525090565b6000604051905090565b600080fd5b600080fd5b60007fffffffff0000000000000000000000000000000000000000000000000000000082169050919050565b61228c81612257565b811461229757600080fd5b50565b6000813590506122a981612283565b92915050565b6000602082840312156122c5576122c461224d565b5b60006122d38482850161229a565b91505092915050565b60008115159050919050565b6122f1816122dc565b82525050565b600060208201905061230c60008301846122e8565b92915050565b6000819050919050565b61232581612312565b82525050565b6000602082019050612340600083018461231c565b92915050565b600081519050919050565b600082825260208201905092915050565b60005b83811015612380578082015181840152602081019050612365565b8381111561238f576000848401525b50505050565b6000601f19601f8301169050919050565b60006123b182612346565b6123bb8185612351565b93506123cb818560208601612362565b6123d481612395565b840191505092915050565b600060208201905081810360008301526123f981846123a6565b905092915050565b61240a81612312565b811461241557600080fd5b50565b60008135905061242781612401565b92915050565b6000602082840312156124435761244261224d565b5b600061245184828501612418565b91505092915050565b600073ffffffffffffffffffffffffffffffffffffffff82169050919050565b60006124858261245a565b9050919050565b6124958161247a565b82525050565b60006020820190506124b0600083018461248c565b92915050565b6124bf8161247a565b81146124ca57600080fd5b50565b6000813590506124dc816124b6565b92915050565b600080604083850312156124f9576124f861224d565b5b6000612507858286016124cd565b925050602061251885828601612418565b9150509250929050565b60008060006060848603121561253b5761253a61224d565b5b6000612549868287016124cd565b935050602061255a868287016124cd565b925050604061256b86828701612418565b9150509250925092565b60006020828403121561258b5761258a61224d565b5b6000612599848285016124cd565b91505092915050565b600080fd5b600080fd5b7f4e487b7100000000000000000000000000000000000000000000000000000000600052604160045260246000fd5b6125e482612395565b810181811067ffffffffffffffff82111715612603576126026125ac565b5b80604052505050565b6000612616612243565b905061262282826125db565b919050565b600067ffffffffffffffff821115612642576126416125ac565b5b61264b82612395565b9050602081019050919050565b82818337600083830152505050565b600061267a61267584612627565b61260c565b905082815260208101848484011115612696576126956125a7565b5b6126a1848285612658565b509392505050565b600082601f8301126126be576126bd6125a2565b5b81356126ce848260208601612667565b91505092915050565b600080604083850312156126ee576126ed61224d565b5b600083013567ffffffffffffffff81111561270c5761270b612252565b5b612718858286016126a9565b925050602061272985828601612418565b9150509250929050565b6000602082840312156127495761274861224d565b5b600082013567ffffffffffffffff81111561276757612766612252565b5b612773848285016126a9565b91505092915050565b612785816122dc565b811461279057600080fd5b50565b6000813590506127a28161277c565b92915050565b600080604083850312156127bf576127be61224d565b5b60006127cd858286016124cd565b92505060206127de85828601612793565b9150509250929050565b600067ffffffffffffffff821115612803576128026125ac565b5b61280c82612395565b9050602081019050919050565b600061282c612827846127e8565b61260c565b905082815260208101848484011115612848576128476125a7565b5b612853848285612658565b509392505050565b600082601f8301126128705761286f6125a2565b5b8135612880848260208601612819565b91505092915050565b600080600080608085870312156128a3576128a261224d565b5b60006128b1878288016124cd565b94505060206128c2878288016124cd565b93505060406128d387828801612418565b925050606085013567ffffffffffffffff8111156128f4576128f3612252565b5b6129008782880161285b565b91505092959194509250565b600080604083850312156129235761292261224d565b5b6000612931858286016124cd565b9250506020612942858286016124cd565b9150509250929050565b7f4e487b7100000000000000000000000000000000000000000000000000000000600052602260045260246000fd5b6000600282049050600182168061299357607f821691505b602082108114156129a7576129a661294c565b5b50919050565b7f4f776e61626c653a2063616c6c6572206973206e6f7420746865206f776e6572600082015250565b60006129e3602083612351565b91506129ee826129ad565b602082019050919050565b60006020820190508181036000830152612a12816129d6565b9050919050565b600081905092915050565b6000612a2f82612346565b612a398185612a19565b9350612a49818560208601612362565b80840191505092915050565b6000612a618284612a24565b915081905092915050565b7f4e465420616c7265616479206d696e7465642100000000000000000000000000600082015250565b6000612aa2601383612351565b9150612aad82612a6c565b602082019050919050565b60006020820190508181036000830152612ad181612a95565b9050919050565b7f4e487b7100000000000000000000000000000000000000000000000000000000600052601160045260246000fd5b6000612b1282612312565b9150612b1d83612312565b9250817fffffffffffffffffffffffffffffffffffffffffffffffffffffffffffffffff0483118215151615612b5657612b55612ad8565b5b828202905092915050565b7f4e65656420746f20706179207570210000000000000000000000000000000000600082015250565b6000612b97600f83612351565b9150612ba282612b61565b602082019050919050565b60006020820190508181036000830152612bc681612b8a565b9050919050565b6000612bd882612312565b9150612be383612312565b9250827fffffffffffffffffffffffffffffffffffffffffffffffffffffffffffffffff03821115612c1857612c17612ad8565b5b828201905092915050565b7f49732065786365656420746f74616c20737570706c7921000000000000000000600082015250565b6000612c59601783612351565b9150612c6482612c23565b602082019050919050565b60006020820190508181036000830152612c8881612c4c565b9050919050565b7f4f776e61626c653a206e6577206f776e657220697320746865207a65726f206160008201527f6464726573730000000000000000000000000000000000000000000000000000602082015250565b6000612ceb602683612351565b9150612cf682612c8f565b604082019050919050565b60006020820190508181036000830152612d1a81612cde565b9050919050565b600081519050919050565b600082825260208201905092915050565b6000612d4882612d21565b612d528185612d2c565b9350612d62818560208601612362565b612d6b81612395565b840191505092915050565b6000608082019050612d8b600083018761248c565b612d98602083018661248c565b612da5604083018561231c565b8181036060830152612db78184612d3d565b905095945050505050565b600081519050612dd181612283565b92915050565b600060208284031215612ded57612dec61224d565b5b6000612dfb84828501612dc2565b91505092915050565b6000612e108285612a24565b9150612e1c8284612a24565b91508190509392505050565b6000612e3382612312565b91507fffffffffffffffffffffffffffffffffffffffffffffffffffffffffffffffff821415612e6657612e65612ad8565b5b600182019050919050565b7f4e487b7100000000000000000000000000000000000000000000000000000000600052601260045260246000fd5b6000612eab82612312565b9150612eb683612312565b925082612ec657612ec5612e71565b5b828204905092915050565b6000612edc82612312565b9150612ee783612312565b925082821015612efa57612ef9612ad8565b5b828203905092915050565b6000612f1082612312565b9150612f1b83612312565b925082612f2b57612f2a612e71565b5b828206905092915050565b7f4e487b7100000000000000000000000000000000000000000000000000000000600052603260045260246000fdfea2646970667358221220c8b326603d0344d9bbcb060acfc968de401888c11a1554820b7aad16b8d1b73964736f6c634300080b0033",
  "linkReferences": {},
  "deployedLinkReferences": {}
}