{
  "_format": "hh-sol-artifact-1",
  "contractName": "NFTAVs",
  "sourceName": "contracts/NFTAVs.sol",
  "abi": [
    {
      "inputs": [],
      "stateMutability": "nonpayable",
      "type": "constructor"
    },
    {
      "inputs": [],
      "name": "ApprovalCallerNotOwnerNorApproved",
      "type": "error"
    },
    {
      "inputs": [],
      "name": "ApprovalQueryForNonexistentToken",
      "type": "error"
    },
    {
      "inputs": [],
      "name": "ApprovalToCurrentOwner",
      "type": "error"
    },
    {
      "inputs": [],
      "name": "ApproveToCaller",
      "type": "error"
    },
    {
      "inputs": [],
      "name": "BalanceQueryForZeroAddress",
      "type": "error"
    },
    {
      "inputs": [],
      "name": "MintToZeroAddress",
      "type": "error"
    },
    {
      "inputs": [],
      "name": "MintZeroQuantity",
      "type": "error"
    },
    {
      "inputs": [],
      "name": "MintedQueryForZeroAddress",
      "type": "error"
    },
    {
      "inputs": [],
      "name": "OwnerQueryForNonexistentToken",
      "type": "error"
    },
    {
      "inputs": [],
      "name": "TransferCallerNotOwnerNorApproved",
      "type": "error"
    },
    {
      "inputs": [],
      "name": "TransferFromIncorrectOwner",
      "type": "error"
    },
    {
      "inputs": [],
      "name": "TransferToNonERC721ReceiverImplementer",
      "type": "error"
    },
    {
      "inputs": [],
      "name": "TransferToZeroAddress",
      "type": "error"
    },
    {
      "inputs": [],
      "name": "URIQueryForNonexistentToken",
      "type": "error"
    },
    {
      "anonymous": false,
      "inputs": [
        {
          "indexed": true,
          "internalType": "address",
          "name": "owner",
          "type": "address"
        },
        {
          "indexed": true,
          "internalType": "address",
          "name": "approved",
          "type": "address"
        },
        {
          "indexed": true,
          "internalType": "uint256",
          "name": "tokenId",
          "type": "uint256"
        }
      ],
      "name": "Approval",
      "type": "event"
    },
    {
      "anonymous": false,
      "inputs": [
        {
          "indexed": true,
          "internalType": "address",
          "name": "owner",
          "type": "address"
        },
        {
          "indexed": true,
          "internalType": "address",
          "name": "operator",
          "type": "address"
        },
        {
          "indexed": false,
          "internalType": "bool",
          "name": "approved",
          "type": "bool"
        }
      ],
      "name": "ApprovalForAll",
      "type": "event"
    },
    {
      "anonymous": false,
      "inputs": [
        {
          "indexed": true,
          "internalType": "address",
          "name": "previousOwner",
          "type": "address"
        },
        {
          "indexed": true,
          "internalType": "address",
          "name": "newOwner",
          "type": "address"
        }
      ],
      "name": "OwnershipTransferred",
      "type": "event"
    },
    {
      "anonymous": false,
      "inputs": [
        {
          "indexed": true,
          "internalType": "address",
          "name": "from",
          "type": "address"
        },
        {
          "indexed": true,
          "internalType": "address",
          "name": "to",
          "type": "address"
        },
        {
          "indexed": true,
          "internalType": "uint256",
          "name": "tokenId",
          "type": "uint256"
        }
      ],
      "name": "Transfer",
      "type": "event"
    },
    {
      "inputs": [],
      "name": "_saleConfig",
      "outputs": [
        {
          "internalType": "uint64",
          "name": "publicPrice",
          "type": "uint64"
        }
      ],
      "stateMutability": "view",
      "type": "function"
    },
    {
      "inputs": [
        {
          "internalType": "address",
          "name": "to",
          "type": "address"
        },
        {
          "internalType": "uint256",
          "name": "tokenId",
          "type": "uint256"
        }
      ],
      "name": "approve",
      "outputs": [],
      "stateMutability": "nonpayable",
      "type": "function"
    },
    {
      "inputs": [
        {
          "internalType": "address",
          "name": "owner",
          "type": "address"
        }
      ],
      "name": "balanceOf",
      "outputs": [
        {
          "internalType": "uint256",
          "name": "",
          "type": "uint256"
        }
      ],
      "stateMutability": "view",
      "type": "function"
    },
    {
      "inputs": [],
      "name": "collectionSize",
      "outputs": [
        {
          "internalType": "uint256",
          "name": "",
          "type": "uint256"
        }
      ],
      "stateMutability": "view",
      "type": "function"
    },
    {
      "inputs": [
        {
          "internalType": "uint256",
          "name": "tokenId",
          "type": "uint256"
        }
      ],
      "name": "getApproved",
      "outputs": [
        {
          "internalType": "address",
          "name": "",
          "type": "address"
        }
      ],
      "stateMutability": "view",
      "type": "function"
    },
    {
      "inputs": [],
      "name": "getTokenURIs",
      "outputs": [
        {
          "internalType": "string[]",
          "name": "",
          "type": "string[]"
        }
      ],
      "stateMutability": "view",
      "type": "function"
    },
    {
      "inputs": [
        {
          "internalType": "address",
          "name": "owner",
          "type": "address"
        },
        {
          "internalType": "address",
          "name": "operator",
          "type": "address"
        }
      ],
      "name": "isApprovedForAll",
      "outputs": [
        {
          "internalType": "bool",
          "name": "",
          "type": "bool"
        }
      ],
      "stateMutability": "view",
      "type": "function"
    },
    {
      "inputs": [
        {
          "internalType": "bytes32",
          "name": "_merkleRoot",
          "type": "bytes32"
        },
        {
          "internalType": "address",
          "name": "_sender",
          "type": "address"
        },
        {
          "internalType": "bytes32[]",
          "name": "_merkleProof",
          "type": "bytes32[]"
        },
        {
          "internalType": "uint256",
          "name": "_quantity",
          "type": "uint256"
        }
      ],
      "name": "isWhiteList",
      "outputs": [
        {
          "internalType": "bool",
          "name": "",
          "type": "bool"
        }
      ],
      "stateMutability": "pure",
      "type": "function"
    },
    {
      "inputs": [],
      "name": "maxPerAddressDuringMint",
      "outputs": [
        {
          "internalType": "uint256",
          "name": "",
          "type": "uint256"
        }
      ],
      "stateMutability": "view",
      "type": "function"
    },
    {
      "inputs": [],
      "name": "name",
      "outputs": [
        {
          "internalType": "string",
          "name": "",
          "type": "string"
        }
      ],
      "stateMutability": "view",
      "type": "function"
    },
    {
      "inputs": [
        {
          "internalType": "address",
          "name": "owner",
          "type": "address"
        }
      ],
      "name": "numberMinted",
      "outputs": [
        {
          "internalType": "uint256",
          "name": "",
          "type": "uint256"
        }
      ],
      "stateMutability": "view",
      "type": "function"
    },
    {
      "inputs": [],
      "name": "owner",
      "outputs": [
        {
          "internalType": "address",
          "name": "",
          "type": "address"
        }
      ],
      "stateMutability": "view",
      "type": "function"
    },
    {
      "inputs": [
        {
          "internalType": "uint256",
          "name": "tokenId",
          "type": "uint256"
        }
      ],
      "name": "ownerOf",
      "outputs": [
        {
          "internalType": "address",
          "name": "",
          "type": "address"
        }
      ],
      "stateMutability": "view",
      "type": "function"
    },
    {
      "inputs": [
        {
          "internalType": "uint256",
          "name": "quantity",
          "type": "uint256"
        }
      ],
      "name": "publicSaleMint",
      "outputs": [],
      "stateMutability": "payable",
      "type": "function"
    },
    {
      "inputs": [],
      "name": "renounceOwnership",
      "outputs": [],
      "stateMutability": "nonpayable",
      "type": "function"
    },
    {
      "inputs": [
        {
          "internalType": "uint256",
          "name": "_tokenId",
          "type": "uint256"
        },
        {
          "internalType": "uint256",
          "name": "_salePrice",
          "type": "uint256"
        }
      ],
      "name": "royaltyInfo",
      "outputs": [
        {
          "internalType": "address",
          "name": "receiver",
          "type": "address"
        },
        {
          "internalType": "uint256",
          "name": "royaltyAmount",
          "type": "uint256"
        }
      ],
      "stateMutability": "view",
      "type": "function"
    },
    {
      "inputs": [
        {
          "internalType": "address",
          "name": "from",
          "type": "address"
        },
        {
          "internalType": "address",
          "name": "to",
          "type": "address"
        },
        {
          "internalType": "uint256",
          "name": "tokenId",
          "type": "uint256"
        }
      ],
      "name": "safeTransferFrom",
      "outputs": [],
      "stateMutability": "nonpayable",
      "type": "function"
    },
    {
      "inputs": [
        {
          "internalType": "address",
          "name": "from",
          "type": "address"
        },
        {
          "internalType": "address",
          "name": "to",
          "type": "address"
        },
        {
          "internalType": "uint256",
          "name": "tokenId",
          "type": "uint256"
        },
        {
          "internalType": "bytes",
          "name": "_data",
          "type": "bytes"
        }
      ],
      "name": "safeTransferFrom",
      "outputs": [],
      "stateMutability": "nonpayable",
      "type": "function"
    },
    {
      "inputs": [
        {
          "internalType": "address",
          "name": "operator",
          "type": "address"
        },
        {
          "internalType": "bool",
          "name": "approved",
          "type": "bool"
        }
      ],
      "name": "setApprovalForAll",
      "outputs": [],
      "stateMutability": "nonpayable",
      "type": "function"
    },
    {
      "inputs": [
        {
          "internalType": "string",
          "name": "baseURI",
          "type": "string"
        }
      ],
      "name": "setBaseURI",
      "outputs": [],
      "stateMutability": "nonpayable",
      "type": "function"
    },
    {
      "inputs": [
        {
          "internalType": "address",
          "name": "recipient",
          "type": "address"
        },
        {
          "internalType": "uint256",
          "name": "value",
          "type": "uint256"
        }
      ],
      "name": "setRoyalties",
      "outputs": [],
      "stateMutability": "nonpayable",
      "type": "function"
    },
    {
      "inputs": [
        {
          "internalType": "string[]",
          "name": "tokenURIs",
          "type": "string[]"
        }
      ],
      "name": "setTokenURIs",
      "outputs": [],
      "stateMutability": "nonpayable",
      "type": "function"
    },
    {
      "inputs": [
        {
          "internalType": "bytes4",
          "name": "interfaceId",
          "type": "bytes4"
        }
      ],
      "name": "supportsInterface",
      "outputs": [
        {
          "internalType": "bool",
          "name": "",
          "type": "bool"
        }
      ],
      "stateMutability": "view",
      "type": "function"
    },
    {
      "inputs": [],
      "name": "symbol",
      "outputs": [
        {
          "internalType": "string",
          "name": "",
          "type": "string"
        }
      ],
      "stateMutability": "view",
      "type": "function"
    },
    {
      "inputs": [
        {
          "internalType": "uint256",
          "name": "tokenId",
          "type": "uint256"
        }
      ],
      "name": "tokenURI",
      "outputs": [
        {
          "internalType": "string",
          "name": "",
          "type": "string"
        }
      ],
      "stateMutability": "view",
      "type": "function"
    },
    {
      "inputs": [],
      "name": "totalSupply",
      "outputs": [
        {
          "internalType": "uint256",
          "name": "",
          "type": "uint256"
        }
      ],
      "stateMutability": "view",
      "type": "function"
    },
    {
      "inputs": [
        {
          "internalType": "address",
          "name": "from",
          "type": "address"
        },
        {
          "internalType": "address",
          "name": "to",
          "type": "address"
        },
        {
          "internalType": "uint256",
          "name": "tokenId",
          "type": "uint256"
        }
      ],
      "name": "transferFrom",
      "outputs": [],
      "stateMutability": "nonpayable",
      "type": "function"
    },
    {
      "inputs": [
        {
          "internalType": "address",
          "name": "newOwner",
          "type": "address"
        }
      ],
      "name": "transferOwnership",
      "outputs": [],
      "stateMutability": "nonpayable",
      "type": "function"
    }
  ],
  "bytecode": "0x60c06040526064608090815250600a60a0908152503480156200002157600080fd5b506040518060400160405280600681526020017f4e465441567300000000000000000000000000000000000000000000000000008152506040518060400160405280600381526020017f4e415600000000000000000000000000000000000000000000000000000000008152508160029080519060200190620000a692919062000225565b508060039080519060200190620000bf92919062000225565b50620000d06200015260201b60201c565b6000819055505050620000f8620000ec6200015760201b60201c565b6200015f60201b60201c565b60405180602001604052806611c37937e0800067ffffffffffffffff16815250600960008201518160000160006101000a81548167ffffffffffffffff021916908367ffffffffffffffff1602179055509050506200033a565b600090565b600033905090565b6000600860009054906101000a900473ffffffffffffffffffffffffffffffffffffffff16905081600860006101000a81548173ffffffffffffffffffffffffffffffffffffffff021916908373ffffffffffffffffffffffffffffffffffffffff1602179055508173ffffffffffffffffffffffffffffffffffffffff168173ffffffffffffffffffffffffffffffffffffffff167f8be0079c531659141344cd1fd0a4f28419497f9722a3daafe3b4186f6b6457e060405160405180910390a35050565b828054620002339062000304565b90600052602060002090601f016020900481019282620002575760008555620002a3565b82601f106200027257805160ff1916838001178555620002a3565b82800160010185558215620002a3579182015b82811115620002a257825182559160200191906001019062000285565b5b509050620002b29190620002b6565b5090565b5b80821115620002d1576000816000905550600101620002b7565b5090565b7f4e487b7100000000000000000000000000000000000000000000000000000000600052602260045260246000fd5b600060028204905060018216806200031d57607f821691505b60208210811415620003345762000333620002d5565b5b50919050565b60805160a051613eda6200036e60003960008181610b1b0152611145015260008181610d3f01526111ba0152613eda6000f3fe6080604052600436106101b65760003560e01c8063715018a6116100ec578063b6d3564b1161008a578063dc33e68111610064578063dc33e681146105fd578063e167d4451461063a578063e985e9c514610677578063f2fde38b146106b4576101b6565b8063b6d3564b1461056c578063b88d4fde14610597578063c87b56dd146105c0576101b6565b80638da5cb5b116100c65780638da5cb5b146104d157806395d89b41146104fc578063a22cb46514610527578063b3ab66b014610550576101b6565b8063715018a6146104665780638bc35c2f1461047d5780638c7ea24b146104a8576101b6565b80632a55205a1161015957806345c0f5331161013357806345c0f5331461039857806355f804b3146103c35780636352211e146103ec57806370a0823114610429576101b6565b80632a55205a146103065780632e95599a1461034457806342842e0e1461036f576101b6565b8063081812fc11610195578063081812fc1461024c578063095ea7b31461028957806318160ddd146102b257806323b872dd146102dd576101b6565b8062c07ffc146101bb57806301ffc9a7146101e457806306fdde0314610221575b600080fd5b3480156101c757600080fd5b506101e260048036038101906101dd9190612da9565b6106dd565b005b3480156101f057600080fd5b5061020b60048036038101906102069190612e4a565b6106f7565b6040516102189190612e92565b60405180910390f35b34801561022d57600080fd5b506102366107d9565b6040516102439190612f35565b60405180910390f35b34801561025857600080fd5b50610273600480360381019061026e9190612f8d565b61086b565b6040516102809190612ffb565b60405180910390f35b34801561029557600080fd5b506102b060048036038101906102ab9190613042565b6108e7565b005b3480156102be57600080fd5b506102c76109f2565b6040516102d49190613091565b60405180910390f35b3480156102e957600080fd5b5061030460048036038101906102ff91906130ac565b610a09565b005b34801561031257600080fd5b5061032d600480360381019061032891906130ff565b610a19565b60405161033b92919061313f565b60405180910390f35b34801561035057600080fd5b50610359610ad9565b604051610366919061318b565b60405180910390f35b34801561037b57600080fd5b50610396600480360381019061039191906130ac565b610af9565b005b3480156103a457600080fd5b506103ad610b19565b6040516103ba9190613091565b60405180910390f35b3480156103cf57600080fd5b506103ea60048036038101906103e59190613201565b610b3d565b005b3480156103f857600080fd5b50610413600480360381019061040e9190612f8d565b610bcf565b6040516104209190612ffb565b60405180910390f35b34801561043557600080fd5b50610450600480360381019061044b919061324e565b610be5565b60405161045d9190613091565b60405180910390f35b34801561047257600080fd5b5061047b610cb5565b005b34801561048957600080fd5b50610492610d3d565b60405161049f9190613091565b60405180910390f35b3480156104b457600080fd5b506104cf60048036038101906104ca9190613042565b610d61565b005b3480156104dd57600080fd5b506104e6610e4b565b6040516104f39190612ffb565b60405180910390f35b34801561050857600080fd5b50610511610e75565b60405161051e9190612f35565b60405180910390f35b34801561053357600080fd5b5061054e600480360381019061054991906132a7565b610f07565b005b61056a60048036038101906105659190612f8d565b61107f565b005b34801561057857600080fd5b50610581611251565b60405161058e91906133f3565b60405180910390f35b3480156105a357600080fd5b506105be60048036038101906105b991906134b6565b61132a565b005b3480156105cc57600080fd5b506105e760048036038101906105e29190612f8d565b6113a6565b6040516105f49190612f35565b60405180910390f35b34801561060957600080fd5b50610624600480360381019061061f919061324e565b611445565b6040516106319190613091565b60405180910390f35b34801561064657600080fd5b50610661600480360381019061065c91906135c5565b611457565b60405161066e9190612e92565b60405180910390f35b34801561068357600080fd5b5061069e6004803603810190610699919061364d565b6114dd565b6040516106ab9190612e92565b60405180910390f35b3480156106c057600080fd5b506106db60048036038101906106d6919061324e565b611571565b005b80600c90805190602001906106f3929190612939565b5050565b60007f80ac58cd000000000000000000000000000000000000000000000000000000007bffffffffffffffffffffffffffffffffffffffffffffffffffffffff1916827bffffffffffffffffffffffffffffffffffffffffffffffffffffffff191614806107c257507f5b5e139f000000000000000000000000000000000000000000000000000000007bffffffffffffffffffffffffffffffffffffffffffffffffffffffff1916827bffffffffffffffffffffffffffffffffffffffffffffffffffffffff1916145b806107d257506107d182611669565b5b9050919050565b6060600280546107e8906136bc565b80601f0160208091040260200160405190810160405280929190818152602001828054610814906136bc565b80156108615780601f1061083657610100808354040283529160200191610861565b820191906000526020600020905b81548152906001019060200180831161084457829003601f168201915b5050505050905090565b6000610876826116d3565b6108ac576040517fcf4700e400000000000000000000000000000000000000000000000000000000815260040160405180910390fd5b6006600083815260200190815260200160002060009054906101000a900473ffffffffffffffffffffffffffffffffffffffff169050919050565b60006108f282610bcf565b90508073ffffffffffffffffffffffffffffffffffffffff168373ffffffffffffffffffffffffffffffffffffffff16141561095a576040517f943f7b8c00000000000000000000000000000000000000000000000000000000815260040160405180910390fd5b8073ffffffffffffffffffffffffffffffffffffffff16610979611721565b73ffffffffffffffffffffffffffffffffffffffff16141580156109ab57506109a9816109a4611721565b6114dd565b155b156109e2576040517fcfb3b94200000000000000000000000000000000000000000000000000000000815260040160405180910390fd5b6109ed838383611729565b505050565b60006109fc6117db565b6001546000540303905090565b610a148383836117e0565b505050565b6000806000600a6040518060400160405290816000820160009054906101000a900473ffffffffffffffffffffffffffffffffffffffff1673ffffffffffffffffffffffffffffffffffffffff1673ffffffffffffffffffffffffffffffffffffffff1681526020016000820160149054906101000a900462ffffff1662ffffff1662ffffff1681525050905080600001519250612710816020015162ffffff1685610ac5919061371d565b610acf91906137a6565b9150509250929050565b60098060000160009054906101000a900467ffffffffffffffff16905081565b610b148383836040518060200160405280600081525061132a565b505050565b7f000000000000000000000000000000000000000000000000000000000000000081565b610b45611721565b73ffffffffffffffffffffffffffffffffffffffff16610b63610e4b565b73ffffffffffffffffffffffffffffffffffffffff1614610bb9576040517f08c379a0000000000000000000000000000000000000000000000000000000008152600401610bb090613823565b60405180910390fd5b8181600b9190610bca929190612999565b505050565b6000610bda82611cd1565b600001519050919050565b60008073ffffffffffffffffffffffffffffffffffffffff168273ffffffffffffffffffffffffffffffffffffffff161415610c4d576040517f8f4eb60400000000000000000000000000000000000000000000000000000000815260040160405180910390fd5b600560008373ffffffffffffffffffffffffffffffffffffffff1673ffffffffffffffffffffffffffffffffffffffff16815260200190815260200160002060000160009054906101000a900467ffffffffffffffff1667ffffffffffffffff169050919050565b610cbd611721565b73ffffffffffffffffffffffffffffffffffffffff16610cdb610e4b565b73ffffffffffffffffffffffffffffffffffffffff1614610d31576040517f08c379a0000000000000000000000000000000000000000000000000000000008152600401610d2890613823565b60405180910390fd5b610d3b6000611f60565b565b7f000000000000000000000000000000000000000000000000000000000000000081565b612710811115610da6576040517f08c379a0000000000000000000000000000000000000000000000000000000008152600401610d9d9061388f565b60405180910390fd5b60405180604001604052808373ffffffffffffffffffffffffffffffffffffffff1681526020018262ffffff16815250600a60008201518160000160006101000a81548173ffffffffffffffffffffffffffffffffffffffff021916908373ffffffffffffffffffffffffffffffffffffffff16021790555060208201518160000160146101000a81548162ffffff021916908362ffffff1602179055509050505050565b6000600860009054906101000a900473ffffffffffffffffffffffffffffffffffffffff16905090565b606060038054610e84906136bc565b80601f0160208091040260200160405190810160405280929190818152602001828054610eb0906136bc565b8015610efd5780601f10610ed257610100808354040283529160200191610efd565b820191906000526020600020905b815481529060010190602001808311610ee057829003601f168201915b5050505050905090565b610f0f611721565b73ffffffffffffffffffffffffffffffffffffffff168273ffffffffffffffffffffffffffffffffffffffff161415610f74576040517fb06307db00000000000000000000000000000000000000000000000000000000815260040160405180910390fd5b8060076000610f81611721565b73ffffffffffffffffffffffffffffffffffffffff1673ffffffffffffffffffffffffffffffffffffffff16815260200190815260200160002060008473ffffffffffffffffffffffffffffffffffffffff1673ffffffffffffffffffffffffffffffffffffffff16815260200190815260200160002060006101000a81548160ff0219169083151502179055508173ffffffffffffffffffffffffffffffffffffffff1661102e611721565b73ffffffffffffffffffffffffffffffffffffffff167f17307eab39ab6107e8899845ad3d59bd9653f200f220920489ca2b5937696c31836040516110739190612e92565b60405180910390a35050565b3373ffffffffffffffffffffffffffffffffffffffff163273ffffffffffffffffffffffffffffffffffffffff16146110ed576040517f08c379a00000000000000000000000000000000000000000000000000000000081526004016110e4906138fb565b60405180910390fd5b600060096040518060200160405290816000820160009054906101000a900467ffffffffffffffff1667ffffffffffffffff1667ffffffffffffffff168152505090506000816000015167ffffffffffffffff1690507f00000000000000000000000000000000000000000000000000000000000000008361116d6109f2565b611177919061391b565b11156111b8576040517f08c379a00000000000000000000000000000000000000000000000000000000081526004016111af906139bd565b60405180910390fd5b7f0000000000000000000000000000000000000000000000000000000000000000836111e333611445565b6111ed919061391b565b111561122e576040517f08c379a000000000000000000000000000000000000000000000000000000000815260040161122590613a29565b60405180910390fd5b6112383384612026565b61124c8382611247919061371d565b612044565b505050565b6060600c805480602002602001604051908101604052809291908181526020016000905b82821015611321578382906000526020600020018054611294906136bc565b80601f01602080910402602001604051908101604052809291908181526020018280546112c0906136bc565b801561130d5780601f106112e25761010080835404028352916020019161130d565b820191906000526020600020905b8154815290600101906020018083116112f057829003601f168201915b505050505081526020019060010190611275565b50505050905090565b6113358484846117e0565b6113548373ffffffffffffffffffffffffffffffffffffffff166120e5565b8015611369575061136784848484612108565b155b156113a0576040517fd1a57ed600000000000000000000000000000000000000000000000000000000815260040160405180910390fd5b50505050565b60606113b1826116d3565b6113e7576040517fa14c4b5000000000000000000000000000000000000000000000000000000000815260040160405180910390fd5b60006113f1612259565b9050600081511415611412576040518060200160405280600081525061143d565b8061141c84612279565b60405160200161142d929190613ad1565b6040516020818303038152906040525b915050919050565b6000611450826123da565b9050919050565b600080858360405160200161146d929190613b69565b6040516020818303038152906040528051906020012090506114d1858580806020026020016040519081016040528093929190818152602001838360200280828437600081840152601f19601f8201169050808301925050505050505088836124aa565b91505095945050505050565b6000600760008473ffffffffffffffffffffffffffffffffffffffff1673ffffffffffffffffffffffffffffffffffffffff16815260200190815260200160002060008373ffffffffffffffffffffffffffffffffffffffff1673ffffffffffffffffffffffffffffffffffffffff16815260200190815260200160002060009054906101000a900460ff16905092915050565b611579611721565b73ffffffffffffffffffffffffffffffffffffffff16611597610e4b565b73ffffffffffffffffffffffffffffffffffffffff16146115ed576040517f08c379a00000000000000000000000000000000000000000000000000000000081526004016115e490613823565b60405180910390fd5b600073ffffffffffffffffffffffffffffffffffffffff168173ffffffffffffffffffffffffffffffffffffffff16141561165d576040517f08c379a000000000000000000000000000000000000000000000000000000000815260040161165490613c07565b60405180910390fd5b61166681611f60565b50565b60007f01ffc9a7000000000000000000000000000000000000000000000000000000007bffffffffffffffffffffffffffffffffffffffffffffffffffffffff1916827bffffffffffffffffffffffffffffffffffffffffffffffffffffffff1916149050919050565b6000816116de6117db565b111580156116ed575060005482105b801561171a575060046000838152602001908152602001600020600001601c9054906101000a900460ff16155b9050919050565b600033905090565b826006600084815260200190815260200160002060006101000a81548173ffffffffffffffffffffffffffffffffffffffff021916908373ffffffffffffffffffffffffffffffffffffffff160217905550818373ffffffffffffffffffffffffffffffffffffffff168273ffffffffffffffffffffffffffffffffffffffff167f8c5be1e5ebec7d5bd14f71427d1e84f3dd0314c0f7b2291e5b200ac8c7c3b92560405160405180910390a4505050565b600090565b60006117eb82611cd1565b90506000816000015173ffffffffffffffffffffffffffffffffffffffff16611812611721565b73ffffffffffffffffffffffffffffffffffffffff1614806118455750611844826000015161183f611721565b6114dd565b5b8061188a5750611853611721565b73ffffffffffffffffffffffffffffffffffffffff166118728461086b565b73ffffffffffffffffffffffffffffffffffffffff16145b9050806118c3576040517f59c896be00000000000000000000000000000000000000000000000000000000815260040160405180910390fd5b8473ffffffffffffffffffffffffffffffffffffffff16826000015173ffffffffffffffffffffffffffffffffffffffff161461192c576040517fa114810000000000000000000000000000000000000000000000000000000000815260040160405180910390fd5b600073ffffffffffffffffffffffffffffffffffffffff168473ffffffffffffffffffffffffffffffffffffffff161415611993576040517fea553b3400000000000000000000000000000000000000000000000000000000815260040160405180910390fd5b6119a085858560016124c1565b6119b06000848460000151611729565b6001600560008773ffffffffffffffffffffffffffffffffffffffff1673ffffffffffffffffffffffffffffffffffffffff16815260200190815260200160002060000160008282829054906101000a900467ffffffffffffffff160392506101000a81548167ffffffffffffffff021916908367ffffffffffffffff1602179055506001600560008673ffffffffffffffffffffffffffffffffffffffff1673ffffffffffffffffffffffffffffffffffffffff16815260200190815260200160002060000160008282829054906101000a900467ffffffffffffffff160192506101000a81548167ffffffffffffffff021916908367ffffffffffffffff160217905550836004600085815260200190815260200160002060000160006101000a81548173ffffffffffffffffffffffffffffffffffffffff021916908373ffffffffffffffffffffffffffffffffffffffff160217905550426004600085815260200190815260200160002060000160146101000a81548167ffffffffffffffff021916908367ffffffffffffffff1602179055506000600184019050600073ffffffffffffffffffffffffffffffffffffffff166004600083815260200190815260200160002060000160009054906101000a900473ffffffffffffffffffffffffffffffffffffffff1673ffffffffffffffffffffffffffffffffffffffff161415611c6157600054811015611c605782600001516004600083815260200190815260200160002060000160006101000a81548173ffffffffffffffffffffffffffffffffffffffff021916908373ffffffffffffffffffffffffffffffffffffffff16021790555082602001516004600083815260200190815260200160002060000160146101000a81548167ffffffffffffffff021916908367ffffffffffffffff1602179055505b5b50828473ffffffffffffffffffffffffffffffffffffffff168673ffffffffffffffffffffffffffffffffffffffff167fddf252ad1be2c89b69c2b068fc378daa952ba7f163c4a11628f55a4df523b3ef60405160405180910390a4611cca85858560016124c7565b5050505050565b611cd9612a1f565b600082905080611ce76117db565b11158015611cf6575060005481105b15611f29576000600460008381526020019081526020016000206040518060600160405290816000820160009054906101000a900473ffffffffffffffffffffffffffffffffffffffff1673ffffffffffffffffffffffffffffffffffffffff1673ffffffffffffffffffffffffffffffffffffffff1681526020016000820160149054906101000a900467ffffffffffffffff1667ffffffffffffffff1667ffffffffffffffff16815260200160008201601c9054906101000a900460ff16151515158152505090508060400151611f2757600073ffffffffffffffffffffffffffffffffffffffff16816000015173ffffffffffffffffffffffffffffffffffffffff1614611e0b578092505050611f5b565b5b600115611f2657818060019003925050600460008381526020019081526020016000206040518060600160405290816000820160009054906101000a900473ffffffffffffffffffffffffffffffffffffffff1673ffffffffffffffffffffffffffffffffffffffff1673ffffffffffffffffffffffffffffffffffffffff1681526020016000820160149054906101000a900467ffffffffffffffff1667ffffffffffffffff1667ffffffffffffffff16815260200160008201601c9054906101000a900460ff1615151515815250509050600073ffffffffffffffffffffffffffffffffffffffff16816000015173ffffffffffffffffffffffffffffffffffffffff1614611f21578092505050611f5b565b611e0c565b5b505b6040517fdf2d9b4200000000000000000000000000000000000000000000000000000000815260040160405180910390fd5b919050565b6000600860009054906101000a900473ffffffffffffffffffffffffffffffffffffffff16905081600860006101000a81548173ffffffffffffffffffffffffffffffffffffffff021916908373ffffffffffffffffffffffffffffffffffffffff1602179055508173ffffffffffffffffffffffffffffffffffffffff168173ffffffffffffffffffffffffffffffffffffffff167f8be0079c531659141344cd1fd0a4f28419497f9722a3daafe3b4186f6b6457e060405160405180910390a35050565b6120408282604051806020016040528060008152506124cd565b5050565b80341015612087576040517f08c379a000000000000000000000000000000000000000000000000000000000815260040161207e90613c73565b60405180910390fd5b803411156120e2573373ffffffffffffffffffffffffffffffffffffffff166108fc82346120b59190613c93565b9081150290604051600060405180830381858888f193505050501580156120e0573d6000803e3d6000fd5b505b50565b6000808273ffffffffffffffffffffffffffffffffffffffff163b119050919050565b60008373ffffffffffffffffffffffffffffffffffffffff1663150b7a0261212e611721565b8786866040518563ffffffff1660e01b81526004016121509493929190613d1c565b6020604051808303816000875af192505050801561218c57506040513d601f19601f820116820180604052508101906121899190613d7d565b60015b612206573d80600081146121bc576040519150601f19603f3d011682016040523d82523d6000602084013e6121c1565b606091505b506000815114156121fe576040517fd1a57ed600000000000000000000000000000000000000000000000000000000815260040160405180910390fd5b805181602001fd5b63150b7a0260e01b7bffffffffffffffffffffffffffffffffffffffffffffffffffffffff1916817bffffffffffffffffffffffffffffffffffffffffffffffffffffffff191614915050949350505050565b6060604051806080016040528060518152602001613e5460519139905090565b606060008214156122c1576040518060400160405280600181526020017f300000000000000000000000000000000000000000000000000000000000000081525090506123d5565b600082905060005b600082146122f35780806122dc90613daa565b915050600a826122ec91906137a6565b91506122c9565b60008167ffffffffffffffff81111561230f5761230e612b93565b5b6040519080825280601f01601f1916602001820160405280156123415781602001600182028036833780820191505090505b5090505b600085146123ce5760018261235a9190613c93565b9150600a856123699190613df3565b6030612375919061391b565b60f81b81838151811061238b5761238a613e24565b5b60200101907effffffffffffffffffffffffffffffffffffffffffffffffffffffffffffff1916908160001a905350600a856123c791906137a6565b9450612345565b8093505050505b919050565b60008073ffffffffffffffffffffffffffffffffffffffff168273ffffffffffffffffffffffffffffffffffffffff161415612442576040517f35ebb31900000000000000000000000000000000000000000000000000000000815260040160405180910390fd5b600560008373ffffffffffffffffffffffffffffffffffffffff1673ffffffffffffffffffffffffffffffffffffffff16815260200190815260200160002060000160089054906101000a900467ffffffffffffffff1667ffffffffffffffff169050919050565b6000826124b785846124df565b1490509392505050565b50505050565b50505050565b6124da8383836001612554565b505050565b60008082905060005b845181101561254957600085828151811061250657612505613e24565b5b60200260200101519050808311612528576125218382612922565b9250612535565b6125328184612922565b92505b50808061254190613daa565b9150506124e8565b508091505092915050565b600080549050600073ffffffffffffffffffffffffffffffffffffffff168573ffffffffffffffffffffffffffffffffffffffff1614156125c1576040517f2e07630000000000000000000000000000000000000000000000000000000000815260040160405180910390fd5b60008414156125fc576040517fb562e8dd00000000000000000000000000000000000000000000000000000000815260040160405180910390fd5b61260960008683876124c1565b83600560008773ffffffffffffffffffffffffffffffffffffffff1673ffffffffffffffffffffffffffffffffffffffff16815260200190815260200160002060000160008282829054906101000a900467ffffffffffffffff160192506101000a81548167ffffffffffffffff021916908367ffffffffffffffff16021790555083600560008773ffffffffffffffffffffffffffffffffffffffff1673ffffffffffffffffffffffffffffffffffffffff16815260200190815260200160002060000160088282829054906101000a900467ffffffffffffffff160192506101000a81548167ffffffffffffffff021916908367ffffffffffffffff160217905550846004600083815260200190815260200160002060000160006101000a81548173ffffffffffffffffffffffffffffffffffffffff021916908373ffffffffffffffffffffffffffffffffffffffff160217905550426004600083815260200190815260200160002060000160146101000a81548167ffffffffffffffff021916908367ffffffffffffffff1602179055506000819050600085820190508380156127d357506127d28773ffffffffffffffffffffffffffffffffffffffff166120e5565b5b15612899575b818773ffffffffffffffffffffffffffffffffffffffff16600073ffffffffffffffffffffffffffffffffffffffff167fddf252ad1be2c89b69c2b068fc378daa952ba7f163c4a11628f55a4df523b3ef60405160405180910390a46128486000888480600101955088612108565b61287e576040517fd1a57ed600000000000000000000000000000000000000000000000000000000815260040160405180910390fd5b808214156127d957826000541461289457600080fd5b612905565b5b818060010192508773ffffffffffffffffffffffffffffffffffffffff16600073ffffffffffffffffffffffffffffffffffffffff167fddf252ad1be2c89b69c2b068fc378daa952ba7f163c4a11628f55a4df523b3ef60405160405180910390a48082141561289a575b81600081905550505061291b60008683876124c7565b5050505050565b600082600052816020526040600020905092915050565b828054828255906000526020600020908101928215612988579160200282015b82811115612987578251829080519060200190612977929190612a62565b5091602001919060010190612959565b5b5090506129959190612ae8565b5090565b8280546129a5906136bc565b90600052602060002090601f0160209004810192826129c75760008555612a0e565b82601f106129e057803560ff1916838001178555612a0e565b82800160010185558215612a0e579182015b82811115612a0d5782358255916020019190600101906129f2565b5b509050612a1b9190612b0c565b5090565b6040518060600160405280600073ffffffffffffffffffffffffffffffffffffffff168152602001600067ffffffffffffffff1681526020016000151581525090565b828054612a6e906136bc565b90600052602060002090601f016020900481019282612a905760008555612ad7565b82601f10612aa957805160ff1916838001178555612ad7565b82800160010185558215612ad7579182015b82811115612ad6578251825591602001919060010190612abb565b5b509050612ae49190612b0c565b5090565b5b80821115612b085760008181612aff9190612b29565b50600101612ae9565b5090565b5b80821115612b25576000816000905550600101612b0d565b5090565b508054612b35906136bc565b6000825580601f10612b475750612b66565b601f016020900490600052602060002090810190612b659190612b0c565b5b50565b6000604051905090565b600080fd5b600080fd5b600080fd5b6000601f19601f8301169050919050565b7f4e487b7100000000000000000000000000000000000000000000000000000000600052604160045260246000fd5b612bcb82612b82565b810181811067ffffffffffffffff82111715612bea57612be9612b93565b5b80604052505050565b6000612bfd612b69565b9050612c098282612bc2565b919050565b600067ffffffffffffffff821115612c2957612c28612b93565b5b602082029050602081019050919050565b600080fd5b600080fd5b600067ffffffffffffffff821115612c5f57612c5e612b93565b5b612c6882612b82565b9050602081019050919050565b82818337600083830152505050565b6000612c97612c9284612c44565b612bf3565b905082815260208101848484011115612cb357612cb2612c3f565b5b612cbe848285612c75565b509392505050565b600082601f830112612cdb57612cda612b7d565b5b8135612ceb848260208601612c84565b91505092915050565b6000612d07612d0284612c0e565b612bf3565b90508083825260208201905060208402830185811115612d2a57612d29612c3a565b5b835b81811015612d7157803567ffffffffffffffff811115612d4f57612d4e612b7d565b5b808601612d5c8982612cc6565b85526020850194505050602081019050612d2c565b5050509392505050565b600082601f830112612d9057612d8f612b7d565b5b8135612da0848260208601612cf4565b91505092915050565b600060208284031215612dbf57612dbe612b73565b5b600082013567ffffffffffffffff811115612ddd57612ddc612b78565b5b612de984828501612d7b565b91505092915050565b60007fffffffff0000000000000000000000000000000000000000000000000000000082169050919050565b612e2781612df2565b8114612e3257600080fd5b50565b600081359050612e4481612e1e565b92915050565b600060208284031215612e6057612e5f612b73565b5b6000612e6e84828501612e35565b91505092915050565b60008115159050919050565b612e8c81612e77565b82525050565b6000602082019050612ea76000830184612e83565b92915050565b600081519050919050565b600082825260208201905092915050565b60005b83811015612ee7578082015181840152602081019050612ecc565b83811115612ef6576000848401525b50505050565b6000612f0782612ead565b612f118185612eb8565b9350612f21818560208601612ec9565b612f2a81612b82565b840191505092915050565b60006020820190508181036000830152612f4f8184612efc565b905092915050565b6000819050919050565b612f6a81612f57565b8114612f7557600080fd5b50565b600081359050612f8781612f61565b92915050565b600060208284031215612fa357612fa2612b73565b5b6000612fb184828501612f78565b91505092915050565b600073ffffffffffffffffffffffffffffffffffffffff82169050919050565b6000612fe582612fba565b9050919050565b612ff581612fda565b82525050565b60006020820190506130106000830184612fec565b92915050565b61301f81612fda565b811461302a57600080fd5b50565b60008135905061303c81613016565b92915050565b6000806040838503121561305957613058612b73565b5b60006130678582860161302d565b925050602061307885828601612f78565b9150509250929050565b61308b81612f57565b82525050565b60006020820190506130a66000830184613082565b92915050565b6000806000606084860312156130c5576130c4612b73565b5b60006130d38682870161302d565b93505060206130e48682870161302d565b92505060406130f586828701612f78565b9150509250925092565b6000806040838503121561311657613115612b73565b5b600061312485828601612f78565b925050602061313585828601612f78565b9150509250929050565b60006040820190506131546000830185612fec565b6131616020830184613082565b9392505050565b600067ffffffffffffffff82169050919050565b61318581613168565b82525050565b60006020820190506131a0600083018461317c565b92915050565b600080fd5b60008083601f8401126131c1576131c0612b7d565b5b8235905067ffffffffffffffff8111156131de576131dd6131a6565b5b6020830191508360018202830111156131fa576131f9612c3a565b5b9250929050565b6000806020838503121561321857613217612b73565b5b600083013567ffffffffffffffff81111561323657613235612b78565b5b613242858286016131ab565b92509250509250929050565b60006020828403121561326457613263612b73565b5b60006132728482850161302d565b91505092915050565b61328481612e77565b811461328f57600080fd5b50565b6000813590506132a18161327b565b92915050565b600080604083850312156132be576132bd612b73565b5b60006132cc8582860161302d565b92505060206132dd85828601613292565b9150509250929050565b600081519050919050565b600082825260208201905092915050565b6000819050602082019050919050565b600082825260208201905092915050565b600061332f82612ead565b6133398185613313565b9350613349818560208601612ec9565b61335281612b82565b840191505092915050565b60006133698383613324565b905092915050565b6000602082019050919050565b6000613389826132e7565b61339381856132f2565b9350836020820285016133a585613303565b8060005b858110156133e157848403895281516133c2858261335d565b94506133cd83613371565b925060208a019950506001810190506133a9565b50829750879550505050505092915050565b6000602082019050818103600083015261340d818461337e565b905092915050565b600067ffffffffffffffff8211156134305761342f612b93565b5b61343982612b82565b9050602081019050919050565b600061345961345484613415565b612bf3565b90508281526020810184848401111561347557613474612c3f565b5b613480848285612c75565b509392505050565b600082601f83011261349d5761349c612b7d565b5b81356134ad848260208601613446565b91505092915050565b600080600080608085870312156134d0576134cf612b73565b5b60006134de8782880161302d565b94505060206134ef8782880161302d565b935050604061350087828801612f78565b925050606085013567ffffffffffffffff81111561352157613520612b78565b5b61352d87828801613488565b91505092959194509250565b6000819050919050565b61354c81613539565b811461355757600080fd5b50565b60008135905061356981613543565b92915050565b60008083601f84011261358557613584612b7d565b5b8235905067ffffffffffffffff8111156135a2576135a16131a6565b5b6020830191508360208202830111156135be576135bd612c3a565b5b9250929050565b6000806000806000608086880312156135e1576135e0612b73565b5b60006135ef8882890161355a565b95505060206136008882890161302d565b945050604086013567ffffffffffffffff81111561362157613620612b78565b5b61362d8882890161356f565b9350935050606061364088828901612f78565b9150509295509295909350565b6000806040838503121561366457613663612b73565b5b60006136728582860161302d565b92505060206136838582860161302d565b9150509250929050565b7f4e487b7100000000000000000000000000000000000000000000000000000000600052602260045260246000fd5b600060028204905060018216806136d457607f821691505b602082108114156136e8576136e761368d565b5b50919050565b7f4e487b7100000000000000000000000000000000000000000000000000000000600052601160045260246000fd5b600061372882612f57565b915061373383612f57565b9250817fffffffffffffffffffffffffffffffffffffffffffffffffffffffffffffffff048311821515161561376c5761376b6136ee565b5b828202905092915050565b7f4e487b7100000000000000000000000000000000000000000000000000000000600052601260045260246000fd5b60006137b182612f57565b91506137bc83612f57565b9250826137cc576137cb613777565b5b828204905092915050565b7f4f776e61626c653a2063616c6c6572206973206e6f7420746865206f776e6572600082015250565b600061380d602083612eb8565b9150613818826137d7565b602082019050919050565b6000602082019050818103600083015261383c81613800565b9050919050565b7f45524332393831526f79616c746965733a20546f6f2068696768000000000000600082015250565b6000613879601a83612eb8565b915061388482613843565b602082019050919050565b600060208201905081810360008301526138a88161386c565b9050919050565b7f5468652063616c6c657220697320616e6f7468657220636f6e74726163740000600082015250565b60006138e5601e83612eb8565b91506138f0826138af565b602082019050919050565b60006020820190508181036000830152613914816138d8565b9050919050565b600061392682612f57565b915061393183612f57565b9250827fffffffffffffffffffffffffffffffffffffffffffffffffffffffffffffffff03821115613966576139656136ee565b5b828201905092915050565b7f72656163686564206d617820737570706c790000000000000000000000000000600082015250565b60006139a7601283612eb8565b91506139b282613971565b602082019050919050565b600060208201905081810360008301526139d68161399a565b9050919050565b7f63616e206e6f74206d696e742074686973206d616e7900000000000000000000600082015250565b6000613a13601683612eb8565b9150613a1e826139dd565b602082019050919050565b60006020820190508181036000830152613a4281613a06565b9050919050565b600081905092915050565b6000613a5f82612ead565b613a698185613a49565b9350613a79818560208601612ec9565b80840191505092915050565b7f2e6a736f6e000000000000000000000000000000000000000000000000000000600082015250565b6000613abb600583613a49565b9150613ac682613a85565b600582019050919050565b6000613add8285613a54565b9150613ae98284613a54565b9150613af482613aae565b91508190509392505050565b60008160601b9050919050565b6000613b1882613b00565b9050919050565b6000613b2a82613b0d565b9050919050565b613b42613b3d82612fda565b613b1f565b82525050565b6000819050919050565b613b63613b5e82612f57565b613b48565b82525050565b6000613b758285613b31565b601482019150613b858284613b52565b6020820191508190509392505050565b7f4f776e61626c653a206e6577206f776e657220697320746865207a65726f206160008201527f6464726573730000000000000000000000000000000000000000000000000000602082015250565b6000613bf1602683612eb8565b9150613bfc82613b95565b604082019050919050565b60006020820190508181036000830152613c2081613be4565b9050919050565b7f4e65656420746f2073656e64206d6f7265204554482e00000000000000000000600082015250565b6000613c5d601683612eb8565b9150613c6882613c27565b602082019050919050565b60006020820190508181036000830152613c8c81613c50565b9050919050565b6000613c9e82612f57565b9150613ca983612f57565b925082821015613cbc57613cbb6136ee565b5b828203905092915050565b600081519050919050565b600082825260208201905092915050565b6000613cee82613cc7565b613cf88185613cd2565b9350613d08818560208601612ec9565b613d1181612b82565b840191505092915050565b6000608082019050613d316000830187612fec565b613d3e6020830186612fec565b613d4b6040830185613082565b8181036060830152613d5d8184613ce3565b905095945050505050565b600081519050613d7781612e1e565b92915050565b600060208284031215613d9357613d92612b73565b5b6000613da184828501613d68565b91505092915050565b6000613db582612f57565b91507fffffffffffffffffffffffffffffffffffffffffffffffffffffffffffffffff821415613de857613de76136ee565b5b600182019050919050565b6000613dfe82612f57565b9150613e0983612f57565b925082613e1957613e18613777565b5b828206905092915050565b7f4e487b7100000000000000000000000000000000000000000000000000000000600052603260045260246000fdfe68747470733a2f2f676174657761792e70696e6174612e636c6f75642f697066732f516d63324554553368566e317575446565384d324b696963624a61506238513276385976384352696667423763432fa2646970667358221220dd9a032f4167bb38829fb7d585556f0bfe2f8d0dc3f36d180843b7b23969b22664736f6c634300080b0033",
  "linkReferences": {},
  "deployedLinkReferences": {}
}