{
  "_format": "hh-sol-artifact-1",
  "contractName": "NFTAVs",
  "sourceName": "contracts/NFTAVs.sol",
  "abi": [
    {
      "inputs": [],
      "stateMutability": "nonpayable",
      "type": "constructor"
    },
    {
      "inputs": [],
      "name": "ApprovalCallerNotOwnerNorApproved",
      "type": "error"
    },
    {
      "inputs": [],
      "name": "ApprovalQueryForNonexistentToken",
      "type": "error"
    },
    {
      "inputs": [],
      "name": "ApprovalToCurrentOwner",
      "type": "error"
    },
    {
      "inputs": [],
      "name": "ApproveToCaller",
      "type": "error"
    },
    {
      "inputs": [],
      "name": "BalanceQueryForZeroAddress",
      "type": "error"
    },
    {
      "inputs": [],
      "name": "MintToZeroAddress",
      "type": "error"
    },
    {
      "inputs": [],
      "name": "MintZeroQuantity",
      "type": "error"
    },
    {
      "inputs": [],
      "name": "MintedQueryForZeroAddress",
      "type": "error"
    },
    {
      "inputs": [],
      "name": "OwnerQueryForNonexistentToken",
      "type": "error"
    },
    {
      "inputs": [],
      "name": "TransferCallerNotOwnerNorApproved",
      "type": "error"
    },
    {
      "inputs": [],
      "name": "TransferFromIncorrectOwner",
      "type": "error"
    },
    {
      "inputs": [],
      "name": "TransferToNonERC721ReceiverImplementer",
      "type": "error"
    },
    {
      "inputs": [],
      "name": "TransferToZeroAddress",
      "type": "error"
    },
    {
      "inputs": [],
      "name": "URIQueryForNonexistentToken",
      "type": "error"
    },
    {
      "anonymous": false,
      "inputs": [
        {
          "indexed": true,
          "internalType": "address",
          "name": "owner",
          "type": "address"
        },
        {
          "indexed": true,
          "internalType": "address",
          "name": "approved",
          "type": "address"
        },
        {
          "indexed": true,
          "internalType": "uint256",
          "name": "tokenId",
          "type": "uint256"
        }
      ],
      "name": "Approval",
      "type": "event"
    },
    {
      "anonymous": false,
      "inputs": [
        {
          "indexed": true,
          "internalType": "address",
          "name": "owner",
          "type": "address"
        },
        {
          "indexed": true,
          "internalType": "address",
          "name": "operator",
          "type": "address"
        },
        {
          "indexed": false,
          "internalType": "bool",
          "name": "approved",
          "type": "bool"
        }
      ],
      "name": "ApprovalForAll",
      "type": "event"
    },
    {
      "anonymous": false,
      "inputs": [
        {
          "indexed": true,
          "internalType": "address",
          "name": "previousOwner",
          "type": "address"
        },
        {
          "indexed": true,
          "internalType": "address",
          "name": "newOwner",
          "type": "address"
        }
      ],
      "name": "OwnershipTransferred",
      "type": "event"
    },
    {
      "anonymous": false,
      "inputs": [
        {
          "indexed": true,
          "internalType": "address",
          "name": "from",
          "type": "address"
        },
        {
          "indexed": true,
          "internalType": "address",
          "name": "to",
          "type": "address"
        },
        {
          "indexed": true,
          "internalType": "uint256",
          "name": "tokenId",
          "type": "uint256"
        }
      ],
      "name": "Transfer",
      "type": "event"
    },
    {
      "inputs": [
        {
          "internalType": "address",
          "name": "to",
          "type": "address"
        },
        {
          "internalType": "uint256",
          "name": "tokenId",
          "type": "uint256"
        }
      ],
      "name": "approve",
      "outputs": [],
      "stateMutability": "nonpayable",
      "type": "function"
    },
    {
      "inputs": [
        {
          "internalType": "address",
          "name": "owner",
          "type": "address"
        }
      ],
      "name": "balanceOf",
      "outputs": [
        {
          "internalType": "uint256",
          "name": "",
          "type": "uint256"
        }
      ],
      "stateMutability": "view",
      "type": "function"
    },
    {
      "inputs": [],
      "name": "collectionSize",
      "outputs": [
        {
          "internalType": "uint256",
          "name": "",
          "type": "uint256"
        }
      ],
      "stateMutability": "view",
      "type": "function"
    },
    {
      "inputs": [
        {
          "internalType": "uint256",
          "name": "tokenId",
          "type": "uint256"
        }
      ],
      "name": "getApproved",
      "outputs": [
        {
          "internalType": "address",
          "name": "",
          "type": "address"
        }
      ],
      "stateMutability": "view",
      "type": "function"
    },
    {
      "inputs": [
        {
          "internalType": "address",
          "name": "owner",
          "type": "address"
        },
        {
          "internalType": "address",
          "name": "operator",
          "type": "address"
        }
      ],
      "name": "isApprovedForAll",
      "outputs": [
        {
          "internalType": "bool",
          "name": "",
          "type": "bool"
        }
      ],
      "stateMutability": "view",
      "type": "function"
    },
    {
      "inputs": [],
      "name": "maxPerAddressDuringMint",
      "outputs": [
        {
          "internalType": "uint256",
          "name": "",
          "type": "uint256"
        }
      ],
      "stateMutability": "view",
      "type": "function"
    },
    {
      "inputs": [],
      "name": "name",
      "outputs": [
        {
          "internalType": "string",
          "name": "",
          "type": "string"
        }
      ],
      "stateMutability": "view",
      "type": "function"
    },
    {
      "inputs": [
        {
          "internalType": "address",
          "name": "owner",
          "type": "address"
        }
      ],
      "name": "numberMinted",
      "outputs": [
        {
          "internalType": "uint256",
          "name": "",
          "type": "uint256"
        }
      ],
      "stateMutability": "view",
      "type": "function"
    },
    {
      "inputs": [],
      "name": "owner",
      "outputs": [
        {
          "internalType": "address",
          "name": "",
          "type": "address"
        }
      ],
      "stateMutability": "view",
      "type": "function"
    },
    {
      "inputs": [
        {
          "internalType": "uint256",
          "name": "tokenId",
          "type": "uint256"
        }
      ],
      "name": "ownerOf",
      "outputs": [
        {
          "internalType": "address",
          "name": "",
          "type": "address"
        }
      ],
      "stateMutability": "view",
      "type": "function"
    },
    {
      "inputs": [
        {
          "internalType": "uint256",
          "name": "quantity",
          "type": "uint256"
        }
      ],
      "name": "publicSaleMint",
      "outputs": [],
      "stateMutability": "payable",
      "type": "function"
    },
    {
      "inputs": [],
      "name": "renounceOwnership",
      "outputs": [],
      "stateMutability": "nonpayable",
      "type": "function"
    },
    {
      "inputs": [
        {
          "internalType": "address",
          "name": "from",
          "type": "address"
        },
        {
          "internalType": "address",
          "name": "to",
          "type": "address"
        },
        {
          "internalType": "uint256",
          "name": "tokenId",
          "type": "uint256"
        }
      ],
      "name": "safeTransferFrom",
      "outputs": [],
      "stateMutability": "nonpayable",
      "type": "function"
    },
    {
      "inputs": [
        {
          "internalType": "address",
          "name": "from",
          "type": "address"
        },
        {
          "internalType": "address",
          "name": "to",
          "type": "address"
        },
        {
          "internalType": "uint256",
          "name": "tokenId",
          "type": "uint256"
        },
        {
          "internalType": "bytes",
          "name": "_data",
          "type": "bytes"
        }
      ],
      "name": "safeTransferFrom",
      "outputs": [],
      "stateMutability": "nonpayable",
      "type": "function"
    },
    {
      "inputs": [],
      "name": "saleConfig",
      "outputs": [
        {
          "internalType": "uint64",
          "name": "publicPrice",
          "type": "uint64"
        }
      ],
      "stateMutability": "view",
      "type": "function"
    },
    {
      "inputs": [
        {
          "internalType": "address",
          "name": "operator",
          "type": "address"
        },
        {
          "internalType": "bool",
          "name": "approved",
          "type": "bool"
        }
      ],
      "name": "setApprovalForAll",
      "outputs": [],
      "stateMutability": "nonpayable",
      "type": "function"
    },
    {
      "inputs": [
        {
          "internalType": "string",
          "name": "baseURI",
          "type": "string"
        }
      ],
      "name": "setBaseURI",
      "outputs": [],
      "stateMutability": "nonpayable",
      "type": "function"
    },
    {
      "inputs": [
        {
          "internalType": "string[]",
          "name": "tokenURIs",
          "type": "string[]"
        }
      ],
      "name": "setTokenURIs",
      "outputs": [],
      "stateMutability": "nonpayable",
      "type": "function"
    },
    {
      "inputs": [
        {
          "internalType": "bytes4",
          "name": "interfaceId",
          "type": "bytes4"
        }
      ],
      "name": "supportsInterface",
      "outputs": [
        {
          "internalType": "bool",
          "name": "",
          "type": "bool"
        }
      ],
      "stateMutability": "view",
      "type": "function"
    },
    {
      "inputs": [],
      "name": "symbol",
      "outputs": [
        {
          "internalType": "string",
          "name": "",
          "type": "string"
        }
      ],
      "stateMutability": "view",
      "type": "function"
    },
    {
      "inputs": [
        {
          "internalType": "uint256",
          "name": "tokenId",
          "type": "uint256"
        }
      ],
      "name": "tokenURI",
      "outputs": [
        {
          "internalType": "string",
          "name": "",
          "type": "string"
        }
      ],
      "stateMutability": "view",
      "type": "function"
    },
    {
      "inputs": [],
      "name": "totalSupply",
      "outputs": [
        {
          "internalType": "uint256",
          "name": "",
          "type": "uint256"
        }
      ],
      "stateMutability": "view",
      "type": "function"
    },
    {
      "inputs": [
        {
          "internalType": "address",
          "name": "from",
          "type": "address"
        },
        {
          "internalType": "address",
          "name": "to",
          "type": "address"
        },
        {
          "internalType": "uint256",
          "name": "tokenId",
          "type": "uint256"
        }
      ],
      "name": "transferFrom",
      "outputs": [],
      "stateMutability": "nonpayable",
      "type": "function"
    },
    {
      "inputs": [
        {
          "internalType": "address",
          "name": "newOwner",
          "type": "address"
        }
      ],
      "name": "transferOwnership",
      "outputs": [],
      "stateMutability": "nonpayable",
      "type": "function"
    }
  ],
  "bytecode": "0x60c06040526064608090815250600a60a0908152503480156200002157600080fd5b506040518060400160405280600681526020017f4e465441567300000000000000000000000000000000000000000000000000008152506040518060400160405280600381526020017f4e415600000000000000000000000000000000000000000000000000000000008152508160029080519060200190620000a692919062000225565b508060039080519060200190620000bf92919062000225565b50620000d06200015260201b60201c565b6000819055505050620000f8620000ec6200015760201b60201c565b6200015f60201b60201c565b60405180602001604052806611c37937e0800067ffffffffffffffff16815250600960008201518160000160006101000a81548167ffffffffffffffff021916908367ffffffffffffffff1602179055509050506200033a565b600090565b600033905090565b6000600860009054906101000a900473ffffffffffffffffffffffffffffffffffffffff16905081600860006101000a81548173ffffffffffffffffffffffffffffffffffffffff021916908373ffffffffffffffffffffffffffffffffffffffff1602179055508173ffffffffffffffffffffffffffffffffffffffff168173ffffffffffffffffffffffffffffffffffffffff167f8be0079c531659141344cd1fd0a4f28419497f9722a3daafe3b4186f6b6457e060405160405180910390a35050565b828054620002339062000304565b90600052602060002090601f016020900481019282620002575760008555620002a3565b82601f106200027257805160ff1916838001178555620002a3565b82800160010185558215620002a3579182015b82811115620002a257825182559160200191906001019062000285565b5b509050620002b29190620002b6565b5090565b5b80821115620002d1576000816000905550600101620002b7565b5090565b7f4e487b7100000000000000000000000000000000000000000000000000000000600052602260045260246000fd5b600060028204905060018216806200031d57607f821691505b60208210811415620003345762000333620002d5565b5b50919050565b60805160a0516135f06200036e600039600081816109000152610e60015260008181610b240152610ed501526135f06000f3fe60806040526004361061014a5760003560e01c8063715018a6116100b6578063b3ab66b01161006f578063b3ab66b01461047d578063b88d4fde14610499578063c87b56dd146104c2578063dc33e681146104ff578063e985e9c51461053c578063f2fde38b146105795761014a565b8063715018a6146103915780638bc35c2f146103a85780638da5cb5b146103d357806390aa0b0f146103fe57806395d89b4114610429578063a22cb465146104545761014a565b806323b872dd1161010857806323b872dd1461027157806342842e0e1461029a57806345c0f533146102c357806355f804b3146102ee5780636352211e1461031757806370a08231146103545761014a565b8062c07ffc1461014f57806301ffc9a71461017857806306fdde03146101b5578063081812fc146101e0578063095ea7b31461021d57806318160ddd14610246575b600080fd5b34801561015b57600080fd5b50610176600480360381019061017191906128c2565b6105a2565b005b34801561018457600080fd5b5061019f600480360381019061019a9190612963565b6105bc565b6040516101ac91906129ab565b60405180910390f35b3480156101c157600080fd5b506101ca61069e565b6040516101d79190612a4e565b60405180910390f35b3480156101ec57600080fd5b5061020760048036038101906102029190612aa6565b610730565b6040516102149190612b14565b60405180910390f35b34801561022957600080fd5b50610244600480360381019061023f9190612b5b565b6107ac565b005b34801561025257600080fd5b5061025b6108b7565b6040516102689190612baa565b60405180910390f35b34801561027d57600080fd5b5061029860048036038101906102939190612bc5565b6108ce565b005b3480156102a657600080fd5b506102c160048036038101906102bc9190612bc5565b6108de565b005b3480156102cf57600080fd5b506102d86108fe565b6040516102e59190612baa565b60405180910390f35b3480156102fa57600080fd5b5061031560048036038101906103109190612c73565b610922565b005b34801561032357600080fd5b5061033e60048036038101906103399190612aa6565b6109b4565b60405161034b9190612b14565b60405180910390f35b34801561036057600080fd5b5061037b60048036038101906103769190612cc0565b6109ca565b6040516103889190612baa565b60405180910390f35b34801561039d57600080fd5b506103a6610a9a565b005b3480156103b457600080fd5b506103bd610b22565b6040516103ca9190612baa565b60405180910390f35b3480156103df57600080fd5b506103e8610b46565b6040516103f59190612b14565b60405180910390f35b34801561040a57600080fd5b50610413610b70565b6040516104209190612d10565b60405180910390f35b34801561043557600080fd5b5061043e610b90565b60405161044b9190612a4e565b60405180910390f35b34801561046057600080fd5b5061047b60048036038101906104769190612d57565b610c22565b005b61049760048036038101906104929190612aa6565b610d9a565b005b3480156104a557600080fd5b506104c060048036038101906104bb9190612e38565b610f6c565b005b3480156104ce57600080fd5b506104e960048036038101906104e49190612aa6565b610fe8565b6040516104f69190612a4e565b60405180910390f35b34801561050b57600080fd5b5061052660048036038101906105219190612cc0565b611087565b6040516105339190612baa565b60405180910390f35b34801561054857600080fd5b50610563600480360381019061055e9190612ebb565b611099565b60405161057091906129ab565b60405180910390f35b34801561058557600080fd5b506105a0600480360381019061059b9190612cc0565b61112d565b005b80600b90805190602001906105b8929190612452565b5050565b60007f80ac58cd000000000000000000000000000000000000000000000000000000007bffffffffffffffffffffffffffffffffffffffffffffffffffffffff1916827bffffffffffffffffffffffffffffffffffffffffffffffffffffffff1916148061068757507f5b5e139f000000000000000000000000000000000000000000000000000000007bffffffffffffffffffffffffffffffffffffffffffffffffffffffff1916827bffffffffffffffffffffffffffffffffffffffffffffffffffffffff1916145b80610697575061069682611225565b5b9050919050565b6060600280546106ad90612f2a565b80601f01602080910402602001604051908101604052809291908181526020018280546106d990612f2a565b80156107265780601f106106fb57610100808354040283529160200191610726565b820191906000526020600020905b81548152906001019060200180831161070957829003601f168201915b5050505050905090565b600061073b8261128f565b610771576040517fcf4700e400000000000000000000000000000000000000000000000000000000815260040160405180910390fd5b6006600083815260200190815260200160002060009054906101000a900473ffffffffffffffffffffffffffffffffffffffff169050919050565b60006107b7826109b4565b90508073ffffffffffffffffffffffffffffffffffffffff168373ffffffffffffffffffffffffffffffffffffffff16141561081f576040517f943f7b8c00000000000000000000000000000000000000000000000000000000815260040160405180910390fd5b8073ffffffffffffffffffffffffffffffffffffffff1661083e6112dd565b73ffffffffffffffffffffffffffffffffffffffff1614158015610870575061086e816108696112dd565b611099565b155b156108a7576040517fcfb3b94200000000000000000000000000000000000000000000000000000000815260040160405180910390fd5b6108b28383836112e5565b505050565b60006108c1611397565b6001546000540303905090565b6108d983838361139c565b505050565b6108f983838360405180602001604052806000815250610f6c565b505050565b7f000000000000000000000000000000000000000000000000000000000000000081565b61092a6112dd565b73ffffffffffffffffffffffffffffffffffffffff16610948610b46565b73ffffffffffffffffffffffffffffffffffffffff161461099e576040517f08c379a000000000000000000000000000000000000000000000000000000000815260040161099590612fa8565b60405180910390fd5b8181600a91906109af9291906124b2565b505050565b60006109bf8261188d565b600001519050919050565b60008073ffffffffffffffffffffffffffffffffffffffff168273ffffffffffffffffffffffffffffffffffffffff161415610a32576040517f8f4eb60400000000000000000000000000000000000000000000000000000000815260040160405180910390fd5b600560008373ffffffffffffffffffffffffffffffffffffffff1673ffffffffffffffffffffffffffffffffffffffff16815260200190815260200160002060000160009054906101000a900467ffffffffffffffff1667ffffffffffffffff169050919050565b610aa26112dd565b73ffffffffffffffffffffffffffffffffffffffff16610ac0610b46565b73ffffffffffffffffffffffffffffffffffffffff1614610b16576040517f08c379a0000000000000000000000000000000000000000000000000000000008152600401610b0d90612fa8565b60405180910390fd5b610b206000611b1c565b565b7f000000000000000000000000000000000000000000000000000000000000000081565b6000600860009054906101000a900473ffffffffffffffffffffffffffffffffffffffff16905090565b60098060000160009054906101000a900467ffffffffffffffff16905081565b606060038054610b9f90612f2a565b80601f0160208091040260200160405190810160405280929190818152602001828054610bcb90612f2a565b8015610c185780601f10610bed57610100808354040283529160200191610c18565b820191906000526020600020905b815481529060010190602001808311610bfb57829003601f168201915b5050505050905090565b610c2a6112dd565b73ffffffffffffffffffffffffffffffffffffffff168273ffffffffffffffffffffffffffffffffffffffff161415610c8f576040517fb06307db00000000000000000000000000000000000000000000000000000000815260040160405180910390fd5b8060076000610c9c6112dd565b73ffffffffffffffffffffffffffffffffffffffff1673ffffffffffffffffffffffffffffffffffffffff16815260200190815260200160002060008473ffffffffffffffffffffffffffffffffffffffff1673ffffffffffffffffffffffffffffffffffffffff16815260200190815260200160002060006101000a81548160ff0219169083151502179055508173ffffffffffffffffffffffffffffffffffffffff16610d496112dd565b73ffffffffffffffffffffffffffffffffffffffff167f17307eab39ab6107e8899845ad3d59bd9653f200f220920489ca2b5937696c3183604051610d8e91906129ab565b60405180910390a35050565b3373ffffffffffffffffffffffffffffffffffffffff163273ffffffffffffffffffffffffffffffffffffffff1614610e08576040517f08c379a0000000000000000000000000000000000000000000000000000000008152600401610dff90613014565b60405180910390fd5b600060096040518060200160405290816000820160009054906101000a900467ffffffffffffffff1667ffffffffffffffff1667ffffffffffffffff168152505090506000816000015167ffffffffffffffff1690507f000000000000000000000000000000000000000000000000000000000000000083610e886108b7565b610e929190613063565b1115610ed3576040517f08c379a0000000000000000000000000000000000000000000000000000000008152600401610eca90613105565b60405180910390fd5b7f000000000000000000000000000000000000000000000000000000000000000083610efe33611087565b610f089190613063565b1115610f49576040517f08c379a0000000000000000000000000000000000000000000000000000000008152600401610f4090613171565b60405180910390fd5b610f533384611be2565b610f678382610f629190613191565b611c00565b505050565b610f7784848461139c565b610f968373ffffffffffffffffffffffffffffffffffffffff16611ca1565b8015610fab5750610fa984848484611cc4565b155b15610fe2576040517fd1a57ed600000000000000000000000000000000000000000000000000000000815260040160405180910390fd5b50505050565b6060610ff38261128f565b611029576040517fa14c4b5000000000000000000000000000000000000000000000000000000000815260040160405180910390fd5b6000611033611e15565b9050600081511415611054576040518060200160405280600081525061107f565b8061105e84611e35565b60405160200161106f929190613227565b6040516020818303038152906040525b915050919050565b600061109282611f96565b9050919050565b6000600760008473ffffffffffffffffffffffffffffffffffffffff1673ffffffffffffffffffffffffffffffffffffffff16815260200190815260200160002060008373ffffffffffffffffffffffffffffffffffffffff1673ffffffffffffffffffffffffffffffffffffffff16815260200190815260200160002060009054906101000a900460ff16905092915050565b6111356112dd565b73ffffffffffffffffffffffffffffffffffffffff16611153610b46565b73ffffffffffffffffffffffffffffffffffffffff16146111a9576040517f08c379a00000000000000000000000000000000000000000000000000000000081526004016111a090612fa8565b60405180910390fd5b600073ffffffffffffffffffffffffffffffffffffffff168173ffffffffffffffffffffffffffffffffffffffff161415611219576040517f08c379a0000000000000000000000000000000000000000000000000000000008152600401611210906132bd565b60405180910390fd5b61122281611b1c565b50565b60007f01ffc9a7000000000000000000000000000000000000000000000000000000007bffffffffffffffffffffffffffffffffffffffffffffffffffffffff1916827bffffffffffffffffffffffffffffffffffffffffffffffffffffffff1916149050919050565b60008161129a611397565b111580156112a9575060005482105b80156112d6575060046000838152602001908152602001600020600001601c9054906101000a900460ff16155b9050919050565b600033905090565b826006600084815260200190815260200160002060006101000a81548173ffffffffffffffffffffffffffffffffffffffff021916908373ffffffffffffffffffffffffffffffffffffffff160217905550818373ffffffffffffffffffffffffffffffffffffffff168273ffffffffffffffffffffffffffffffffffffffff167f8c5be1e5ebec7d5bd14f71427d1e84f3dd0314c0f7b2291e5b200ac8c7c3b92560405160405180910390a4505050565b600090565b60006113a78261188d565b90506000816000015173ffffffffffffffffffffffffffffffffffffffff166113ce6112dd565b73ffffffffffffffffffffffffffffffffffffffff161480611401575061140082600001516113fb6112dd565b611099565b5b80611446575061140f6112dd565b73ffffffffffffffffffffffffffffffffffffffff1661142e84610730565b73ffffffffffffffffffffffffffffffffffffffff16145b90508061147f576040517f59c896be00000000000000000000000000000000000000000000000000000000815260040160405180910390fd5b8473ffffffffffffffffffffffffffffffffffffffff16826000015173ffffffffffffffffffffffffffffffffffffffff16146114e8576040517fa114810000000000000000000000000000000000000000000000000000000000815260040160405180910390fd5b600073ffffffffffffffffffffffffffffffffffffffff168473ffffffffffffffffffffffffffffffffffffffff16141561154f576040517fea553b3400000000000000000000000000000000000000000000000000000000815260040160405180910390fd5b61155c8585856001612066565b61156c60008484600001516112e5565b6001600560008773ffffffffffffffffffffffffffffffffffffffff1673ffffffffffffffffffffffffffffffffffffffff16815260200190815260200160002060000160008282829054906101000a900467ffffffffffffffff160392506101000a81548167ffffffffffffffff021916908367ffffffffffffffff1602179055506001600560008673ffffffffffffffffffffffffffffffffffffffff1673ffffffffffffffffffffffffffffffffffffffff16815260200190815260200160002060000160008282829054906101000a900467ffffffffffffffff160192506101000a81548167ffffffffffffffff021916908367ffffffffffffffff160217905550836004600085815260200190815260200160002060000160006101000a81548173ffffffffffffffffffffffffffffffffffffffff021916908373ffffffffffffffffffffffffffffffffffffffff160217905550426004600085815260200190815260200160002060000160146101000a81548167ffffffffffffffff021916908367ffffffffffffffff1602179055506000600184019050600073ffffffffffffffffffffffffffffffffffffffff166004600083815260200190815260200160002060000160009054906101000a900473ffffffffffffffffffffffffffffffffffffffff1673ffffffffffffffffffffffffffffffffffffffff16141561181d5760005481101561181c5782600001516004600083815260200190815260200160002060000160006101000a81548173ffffffffffffffffffffffffffffffffffffffff021916908373ffffffffffffffffffffffffffffffffffffffff16021790555082602001516004600083815260200190815260200160002060000160146101000a81548167ffffffffffffffff021916908367ffffffffffffffff1602179055505b5b50828473ffffffffffffffffffffffffffffffffffffffff168673ffffffffffffffffffffffffffffffffffffffff167fddf252ad1be2c89b69c2b068fc378daa952ba7f163c4a11628f55a4df523b3ef60405160405180910390a4611886858585600161206c565b5050505050565b611895612538565b6000829050806118a3611397565b111580156118b2575060005481105b15611ae5576000600460008381526020019081526020016000206040518060600160405290816000820160009054906101000a900473ffffffffffffffffffffffffffffffffffffffff1673ffffffffffffffffffffffffffffffffffffffff1673ffffffffffffffffffffffffffffffffffffffff1681526020016000820160149054906101000a900467ffffffffffffffff1667ffffffffffffffff1667ffffffffffffffff16815260200160008201601c9054906101000a900460ff16151515158152505090508060400151611ae357600073ffffffffffffffffffffffffffffffffffffffff16816000015173ffffffffffffffffffffffffffffffffffffffff16146119c7578092505050611b17565b5b600115611ae257818060019003925050600460008381526020019081526020016000206040518060600160405290816000820160009054906101000a900473ffffffffffffffffffffffffffffffffffffffff1673ffffffffffffffffffffffffffffffffffffffff1673ffffffffffffffffffffffffffffffffffffffff1681526020016000820160149054906101000a900467ffffffffffffffff1667ffffffffffffffff1667ffffffffffffffff16815260200160008201601c9054906101000a900460ff1615151515815250509050600073ffffffffffffffffffffffffffffffffffffffff16816000015173ffffffffffffffffffffffffffffffffffffffff1614611add578092505050611b17565b6119c8565b5b505b6040517fdf2d9b4200000000000000000000000000000000000000000000000000000000815260040160405180910390fd5b919050565b6000600860009054906101000a900473ffffffffffffffffffffffffffffffffffffffff16905081600860006101000a81548173ffffffffffffffffffffffffffffffffffffffff021916908373ffffffffffffffffffffffffffffffffffffffff1602179055508173ffffffffffffffffffffffffffffffffffffffff168173ffffffffffffffffffffffffffffffffffffffff167f8be0079c531659141344cd1fd0a4f28419497f9722a3daafe3b4186f6b6457e060405160405180910390a35050565b611bfc828260405180602001604052806000815250612072565b5050565b80341015611c43576040517f08c379a0000000000000000000000000000000000000000000000000000000008152600401611c3a90613329565b60405180910390fd5b80341115611c9e573373ffffffffffffffffffffffffffffffffffffffff166108fc8234611c719190613349565b9081150290604051600060405180830381858888f19350505050158015611c9c573d6000803e3d6000fd5b505b50565b6000808273ffffffffffffffffffffffffffffffffffffffff163b119050919050565b60008373ffffffffffffffffffffffffffffffffffffffff1663150b7a02611cea6112dd565b8786866040518563ffffffff1660e01b8152600401611d0c94939291906133d2565b6020604051808303816000875af1925050508015611d4857506040513d601f19601f82011682018060405250810190611d459190613433565b60015b611dc2573d8060008114611d78576040519150601f19603f3d011682016040523d82523d6000602084013e611d7d565b606091505b50600081511415611dba576040517fd1a57ed600000000000000000000000000000000000000000000000000000000815260040160405180910390fd5b805181602001fd5b63150b7a0260e01b7bffffffffffffffffffffffffffffffffffffffffffffffffffffffff1916817bffffffffffffffffffffffffffffffffffffffffffffffffffffffff191614915050949350505050565b606060405180608001604052806051815260200161356a60519139905090565b60606000821415611e7d576040518060400160405280600181526020017f30000000000000000000000000000000000000000000000000000000000000008152509050611f91565b600082905060005b60008214611eaf578080611e9890613460565b915050600a82611ea891906134d8565b9150611e85565b60008167ffffffffffffffff811115611ecb57611eca6126ac565b5b6040519080825280601f01601f191660200182016040528015611efd5781602001600182028036833780820191505090505b5090505b60008514611f8a57600182611f169190613349565b9150600a85611f259190613509565b6030611f319190613063565b60f81b818381518110611f4757611f4661353a565b5b60200101907effffffffffffffffffffffffffffffffffffffffffffffffffffffffffffff1916908160001a905350600a85611f8391906134d8565b9450611f01565b8093505050505b919050565b60008073ffffffffffffffffffffffffffffffffffffffff168273ffffffffffffffffffffffffffffffffffffffff161415611ffe576040517f35ebb31900000000000000000000000000000000000000000000000000000000815260040160405180910390fd5b600560008373ffffffffffffffffffffffffffffffffffffffff1673ffffffffffffffffffffffffffffffffffffffff16815260200190815260200160002060000160089054906101000a900467ffffffffffffffff1667ffffffffffffffff169050919050565b50505050565b50505050565b61207f8383836001612084565b505050565b600080549050600073ffffffffffffffffffffffffffffffffffffffff168573ffffffffffffffffffffffffffffffffffffffff1614156120f1576040517f2e07630000000000000000000000000000000000000000000000000000000000815260040160405180910390fd5b600084141561212c576040517fb562e8dd00000000000000000000000000000000000000000000000000000000815260040160405180910390fd5b6121396000868387612066565b83600560008773ffffffffffffffffffffffffffffffffffffffff1673ffffffffffffffffffffffffffffffffffffffff16815260200190815260200160002060000160008282829054906101000a900467ffffffffffffffff160192506101000a81548167ffffffffffffffff021916908367ffffffffffffffff16021790555083600560008773ffffffffffffffffffffffffffffffffffffffff1673ffffffffffffffffffffffffffffffffffffffff16815260200190815260200160002060000160088282829054906101000a900467ffffffffffffffff160192506101000a81548167ffffffffffffffff021916908367ffffffffffffffff160217905550846004600083815260200190815260200160002060000160006101000a81548173ffffffffffffffffffffffffffffffffffffffff021916908373ffffffffffffffffffffffffffffffffffffffff160217905550426004600083815260200190815260200160002060000160146101000a81548167ffffffffffffffff021916908367ffffffffffffffff16021790555060008190506000858201905083801561230357506123028773ffffffffffffffffffffffffffffffffffffffff16611ca1565b5b156123c9575b818773ffffffffffffffffffffffffffffffffffffffff16600073ffffffffffffffffffffffffffffffffffffffff167fddf252ad1be2c89b69c2b068fc378daa952ba7f163c4a11628f55a4df523b3ef60405160405180910390a46123786000888480600101955088611cc4565b6123ae576040517fd1a57ed600000000000000000000000000000000000000000000000000000000815260040160405180910390fd5b808214156123095782600054146123c457600080fd5b612435565b5b818060010192508773ffffffffffffffffffffffffffffffffffffffff16600073ffffffffffffffffffffffffffffffffffffffff167fddf252ad1be2c89b69c2b068fc378daa952ba7f163c4a11628f55a4df523b3ef60405160405180910390a4808214156123ca575b81600081905550505061244b600086838761206c565b5050505050565b8280548282559060005260206000209081019282156124a1579160200282015b828111156124a057825182908051906020019061249092919061257b565b5091602001919060010190612472565b5b5090506124ae9190612601565b5090565b8280546124be90612f2a565b90600052602060002090601f0160209004810192826124e05760008555612527565b82601f106124f957803560ff1916838001178555612527565b82800160010185558215612527579182015b8281111561252657823582559160200191906001019061250b565b5b5090506125349190612625565b5090565b6040518060600160405280600073ffffffffffffffffffffffffffffffffffffffff168152602001600067ffffffffffffffff1681526020016000151581525090565b82805461258790612f2a565b90600052602060002090601f0160209004810192826125a957600085556125f0565b82601f106125c257805160ff19168380011785556125f0565b828001600101855582156125f0579182015b828111156125ef5782518255916020019190600101906125d4565b5b5090506125fd9190612625565b5090565b5b8082111561262157600081816126189190612642565b50600101612602565b5090565b5b8082111561263e576000816000905550600101612626565b5090565b50805461264e90612f2a565b6000825580601f10612660575061267f565b601f01602090049060005260206000209081019061267e9190612625565b5b50565b6000604051905090565b600080fd5b600080fd5b600080fd5b6000601f19601f8301169050919050565b7f4e487b7100000000000000000000000000000000000000000000000000000000600052604160045260246000fd5b6126e48261269b565b810181811067ffffffffffffffff82111715612703576127026126ac565b5b80604052505050565b6000612716612682565b905061272282826126db565b919050565b600067ffffffffffffffff821115612742576127416126ac565b5b602082029050602081019050919050565b600080fd5b600080fd5b600067ffffffffffffffff821115612778576127776126ac565b5b6127818261269b565b9050602081019050919050565b82818337600083830152505050565b60006127b06127ab8461275d565b61270c565b9050828152602081018484840111156127cc576127cb612758565b5b6127d784828561278e565b509392505050565b600082601f8301126127f4576127f3612696565b5b813561280484826020860161279d565b91505092915050565b600061282061281b84612727565b61270c565b9050808382526020820190506020840283018581111561284357612842612753565b5b835b8181101561288a57803567ffffffffffffffff81111561286857612867612696565b5b80860161287589826127df565b85526020850194505050602081019050612845565b5050509392505050565b600082601f8301126128a9576128a8612696565b5b81356128b984826020860161280d565b91505092915050565b6000602082840312156128d8576128d761268c565b5b600082013567ffffffffffffffff8111156128f6576128f5612691565b5b61290284828501612894565b91505092915050565b60007fffffffff0000000000000000000000000000000000000000000000000000000082169050919050565b6129408161290b565b811461294b57600080fd5b50565b60008135905061295d81612937565b92915050565b6000602082840312156129795761297861268c565b5b60006129878482850161294e565b91505092915050565b60008115159050919050565b6129a581612990565b82525050565b60006020820190506129c0600083018461299c565b92915050565b600081519050919050565b600082825260208201905092915050565b60005b83811015612a005780820151818401526020810190506129e5565b83811115612a0f576000848401525b50505050565b6000612a20826129c6565b612a2a81856129d1565b9350612a3a8185602086016129e2565b612a438161269b565b840191505092915050565b60006020820190508181036000830152612a688184612a15565b905092915050565b6000819050919050565b612a8381612a70565b8114612a8e57600080fd5b50565b600081359050612aa081612a7a565b92915050565b600060208284031215612abc57612abb61268c565b5b6000612aca84828501612a91565b91505092915050565b600073ffffffffffffffffffffffffffffffffffffffff82169050919050565b6000612afe82612ad3565b9050919050565b612b0e81612af3565b82525050565b6000602082019050612b296000830184612b05565b92915050565b612b3881612af3565b8114612b4357600080fd5b50565b600081359050612b5581612b2f565b92915050565b60008060408385031215612b7257612b7161268c565b5b6000612b8085828601612b46565b9250506020612b9185828601612a91565b9150509250929050565b612ba481612a70565b82525050565b6000602082019050612bbf6000830184612b9b565b92915050565b600080600060608486031215612bde57612bdd61268c565b5b6000612bec86828701612b46565b9350506020612bfd86828701612b46565b9250506040612c0e86828701612a91565b9150509250925092565b600080fd5b60008083601f840112612c3357612c32612696565b5b8235905067ffffffffffffffff811115612c5057612c4f612c18565b5b602083019150836001820283011115612c6c57612c6b612753565b5b9250929050565b60008060208385031215612c8a57612c8961268c565b5b600083013567ffffffffffffffff811115612ca857612ca7612691565b5b612cb485828601612c1d565b92509250509250929050565b600060208284031215612cd657612cd561268c565b5b6000612ce484828501612b46565b91505092915050565b600067ffffffffffffffff82169050919050565b612d0a81612ced565b82525050565b6000602082019050612d256000830184612d01565b92915050565b612d3481612990565b8114612d3f57600080fd5b50565b600081359050612d5181612d2b565b92915050565b60008060408385031215612d6e57612d6d61268c565b5b6000612d7c85828601612b46565b9250506020612d8d85828601612d42565b9150509250929050565b600067ffffffffffffffff821115612db257612db16126ac565b5b612dbb8261269b565b9050602081019050919050565b6000612ddb612dd684612d97565b61270c565b905082815260208101848484011115612df757612df6612758565b5b612e0284828561278e565b509392505050565b600082601f830112612e1f57612e1e612696565b5b8135612e2f848260208601612dc8565b91505092915050565b60008060008060808587031215612e5257612e5161268c565b5b6000612e6087828801612b46565b9450506020612e7187828801612b46565b9350506040612e8287828801612a91565b925050606085013567ffffffffffffffff811115612ea357612ea2612691565b5b612eaf87828801612e0a565b91505092959194509250565b60008060408385031215612ed257612ed161268c565b5b6000612ee085828601612b46565b9250506020612ef185828601612b46565b9150509250929050565b7f4e487b7100000000000000000000000000000000000000000000000000000000600052602260045260246000fd5b60006002820490506001821680612f4257607f821691505b60208210811415612f5657612f55612efb565b5b50919050565b7f4f776e61626c653a2063616c6c6572206973206e6f7420746865206f776e6572600082015250565b6000612f926020836129d1565b9150612f9d82612f5c565b602082019050919050565b60006020820190508181036000830152612fc181612f85565b9050919050565b7f5468652063616c6c657220697320616e6f7468657220636f6e74726163740000600082015250565b6000612ffe601e836129d1565b915061300982612fc8565b602082019050919050565b6000602082019050818103600083015261302d81612ff1565b9050919050565b7f4e487b7100000000000000000000000000000000000000000000000000000000600052601160045260246000fd5b600061306e82612a70565b915061307983612a70565b9250827fffffffffffffffffffffffffffffffffffffffffffffffffffffffffffffffff038211156130ae576130ad613034565b5b828201905092915050565b7f72656163686564206d617820737570706c790000000000000000000000000000600082015250565b60006130ef6012836129d1565b91506130fa826130b9565b602082019050919050565b6000602082019050818103600083015261311e816130e2565b9050919050565b7f63616e206e6f74206d696e742074686973206d616e7900000000000000000000600082015250565b600061315b6016836129d1565b915061316682613125565b602082019050919050565b6000602082019050818103600083015261318a8161314e565b9050919050565b600061319c82612a70565b91506131a783612a70565b9250817fffffffffffffffffffffffffffffffffffffffffffffffffffffffffffffffff04831182151516156131e0576131df613034565b5b828202905092915050565b600081905092915050565b6000613201826129c6565b61320b81856131eb565b935061321b8185602086016129e2565b80840191505092915050565b600061323382856131f6565b915061323f82846131f6565b91508190509392505050565b7f4f776e61626c653a206e6577206f776e657220697320746865207a65726f206160008201527f6464726573730000000000000000000000000000000000000000000000000000602082015250565b60006132a76026836129d1565b91506132b28261324b565b604082019050919050565b600060208201905081810360008301526132d68161329a565b9050919050565b7f4e65656420746f2073656e64206d6f7265204554482e00000000000000000000600082015250565b60006133136016836129d1565b915061331e826132dd565b602082019050919050565b6000602082019050818103600083015261334281613306565b9050919050565b600061335482612a70565b915061335f83612a70565b92508282101561337257613371613034565b5b828203905092915050565b600081519050919050565b600082825260208201905092915050565b60006133a48261337d565b6133ae8185613388565b93506133be8185602086016129e2565b6133c78161269b565b840191505092915050565b60006080820190506133e76000830187612b05565b6133f46020830186612b05565b6134016040830185612b9b565b81810360608301526134138184613399565b905095945050505050565b60008151905061342d81612937565b92915050565b6000602082840312156134495761344861268c565b5b60006134578482850161341e565b91505092915050565b600061346b82612a70565b91507fffffffffffffffffffffffffffffffffffffffffffffffffffffffffffffffff82141561349e5761349d613034565b5b600182019050919050565b7f4e487b7100000000000000000000000000000000000000000000000000000000600052601260045260246000fd5b60006134e382612a70565b91506134ee83612a70565b9250826134fe576134fd6134a9565b5b828204905092915050565b600061351482612a70565b915061351f83612a70565b92508261352f5761352e6134a9565b5b828206905092915050565b7f4e487b7100000000000000000000000000000000000000000000000000000000600052603260045260246000fdfe68747470733a2f2f676174657761792e70696e6174612e636c6f75642f697066732f516d63324554553368566e317575446565384d324b696963624a61506238513276385976384352696667423763432fa26469706673582212200384b652ad3903acc049418b393e22514603a2ce69d675414707b4aa4c0ce39964736f6c634300080b0033",
  "linkReferences": {},
  "deployedLinkReferences": {}
}