{
  "_format": "hh-sol-artifact-1",
  "contractName": "NFTAVs",
  "sourceName": "contracts/NFTAVs.sol",
  "abi": [
    {
      "inputs": [],
      "stateMutability": "nonpayable",
      "type": "constructor"
    },
    {
      "inputs": [],
      "name": "ApprovalCallerNotOwnerNorApproved",
      "type": "error"
    },
    {
      "inputs": [],
      "name": "ApprovalQueryForNonexistentToken",
      "type": "error"
    },
    {
      "inputs": [],
      "name": "ApprovalToCurrentOwner",
      "type": "error"
    },
    {
      "inputs": [],
      "name": "ApproveToCaller",
      "type": "error"
    },
    {
      "inputs": [],
      "name": "BalanceQueryForZeroAddress",
      "type": "error"
    },
    {
      "inputs": [],
      "name": "MintToZeroAddress",
      "type": "error"
    },
    {
      "inputs": [],
      "name": "MintZeroQuantity",
      "type": "error"
    },
    {
      "inputs": [],
      "name": "MintedQueryForZeroAddress",
      "type": "error"
    },
    {
      "inputs": [],
      "name": "OwnerQueryForNonexistentToken",
      "type": "error"
    },
    {
      "inputs": [],
      "name": "TransferCallerNotOwnerNorApproved",
      "type": "error"
    },
    {
      "inputs": [],
      "name": "TransferFromIncorrectOwner",
      "type": "error"
    },
    {
      "inputs": [],
      "name": "TransferToNonERC721ReceiverImplementer",
      "type": "error"
    },
    {
      "inputs": [],
      "name": "TransferToZeroAddress",
      "type": "error"
    },
    {
      "inputs": [],
      "name": "URIQueryForNonexistentToken",
      "type": "error"
    },
    {
      "anonymous": false,
      "inputs": [
        {
          "indexed": true,
          "internalType": "address",
          "name": "owner",
          "type": "address"
        },
        {
          "indexed": true,
          "internalType": "address",
          "name": "approved",
          "type": "address"
        },
        {
          "indexed": true,
          "internalType": "uint256",
          "name": "tokenId",
          "type": "uint256"
        }
      ],
      "name": "Approval",
      "type": "event"
    },
    {
      "anonymous": false,
      "inputs": [
        {
          "indexed": true,
          "internalType": "address",
          "name": "owner",
          "type": "address"
        },
        {
          "indexed": true,
          "internalType": "address",
          "name": "operator",
          "type": "address"
        },
        {
          "indexed": false,
          "internalType": "bool",
          "name": "approved",
          "type": "bool"
        }
      ],
      "name": "ApprovalForAll",
      "type": "event"
    },
    {
      "anonymous": false,
      "inputs": [
        {
          "indexed": true,
          "internalType": "address",
          "name": "previousOwner",
          "type": "address"
        },
        {
          "indexed": true,
          "internalType": "address",
          "name": "newOwner",
          "type": "address"
        }
      ],
      "name": "OwnershipTransferred",
      "type": "event"
    },
    {
      "anonymous": false,
      "inputs": [
        {
          "indexed": true,
          "internalType": "address",
          "name": "from",
          "type": "address"
        },
        {
          "indexed": true,
          "internalType": "address",
          "name": "to",
          "type": "address"
        },
        {
          "indexed": true,
          "internalType": "uint256",
          "name": "tokenId",
          "type": "uint256"
        }
      ],
      "name": "Transfer",
      "type": "event"
    },
    {
      "inputs": [
        {
          "internalType": "address",
          "name": "to",
          "type": "address"
        },
        {
          "internalType": "uint256",
          "name": "tokenId",
          "type": "uint256"
        }
      ],
      "name": "approve",
      "outputs": [],
      "stateMutability": "nonpayable",
      "type": "function"
    },
    {
      "inputs": [
        {
          "internalType": "address",
          "name": "owner",
          "type": "address"
        }
      ],
      "name": "balanceOf",
      "outputs": [
        {
          "internalType": "uint256",
          "name": "",
          "type": "uint256"
        }
      ],
      "stateMutability": "view",
      "type": "function"
    },
    {
      "inputs": [],
      "name": "collectionSize",
      "outputs": [
        {
          "internalType": "uint256",
          "name": "",
          "type": "uint256"
        }
      ],
      "stateMutability": "view",
      "type": "function"
    },
    {
      "inputs": [
        {
          "internalType": "uint256",
          "name": "tokenId",
          "type": "uint256"
        }
      ],
      "name": "getApproved",
      "outputs": [
        {
          "internalType": "address",
          "name": "",
          "type": "address"
        }
      ],
      "stateMutability": "view",
      "type": "function"
    },
    {
      "inputs": [],
      "name": "getTokenURIs",
      "outputs": [
        {
          "internalType": "string[]",
          "name": "",
          "type": "string[]"
        }
      ],
      "stateMutability": "view",
      "type": "function"
    },
    {
      "inputs": [
        {
          "internalType": "address",
          "name": "owner",
          "type": "address"
        },
        {
          "internalType": "address",
          "name": "operator",
          "type": "address"
        }
      ],
      "name": "isApprovedForAll",
      "outputs": [
        {
          "internalType": "bool",
          "name": "",
          "type": "bool"
        }
      ],
      "stateMutability": "view",
      "type": "function"
    },
    {
      "inputs": [],
      "name": "maxPerAddressDuringMint",
      "outputs": [
        {
          "internalType": "uint256",
          "name": "",
          "type": "uint256"
        }
      ],
      "stateMutability": "view",
      "type": "function"
    },
    {
      "inputs": [],
      "name": "name",
      "outputs": [
        {
          "internalType": "string",
          "name": "",
          "type": "string"
        }
      ],
      "stateMutability": "view",
      "type": "function"
    },
    {
      "inputs": [
        {
          "internalType": "address",
          "name": "owner",
          "type": "address"
        }
      ],
      "name": "numberMinted",
      "outputs": [
        {
          "internalType": "uint256",
          "name": "",
          "type": "uint256"
        }
      ],
      "stateMutability": "view",
      "type": "function"
    },
    {
      "inputs": [],
      "name": "owner",
      "outputs": [
        {
          "internalType": "address",
          "name": "",
          "type": "address"
        }
      ],
      "stateMutability": "view",
      "type": "function"
    },
    {
      "inputs": [
        {
          "internalType": "uint256",
          "name": "tokenId",
          "type": "uint256"
        }
      ],
      "name": "ownerOf",
      "outputs": [
        {
          "internalType": "address",
          "name": "",
          "type": "address"
        }
      ],
      "stateMutability": "view",
      "type": "function"
    },
    {
      "inputs": [
        {
          "internalType": "uint256",
          "name": "quantity",
          "type": "uint256"
        }
      ],
      "name": "publicSaleMint",
      "outputs": [],
      "stateMutability": "payable",
      "type": "function"
    },
    {
      "inputs": [],
      "name": "renounceOwnership",
      "outputs": [],
      "stateMutability": "nonpayable",
      "type": "function"
    },
    {
      "inputs": [
        {
          "internalType": "address",
          "name": "from",
          "type": "address"
        },
        {
          "internalType": "address",
          "name": "to",
          "type": "address"
        },
        {
          "internalType": "uint256",
          "name": "tokenId",
          "type": "uint256"
        }
      ],
      "name": "safeTransferFrom",
      "outputs": [],
      "stateMutability": "nonpayable",
      "type": "function"
    },
    {
      "inputs": [
        {
          "internalType": "address",
          "name": "from",
          "type": "address"
        },
        {
          "internalType": "address",
          "name": "to",
          "type": "address"
        },
        {
          "internalType": "uint256",
          "name": "tokenId",
          "type": "uint256"
        },
        {
          "internalType": "bytes",
          "name": "_data",
          "type": "bytes"
        }
      ],
      "name": "safeTransferFrom",
      "outputs": [],
      "stateMutability": "nonpayable",
      "type": "function"
    },
    {
      "inputs": [],
      "name": "saleConfig",
      "outputs": [
        {
          "internalType": "uint64",
          "name": "publicPrice",
          "type": "uint64"
        }
      ],
      "stateMutability": "view",
      "type": "function"
    },
    {
      "inputs": [
        {
          "internalType": "address",
          "name": "operator",
          "type": "address"
        },
        {
          "internalType": "bool",
          "name": "approved",
          "type": "bool"
        }
      ],
      "name": "setApprovalForAll",
      "outputs": [],
      "stateMutability": "nonpayable",
      "type": "function"
    },
    {
      "inputs": [
        {
          "internalType": "string",
          "name": "baseURI",
          "type": "string"
        }
      ],
      "name": "setBaseURI",
      "outputs": [],
      "stateMutability": "nonpayable",
      "type": "function"
    },
    {
      "inputs": [
        {
          "internalType": "string[]",
          "name": "tokenURIs",
          "type": "string[]"
        }
      ],
      "name": "setTokenURIs",
      "outputs": [],
      "stateMutability": "nonpayable",
      "type": "function"
    },
    {
      "inputs": [
        {
          "internalType": "bytes4",
          "name": "interfaceId",
          "type": "bytes4"
        }
      ],
      "name": "supportsInterface",
      "outputs": [
        {
          "internalType": "bool",
          "name": "",
          "type": "bool"
        }
      ],
      "stateMutability": "view",
      "type": "function"
    },
    {
      "inputs": [],
      "name": "symbol",
      "outputs": [
        {
          "internalType": "string",
          "name": "",
          "type": "string"
        }
      ],
      "stateMutability": "view",
      "type": "function"
    },
    {
      "inputs": [
        {
          "internalType": "uint256",
          "name": "tokenId",
          "type": "uint256"
        }
      ],
      "name": "tokenURI",
      "outputs": [
        {
          "internalType": "string",
          "name": "",
          "type": "string"
        }
      ],
      "stateMutability": "view",
      "type": "function"
    },
    {
      "inputs": [],
      "name": "totalSupply",
      "outputs": [
        {
          "internalType": "uint256",
          "name": "",
          "type": "uint256"
        }
      ],
      "stateMutability": "view",
      "type": "function"
    },
    {
      "inputs": [
        {
          "internalType": "address",
          "name": "from",
          "type": "address"
        },
        {
          "internalType": "address",
          "name": "to",
          "type": "address"
        },
        {
          "internalType": "uint256",
          "name": "tokenId",
          "type": "uint256"
        }
      ],
      "name": "transferFrom",
      "outputs": [],
      "stateMutability": "nonpayable",
      "type": "function"
    },
    {
      "inputs": [
        {
          "internalType": "address",
          "name": "newOwner",
          "type": "address"
        }
      ],
      "name": "transferOwnership",
      "outputs": [],
      "stateMutability": "nonpayable",
      "type": "function"
    }
  ],
  "bytecode": "0x60c06040526064608090815250600a60a0908152503480156200002157600080fd5b506040518060400160405280600681526020017f4e465441567300000000000000000000000000000000000000000000000000008152506040518060400160405280600381526020017f4e415600000000000000000000000000000000000000000000000000000000008152508160029080519060200190620000a692919062000225565b508060039080519060200190620000bf92919062000225565b50620000d06200015260201b60201c565b6000819055505050620000f8620000ec6200015760201b60201c565b6200015f60201b60201c565b60405180602001604052806611c37937e0800067ffffffffffffffff16815250600960008201518160000160006101000a81548167ffffffffffffffff021916908367ffffffffffffffff1602179055509050506200033a565b600090565b600033905090565b6000600860009054906101000a900473ffffffffffffffffffffffffffffffffffffffff16905081600860006101000a81548173ffffffffffffffffffffffffffffffffffffffff021916908373ffffffffffffffffffffffffffffffffffffffff1602179055508173ffffffffffffffffffffffffffffffffffffffff168173ffffffffffffffffffffffffffffffffffffffff167f8be0079c531659141344cd1fd0a4f28419497f9722a3daafe3b4186f6b6457e060405160405180910390a35050565b828054620002339062000304565b90600052602060002090601f016020900481019282620002575760008555620002a3565b82601f106200027257805160ff1916838001178555620002a3565b82800160010185558215620002a3579182015b82811115620002a257825182559160200191906001019062000285565b5b509050620002b29190620002b6565b5090565b5b80821115620002d1576000816000905550600101620002b7565b5090565b7f4e487b7100000000000000000000000000000000000000000000000000000000600052602260045260246000fd5b600060028204905060018216806200031d57607f821691505b60208210811415620003345762000333620002d5565b5b50919050565b60805160a05161383d6200036e600039600081816109460152610ea6015260008181610b6a0152610f1b015261383d6000f3fe6080604052600436106101655760003560e01c8063715018a6116100d1578063b3ab66b01161008a578063c87b56dd11610064578063c87b56dd14610508578063dc33e68114610545578063e985e9c514610582578063f2fde38b146105bf57610165565b8063b3ab66b014610498578063b6d3564b146104b4578063b88d4fde146104df57610165565b8063715018a6146103ac5780638bc35c2f146103c35780638da5cb5b146103ee57806390aa0b0f1461041957806395d89b4114610444578063a22cb4651461046f57610165565b806323b872dd1161012357806323b872dd1461028c57806342842e0e146102b557806345c0f533146102de57806355f804b3146103095780636352211e1461033257806370a082311461036f57610165565b8062c07ffc1461016a57806301ffc9a71461019357806306fdde03146101d0578063081812fc146101fb578063095ea7b31461023857806318160ddd14610261575b600080fd5b34801561017657600080fd5b50610191600480360381019061018c91906129e1565b6105e8565b005b34801561019f57600080fd5b506101ba60048036038101906101b59190612a82565b610602565b6040516101c79190612aca565b60405180910390f35b3480156101dc57600080fd5b506101e56106e4565b6040516101f29190612b6d565b60405180910390f35b34801561020757600080fd5b50610222600480360381019061021d9190612bc5565b610776565b60405161022f9190612c33565b60405180910390f35b34801561024457600080fd5b5061025f600480360381019061025a9190612c7a565b6107f2565b005b34801561026d57600080fd5b506102766108fd565b6040516102839190612cc9565b60405180910390f35b34801561029857600080fd5b506102b360048036038101906102ae9190612ce4565b610914565b005b3480156102c157600080fd5b506102dc60048036038101906102d79190612ce4565b610924565b005b3480156102ea57600080fd5b506102f3610944565b6040516103009190612cc9565b60405180910390f35b34801561031557600080fd5b50610330600480360381019061032b9190612d92565b610968565b005b34801561033e57600080fd5b5061035960048036038101906103549190612bc5565b6109fa565b6040516103669190612c33565b60405180910390f35b34801561037b57600080fd5b5061039660048036038101906103919190612ddf565b610a10565b6040516103a39190612cc9565b60405180910390f35b3480156103b857600080fd5b506103c1610ae0565b005b3480156103cf57600080fd5b506103d8610b68565b6040516103e59190612cc9565b60405180910390f35b3480156103fa57600080fd5b50610403610b8c565b6040516104109190612c33565b60405180910390f35b34801561042557600080fd5b5061042e610bb6565b60405161043b9190612e2f565b60405180910390f35b34801561045057600080fd5b50610459610bd6565b6040516104669190612b6d565b60405180910390f35b34801561047b57600080fd5b5061049660048036038101906104919190612e76565b610c68565b005b6104b260048036038101906104ad9190612bc5565b610de0565b005b3480156104c057600080fd5b506104c9610fb2565b6040516104d69190612fc2565b60405180910390f35b3480156104eb57600080fd5b5061050660048036038101906105019190613085565b61108b565b005b34801561051457600080fd5b5061052f600480360381019061052a9190612bc5565b611107565b60405161053c9190612b6d565b60405180910390f35b34801561055157600080fd5b5061056c60048036038101906105679190612ddf565b6111a6565b6040516105799190612cc9565b60405180910390f35b34801561058e57600080fd5b506105a960048036038101906105a49190613108565b6111b8565b6040516105b69190612aca565b60405180910390f35b3480156105cb57600080fd5b506105e660048036038101906105e19190612ddf565b61124c565b005b80600b90805190602001906105fe929190612571565b5050565b60007f80ac58cd000000000000000000000000000000000000000000000000000000007bffffffffffffffffffffffffffffffffffffffffffffffffffffffff1916827bffffffffffffffffffffffffffffffffffffffffffffffffffffffff191614806106cd57507f5b5e139f000000000000000000000000000000000000000000000000000000007bffffffffffffffffffffffffffffffffffffffffffffffffffffffff1916827bffffffffffffffffffffffffffffffffffffffffffffffffffffffff1916145b806106dd57506106dc82611344565b5b9050919050565b6060600280546106f390613177565b80601f016020809104026020016040519081016040528092919081815260200182805461071f90613177565b801561076c5780601f106107415761010080835404028352916020019161076c565b820191906000526020600020905b81548152906001019060200180831161074f57829003601f168201915b5050505050905090565b6000610781826113ae565b6107b7576040517fcf4700e400000000000000000000000000000000000000000000000000000000815260040160405180910390fd5b6006600083815260200190815260200160002060009054906101000a900473ffffffffffffffffffffffffffffffffffffffff169050919050565b60006107fd826109fa565b90508073ffffffffffffffffffffffffffffffffffffffff168373ffffffffffffffffffffffffffffffffffffffff161415610865576040517f943f7b8c00000000000000000000000000000000000000000000000000000000815260040160405180910390fd5b8073ffffffffffffffffffffffffffffffffffffffff166108846113fc565b73ffffffffffffffffffffffffffffffffffffffff16141580156108b657506108b4816108af6113fc565b6111b8565b155b156108ed576040517fcfb3b94200000000000000000000000000000000000000000000000000000000815260040160405180910390fd5b6108f8838383611404565b505050565b60006109076114b6565b6001546000540303905090565b61091f8383836114bb565b505050565b61093f8383836040518060200160405280600081525061108b565b505050565b7f000000000000000000000000000000000000000000000000000000000000000081565b6109706113fc565b73ffffffffffffffffffffffffffffffffffffffff1661098e610b8c565b73ffffffffffffffffffffffffffffffffffffffff16146109e4576040517f08c379a00000000000000000000000000000000000000000000000000000000081526004016109db906131f5565b60405180910390fd5b8181600a91906109f59291906125d1565b505050565b6000610a05826119ac565b600001519050919050565b60008073ffffffffffffffffffffffffffffffffffffffff168273ffffffffffffffffffffffffffffffffffffffff161415610a78576040517f8f4eb60400000000000000000000000000000000000000000000000000000000815260040160405180910390fd5b600560008373ffffffffffffffffffffffffffffffffffffffff1673ffffffffffffffffffffffffffffffffffffffff16815260200190815260200160002060000160009054906101000a900467ffffffffffffffff1667ffffffffffffffff169050919050565b610ae86113fc565b73ffffffffffffffffffffffffffffffffffffffff16610b06610b8c565b73ffffffffffffffffffffffffffffffffffffffff1614610b5c576040517f08c379a0000000000000000000000000000000000000000000000000000000008152600401610b53906131f5565b60405180910390fd5b610b666000611c3b565b565b7f000000000000000000000000000000000000000000000000000000000000000081565b6000600860009054906101000a900473ffffffffffffffffffffffffffffffffffffffff16905090565b60098060000160009054906101000a900467ffffffffffffffff16905081565b606060038054610be590613177565b80601f0160208091040260200160405190810160405280929190818152602001828054610c1190613177565b8015610c5e5780601f10610c3357610100808354040283529160200191610c5e565b820191906000526020600020905b815481529060010190602001808311610c4157829003601f168201915b5050505050905090565b610c706113fc565b73ffffffffffffffffffffffffffffffffffffffff168273ffffffffffffffffffffffffffffffffffffffff161415610cd5576040517fb06307db00000000000000000000000000000000000000000000000000000000815260040160405180910390fd5b8060076000610ce26113fc565b73ffffffffffffffffffffffffffffffffffffffff1673ffffffffffffffffffffffffffffffffffffffff16815260200190815260200160002060008473ffffffffffffffffffffffffffffffffffffffff1673ffffffffffffffffffffffffffffffffffffffff16815260200190815260200160002060006101000a81548160ff0219169083151502179055508173ffffffffffffffffffffffffffffffffffffffff16610d8f6113fc565b73ffffffffffffffffffffffffffffffffffffffff167f17307eab39ab6107e8899845ad3d59bd9653f200f220920489ca2b5937696c3183604051610dd49190612aca565b60405180910390a35050565b3373ffffffffffffffffffffffffffffffffffffffff163273ffffffffffffffffffffffffffffffffffffffff1614610e4e576040517f08c379a0000000000000000000000000000000000000000000000000000000008152600401610e4590613261565b60405180910390fd5b600060096040518060200160405290816000820160009054906101000a900467ffffffffffffffff1667ffffffffffffffff1667ffffffffffffffff168152505090506000816000015167ffffffffffffffff1690507f000000000000000000000000000000000000000000000000000000000000000083610ece6108fd565b610ed891906132b0565b1115610f19576040517f08c379a0000000000000000000000000000000000000000000000000000000008152600401610f1090613352565b60405180910390fd5b7f000000000000000000000000000000000000000000000000000000000000000083610f44336111a6565b610f4e91906132b0565b1115610f8f576040517f08c379a0000000000000000000000000000000000000000000000000000000008152600401610f86906133be565b60405180910390fd5b610f993384611d01565b610fad8382610fa891906133de565b611d1f565b505050565b6060600b805480602002602001604051908101604052809291908181526020016000905b82821015611082578382906000526020600020018054610ff590613177565b80601f016020809104026020016040519081016040528092919081815260200182805461102190613177565b801561106e5780601f106110435761010080835404028352916020019161106e565b820191906000526020600020905b81548152906001019060200180831161105157829003601f168201915b505050505081526020019060010190610fd6565b50505050905090565b6110968484846114bb565b6110b58373ffffffffffffffffffffffffffffffffffffffff16611dc0565b80156110ca57506110c884848484611de3565b155b15611101576040517fd1a57ed600000000000000000000000000000000000000000000000000000000815260040160405180910390fd5b50505050565b6060611112826113ae565b611148576040517fa14c4b5000000000000000000000000000000000000000000000000000000000815260040160405180910390fd5b6000611152611f34565b9050600081511415611173576040518060200160405280600081525061119e565b8061117d84611f54565b60405160200161118e929190613474565b6040516020818303038152906040525b915050919050565b60006111b1826120b5565b9050919050565b6000600760008473ffffffffffffffffffffffffffffffffffffffff1673ffffffffffffffffffffffffffffffffffffffff16815260200190815260200160002060008373ffffffffffffffffffffffffffffffffffffffff1673ffffffffffffffffffffffffffffffffffffffff16815260200190815260200160002060009054906101000a900460ff16905092915050565b6112546113fc565b73ffffffffffffffffffffffffffffffffffffffff16611272610b8c565b73ffffffffffffffffffffffffffffffffffffffff16146112c8576040517f08c379a00000000000000000000000000000000000000000000000000000000081526004016112bf906131f5565b60405180910390fd5b600073ffffffffffffffffffffffffffffffffffffffff168173ffffffffffffffffffffffffffffffffffffffff161415611338576040517f08c379a000000000000000000000000000000000000000000000000000000000815260040161132f9061350a565b60405180910390fd5b61134181611c3b565b50565b60007f01ffc9a7000000000000000000000000000000000000000000000000000000007bffffffffffffffffffffffffffffffffffffffffffffffffffffffff1916827bffffffffffffffffffffffffffffffffffffffffffffffffffffffff1916149050919050565b6000816113b96114b6565b111580156113c8575060005482105b80156113f5575060046000838152602001908152602001600020600001601c9054906101000a900460ff16155b9050919050565b600033905090565b826006600084815260200190815260200160002060006101000a81548173ffffffffffffffffffffffffffffffffffffffff021916908373ffffffffffffffffffffffffffffffffffffffff160217905550818373ffffffffffffffffffffffffffffffffffffffff168273ffffffffffffffffffffffffffffffffffffffff167f8c5be1e5ebec7d5bd14f71427d1e84f3dd0314c0f7b2291e5b200ac8c7c3b92560405160405180910390a4505050565b600090565b60006114c6826119ac565b90506000816000015173ffffffffffffffffffffffffffffffffffffffff166114ed6113fc565b73ffffffffffffffffffffffffffffffffffffffff161480611520575061151f826000015161151a6113fc565b6111b8565b5b80611565575061152e6113fc565b73ffffffffffffffffffffffffffffffffffffffff1661154d84610776565b73ffffffffffffffffffffffffffffffffffffffff16145b90508061159e576040517f59c896be00000000000000000000000000000000000000000000000000000000815260040160405180910390fd5b8473ffffffffffffffffffffffffffffffffffffffff16826000015173ffffffffffffffffffffffffffffffffffffffff1614611607576040517fa114810000000000000000000000000000000000000000000000000000000000815260040160405180910390fd5b600073ffffffffffffffffffffffffffffffffffffffff168473ffffffffffffffffffffffffffffffffffffffff16141561166e576040517fea553b3400000000000000000000000000000000000000000000000000000000815260040160405180910390fd5b61167b8585856001612185565b61168b6000848460000151611404565b6001600560008773ffffffffffffffffffffffffffffffffffffffff1673ffffffffffffffffffffffffffffffffffffffff16815260200190815260200160002060000160008282829054906101000a900467ffffffffffffffff160392506101000a81548167ffffffffffffffff021916908367ffffffffffffffff1602179055506001600560008673ffffffffffffffffffffffffffffffffffffffff1673ffffffffffffffffffffffffffffffffffffffff16815260200190815260200160002060000160008282829054906101000a900467ffffffffffffffff160192506101000a81548167ffffffffffffffff021916908367ffffffffffffffff160217905550836004600085815260200190815260200160002060000160006101000a81548173ffffffffffffffffffffffffffffffffffffffff021916908373ffffffffffffffffffffffffffffffffffffffff160217905550426004600085815260200190815260200160002060000160146101000a81548167ffffffffffffffff021916908367ffffffffffffffff1602179055506000600184019050600073ffffffffffffffffffffffffffffffffffffffff166004600083815260200190815260200160002060000160009054906101000a900473ffffffffffffffffffffffffffffffffffffffff1673ffffffffffffffffffffffffffffffffffffffff16141561193c5760005481101561193b5782600001516004600083815260200190815260200160002060000160006101000a81548173ffffffffffffffffffffffffffffffffffffffff021916908373ffffffffffffffffffffffffffffffffffffffff16021790555082602001516004600083815260200190815260200160002060000160146101000a81548167ffffffffffffffff021916908367ffffffffffffffff1602179055505b5b50828473ffffffffffffffffffffffffffffffffffffffff168673ffffffffffffffffffffffffffffffffffffffff167fddf252ad1be2c89b69c2b068fc378daa952ba7f163c4a11628f55a4df523b3ef60405160405180910390a46119a5858585600161218b565b5050505050565b6119b4612657565b6000829050806119c26114b6565b111580156119d1575060005481105b15611c04576000600460008381526020019081526020016000206040518060600160405290816000820160009054906101000a900473ffffffffffffffffffffffffffffffffffffffff1673ffffffffffffffffffffffffffffffffffffffff1673ffffffffffffffffffffffffffffffffffffffff1681526020016000820160149054906101000a900467ffffffffffffffff1667ffffffffffffffff1667ffffffffffffffff16815260200160008201601c9054906101000a900460ff16151515158152505090508060400151611c0257600073ffffffffffffffffffffffffffffffffffffffff16816000015173ffffffffffffffffffffffffffffffffffffffff1614611ae6578092505050611c36565b5b600115611c0157818060019003925050600460008381526020019081526020016000206040518060600160405290816000820160009054906101000a900473ffffffffffffffffffffffffffffffffffffffff1673ffffffffffffffffffffffffffffffffffffffff1673ffffffffffffffffffffffffffffffffffffffff1681526020016000820160149054906101000a900467ffffffffffffffff1667ffffffffffffffff1667ffffffffffffffff16815260200160008201601c9054906101000a900460ff1615151515815250509050600073ffffffffffffffffffffffffffffffffffffffff16816000015173ffffffffffffffffffffffffffffffffffffffff1614611bfc578092505050611c36565b611ae7565b5b505b6040517fdf2d9b4200000000000000000000000000000000000000000000000000000000815260040160405180910390fd5b919050565b6000600860009054906101000a900473ffffffffffffffffffffffffffffffffffffffff16905081600860006101000a81548173ffffffffffffffffffffffffffffffffffffffff021916908373ffffffffffffffffffffffffffffffffffffffff1602179055508173ffffffffffffffffffffffffffffffffffffffff168173ffffffffffffffffffffffffffffffffffffffff167f8be0079c531659141344cd1fd0a4f28419497f9722a3daafe3b4186f6b6457e060405160405180910390a35050565b611d1b828260405180602001604052806000815250612191565b5050565b80341015611d62576040517f08c379a0000000000000000000000000000000000000000000000000000000008152600401611d5990613576565b60405180910390fd5b80341115611dbd573373ffffffffffffffffffffffffffffffffffffffff166108fc8234611d909190613596565b9081150290604051600060405180830381858888f19350505050158015611dbb573d6000803e3d6000fd5b505b50565b6000808273ffffffffffffffffffffffffffffffffffffffff163b119050919050565b60008373ffffffffffffffffffffffffffffffffffffffff1663150b7a02611e096113fc565b8786866040518563ffffffff1660e01b8152600401611e2b949392919061361f565b6020604051808303816000875af1925050508015611e6757506040513d601f19601f82011682018060405250810190611e649190613680565b60015b611ee1573d8060008114611e97576040519150601f19603f3d011682016040523d82523d6000602084013e611e9c565b606091505b50600081511415611ed9576040517fd1a57ed600000000000000000000000000000000000000000000000000000000815260040160405180910390fd5b805181602001fd5b63150b7a0260e01b7bffffffffffffffffffffffffffffffffffffffffffffffffffffffff1916817bffffffffffffffffffffffffffffffffffffffffffffffffffffffff191614915050949350505050565b60606040518060800160405280605181526020016137b760519139905090565b60606000821415611f9c576040518060400160405280600181526020017f300000000000000000000000000000000000000000000000000000000000000081525090506120b0565b600082905060005b60008214611fce578080611fb7906136ad565b915050600a82611fc79190613725565b9150611fa4565b60008167ffffffffffffffff811115611fea57611fe96127cb565b5b6040519080825280601f01601f19166020018201604052801561201c5781602001600182028036833780820191505090505b5090505b600085146120a9576001826120359190613596565b9150600a856120449190613756565b603061205091906132b0565b60f81b81838151811061206657612065613787565b5b60200101907effffffffffffffffffffffffffffffffffffffffffffffffffffffffffffff1916908160001a905350600a856120a29190613725565b9450612020565b8093505050505b919050565b60008073ffffffffffffffffffffffffffffffffffffffff168273ffffffffffffffffffffffffffffffffffffffff16141561211d576040517f35ebb31900000000000000000000000000000000000000000000000000000000815260040160405180910390fd5b600560008373ffffffffffffffffffffffffffffffffffffffff1673ffffffffffffffffffffffffffffffffffffffff16815260200190815260200160002060000160089054906101000a900467ffffffffffffffff1667ffffffffffffffff169050919050565b50505050565b50505050565b61219e83838360016121a3565b505050565b600080549050600073ffffffffffffffffffffffffffffffffffffffff168573ffffffffffffffffffffffffffffffffffffffff161415612210576040517f2e07630000000000000000000000000000000000000000000000000000000000815260040160405180910390fd5b600084141561224b576040517fb562e8dd00000000000000000000000000000000000000000000000000000000815260040160405180910390fd5b6122586000868387612185565b83600560008773ffffffffffffffffffffffffffffffffffffffff1673ffffffffffffffffffffffffffffffffffffffff16815260200190815260200160002060000160008282829054906101000a900467ffffffffffffffff160192506101000a81548167ffffffffffffffff021916908367ffffffffffffffff16021790555083600560008773ffffffffffffffffffffffffffffffffffffffff1673ffffffffffffffffffffffffffffffffffffffff16815260200190815260200160002060000160088282829054906101000a900467ffffffffffffffff160192506101000a81548167ffffffffffffffff021916908367ffffffffffffffff160217905550846004600083815260200190815260200160002060000160006101000a81548173ffffffffffffffffffffffffffffffffffffffff021916908373ffffffffffffffffffffffffffffffffffffffff160217905550426004600083815260200190815260200160002060000160146101000a81548167ffffffffffffffff021916908367ffffffffffffffff16021790555060008190506000858201905083801561242257506124218773ffffffffffffffffffffffffffffffffffffffff16611dc0565b5b156124e8575b818773ffffffffffffffffffffffffffffffffffffffff16600073ffffffffffffffffffffffffffffffffffffffff167fddf252ad1be2c89b69c2b068fc378daa952ba7f163c4a11628f55a4df523b3ef60405160405180910390a46124976000888480600101955088611de3565b6124cd576040517fd1a57ed600000000000000000000000000000000000000000000000000000000815260040160405180910390fd5b808214156124285782600054146124e357600080fd5b612554565b5b818060010192508773ffffffffffffffffffffffffffffffffffffffff16600073ffffffffffffffffffffffffffffffffffffffff167fddf252ad1be2c89b69c2b068fc378daa952ba7f163c4a11628f55a4df523b3ef60405160405180910390a4808214156124e9575b81600081905550505061256a600086838761218b565b5050505050565b8280548282559060005260206000209081019282156125c0579160200282015b828111156125bf5782518290805190602001906125af92919061269a565b5091602001919060010190612591565b5b5090506125cd9190612720565b5090565b8280546125dd90613177565b90600052602060002090601f0160209004810192826125ff5760008555612646565b82601f1061261857803560ff1916838001178555612646565b82800160010185558215612646579182015b8281111561264557823582559160200191906001019061262a565b5b5090506126539190612744565b5090565b6040518060600160405280600073ffffffffffffffffffffffffffffffffffffffff168152602001600067ffffffffffffffff1681526020016000151581525090565b8280546126a690613177565b90600052602060002090601f0160209004810192826126c8576000855561270f565b82601f106126e157805160ff191683800117855561270f565b8280016001018555821561270f579182015b8281111561270e5782518255916020019190600101906126f3565b5b50905061271c9190612744565b5090565b5b8082111561274057600081816127379190612761565b50600101612721565b5090565b5b8082111561275d576000816000905550600101612745565b5090565b50805461276d90613177565b6000825580601f1061277f575061279e565b601f01602090049060005260206000209081019061279d9190612744565b5b50565b6000604051905090565b600080fd5b600080fd5b600080fd5b6000601f19601f8301169050919050565b7f4e487b7100000000000000000000000000000000000000000000000000000000600052604160045260246000fd5b612803826127ba565b810181811067ffffffffffffffff82111715612822576128216127cb565b5b80604052505050565b60006128356127a1565b905061284182826127fa565b919050565b600067ffffffffffffffff821115612861576128606127cb565b5b602082029050602081019050919050565b600080fd5b600080fd5b600067ffffffffffffffff821115612897576128966127cb565b5b6128a0826127ba565b9050602081019050919050565b82818337600083830152505050565b60006128cf6128ca8461287c565b61282b565b9050828152602081018484840111156128eb576128ea612877565b5b6128f68482856128ad565b509392505050565b600082601f830112612913576129126127b5565b5b81356129238482602086016128bc565b91505092915050565b600061293f61293a84612846565b61282b565b9050808382526020820190506020840283018581111561296257612961612872565b5b835b818110156129a957803567ffffffffffffffff811115612987576129866127b5565b5b80860161299489826128fe565b85526020850194505050602081019050612964565b5050509392505050565b600082601f8301126129c8576129c76127b5565b5b81356129d884826020860161292c565b91505092915050565b6000602082840312156129f7576129f66127ab565b5b600082013567ffffffffffffffff811115612a1557612a146127b0565b5b612a21848285016129b3565b91505092915050565b60007fffffffff0000000000000000000000000000000000000000000000000000000082169050919050565b612a5f81612a2a565b8114612a6a57600080fd5b50565b600081359050612a7c81612a56565b92915050565b600060208284031215612a9857612a976127ab565b5b6000612aa684828501612a6d565b91505092915050565b60008115159050919050565b612ac481612aaf565b82525050565b6000602082019050612adf6000830184612abb565b92915050565b600081519050919050565b600082825260208201905092915050565b60005b83811015612b1f578082015181840152602081019050612b04565b83811115612b2e576000848401525b50505050565b6000612b3f82612ae5565b612b498185612af0565b9350612b59818560208601612b01565b612b62816127ba565b840191505092915050565b60006020820190508181036000830152612b878184612b34565b905092915050565b6000819050919050565b612ba281612b8f565b8114612bad57600080fd5b50565b600081359050612bbf81612b99565b92915050565b600060208284031215612bdb57612bda6127ab565b5b6000612be984828501612bb0565b91505092915050565b600073ffffffffffffffffffffffffffffffffffffffff82169050919050565b6000612c1d82612bf2565b9050919050565b612c2d81612c12565b82525050565b6000602082019050612c486000830184612c24565b92915050565b612c5781612c12565b8114612c6257600080fd5b50565b600081359050612c7481612c4e565b92915050565b60008060408385031215612c9157612c906127ab565b5b6000612c9f85828601612c65565b9250506020612cb085828601612bb0565b9150509250929050565b612cc381612b8f565b82525050565b6000602082019050612cde6000830184612cba565b92915050565b600080600060608486031215612cfd57612cfc6127ab565b5b6000612d0b86828701612c65565b9350506020612d1c86828701612c65565b9250506040612d2d86828701612bb0565b9150509250925092565b600080fd5b60008083601f840112612d5257612d516127b5565b5b8235905067ffffffffffffffff811115612d6f57612d6e612d37565b5b602083019150836001820283011115612d8b57612d8a612872565b5b9250929050565b60008060208385031215612da957612da86127ab565b5b600083013567ffffffffffffffff811115612dc757612dc66127b0565b5b612dd385828601612d3c565b92509250509250929050565b600060208284031215612df557612df46127ab565b5b6000612e0384828501612c65565b91505092915050565b600067ffffffffffffffff82169050919050565b612e2981612e0c565b82525050565b6000602082019050612e446000830184612e20565b92915050565b612e5381612aaf565b8114612e5e57600080fd5b50565b600081359050612e7081612e4a565b92915050565b60008060408385031215612e8d57612e8c6127ab565b5b6000612e9b85828601612c65565b9250506020612eac85828601612e61565b9150509250929050565b600081519050919050565b600082825260208201905092915050565b6000819050602082019050919050565b600082825260208201905092915050565b6000612efe82612ae5565b612f088185612ee2565b9350612f18818560208601612b01565b612f21816127ba565b840191505092915050565b6000612f388383612ef3565b905092915050565b6000602082019050919050565b6000612f5882612eb6565b612f628185612ec1565b935083602082028501612f7485612ed2565b8060005b85811015612fb05784840389528151612f918582612f2c565b9450612f9c83612f40565b925060208a01995050600181019050612f78565b50829750879550505050505092915050565b60006020820190508181036000830152612fdc8184612f4d565b905092915050565b600067ffffffffffffffff821115612fff57612ffe6127cb565b5b613008826127ba565b9050602081019050919050565b600061302861302384612fe4565b61282b565b90508281526020810184848401111561304457613043612877565b5b61304f8482856128ad565b509392505050565b600082601f83011261306c5761306b6127b5565b5b813561307c848260208601613015565b91505092915050565b6000806000806080858703121561309f5761309e6127ab565b5b60006130ad87828801612c65565b94505060206130be87828801612c65565b93505060406130cf87828801612bb0565b925050606085013567ffffffffffffffff8111156130f0576130ef6127b0565b5b6130fc87828801613057565b91505092959194509250565b6000806040838503121561311f5761311e6127ab565b5b600061312d85828601612c65565b925050602061313e85828601612c65565b9150509250929050565b7f4e487b7100000000000000000000000000000000000000000000000000000000600052602260045260246000fd5b6000600282049050600182168061318f57607f821691505b602082108114156131a3576131a2613148565b5b50919050565b7f4f776e61626c653a2063616c6c6572206973206e6f7420746865206f776e6572600082015250565b60006131df602083612af0565b91506131ea826131a9565b602082019050919050565b6000602082019050818103600083015261320e816131d2565b9050919050565b7f5468652063616c6c657220697320616e6f7468657220636f6e74726163740000600082015250565b600061324b601e83612af0565b915061325682613215565b602082019050919050565b6000602082019050818103600083015261327a8161323e565b9050919050565b7f4e487b7100000000000000000000000000000000000000000000000000000000600052601160045260246000fd5b60006132bb82612b8f565b91506132c683612b8f565b9250827fffffffffffffffffffffffffffffffffffffffffffffffffffffffffffffffff038211156132fb576132fa613281565b5b828201905092915050565b7f72656163686564206d617820737570706c790000000000000000000000000000600082015250565b600061333c601283612af0565b915061334782613306565b602082019050919050565b6000602082019050818103600083015261336b8161332f565b9050919050565b7f63616e206e6f74206d696e742074686973206d616e7900000000000000000000600082015250565b60006133a8601683612af0565b91506133b382613372565b602082019050919050565b600060208201905081810360008301526133d78161339b565b9050919050565b60006133e982612b8f565b91506133f483612b8f565b9250817fffffffffffffffffffffffffffffffffffffffffffffffffffffffffffffffff048311821515161561342d5761342c613281565b5b828202905092915050565b600081905092915050565b600061344e82612ae5565b6134588185613438565b9350613468818560208601612b01565b80840191505092915050565b60006134808285613443565b915061348c8284613443565b91508190509392505050565b7f4f776e61626c653a206e6577206f776e657220697320746865207a65726f206160008201527f6464726573730000000000000000000000000000000000000000000000000000602082015250565b60006134f4602683612af0565b91506134ff82613498565b604082019050919050565b60006020820190508181036000830152613523816134e7565b9050919050565b7f4e65656420746f2073656e64206d6f7265204554482e00000000000000000000600082015250565b6000613560601683612af0565b915061356b8261352a565b602082019050919050565b6000602082019050818103600083015261358f81613553565b9050919050565b60006135a182612b8f565b91506135ac83612b8f565b9250828210156135bf576135be613281565b5b828203905092915050565b600081519050919050565b600082825260208201905092915050565b60006135f1826135ca565b6135fb81856135d5565b935061360b818560208601612b01565b613614816127ba565b840191505092915050565b60006080820190506136346000830187612c24565b6136416020830186612c24565b61364e6040830185612cba565b818103606083015261366081846135e6565b905095945050505050565b60008151905061367a81612a56565b92915050565b600060208284031215613696576136956127ab565b5b60006136a48482850161366b565b91505092915050565b60006136b882612b8f565b91507fffffffffffffffffffffffffffffffffffffffffffffffffffffffffffffffff8214156136eb576136ea613281565b5b600182019050919050565b7f4e487b7100000000000000000000000000000000000000000000000000000000600052601260045260246000fd5b600061373082612b8f565b915061373b83612b8f565b92508261374b5761374a6136f6565b5b828204905092915050565b600061376182612b8f565b915061376c83612b8f565b92508261377c5761377b6136f6565b5b828206905092915050565b7f4e487b7100000000000000000000000000000000000000000000000000000000600052603260045260246000fdfe68747470733a2f2f676174657761792e70696e6174612e636c6f75642f697066732f516d63324554553368566e317575446565384d324b696963624a61506238513276385976384352696667423763432fa26469706673582212206e5479606e5f20b2efa88960a282611284344c547794e4af4e941728d1154fe464736f6c634300080b0033",
  "linkReferences": {},
  "deployedLinkReferences": {}
}