{
  "_format": "hh-sol-artifact-1",
  "contractName": "NFTAVs",
  "sourceName": "contracts/NFTAVs.sol",
  "abi": [
    {
      "inputs": [],
      "stateMutability": "nonpayable",
      "type": "constructor"
    },
    {
      "inputs": [],
      "name": "ApprovalCallerNotOwnerNorApproved",
      "type": "error"
    },
    {
      "inputs": [],
      "name": "ApprovalQueryForNonexistentToken",
      "type": "error"
    },
    {
      "inputs": [],
      "name": "ApprovalToCurrentOwner",
      "type": "error"
    },
    {
      "inputs": [],
      "name": "ApproveToCaller",
      "type": "error"
    },
    {
      "inputs": [],
      "name": "BalanceQueryForZeroAddress",
      "type": "error"
    },
    {
      "inputs": [],
      "name": "MintToZeroAddress",
      "type": "error"
    },
    {
      "inputs": [],
      "name": "MintZeroQuantity",
      "type": "error"
    },
    {
      "inputs": [],
      "name": "MintedQueryForZeroAddress",
      "type": "error"
    },
    {
      "inputs": [],
      "name": "OwnerQueryForNonexistentToken",
      "type": "error"
    },
    {
      "inputs": [],
      "name": "TransferCallerNotOwnerNorApproved",
      "type": "error"
    },
    {
      "inputs": [],
      "name": "TransferFromIncorrectOwner",
      "type": "error"
    },
    {
      "inputs": [],
      "name": "TransferToNonERC721ReceiverImplementer",
      "type": "error"
    },
    {
      "inputs": [],
      "name": "TransferToZeroAddress",
      "type": "error"
    },
    {
      "inputs": [],
      "name": "URIQueryForNonexistentToken",
      "type": "error"
    },
    {
      "anonymous": false,
      "inputs": [
        {
          "indexed": true,
          "internalType": "address",
          "name": "owner",
          "type": "address"
        },
        {
          "indexed": true,
          "internalType": "address",
          "name": "approved",
          "type": "address"
        },
        {
          "indexed": true,
          "internalType": "uint256",
          "name": "tokenId",
          "type": "uint256"
        }
      ],
      "name": "Approval",
      "type": "event"
    },
    {
      "anonymous": false,
      "inputs": [
        {
          "indexed": true,
          "internalType": "address",
          "name": "owner",
          "type": "address"
        },
        {
          "indexed": true,
          "internalType": "address",
          "name": "operator",
          "type": "address"
        },
        {
          "indexed": false,
          "internalType": "bool",
          "name": "approved",
          "type": "bool"
        }
      ],
      "name": "ApprovalForAll",
      "type": "event"
    },
    {
      "anonymous": false,
      "inputs": [
        {
          "indexed": true,
          "internalType": "address",
          "name": "previousOwner",
          "type": "address"
        },
        {
          "indexed": true,
          "internalType": "address",
          "name": "newOwner",
          "type": "address"
        }
      ],
      "name": "OwnershipTransferred",
      "type": "event"
    },
    {
      "anonymous": false,
      "inputs": [
        {
          "indexed": true,
          "internalType": "address",
          "name": "from",
          "type": "address"
        },
        {
          "indexed": true,
          "internalType": "address",
          "name": "to",
          "type": "address"
        },
        {
          "indexed": true,
          "internalType": "uint256",
          "name": "tokenId",
          "type": "uint256"
        }
      ],
      "name": "Transfer",
      "type": "event"
    },
    {
      "inputs": [],
      "name": "_saleConfig",
      "outputs": [
        {
          "internalType": "uint64",
          "name": "publicPrice",
          "type": "uint64"
        }
      ],
      "stateMutability": "view",
      "type": "function"
    },
    {
      "inputs": [
        {
          "internalType": "address",
          "name": "to",
          "type": "address"
        },
        {
          "internalType": "uint256",
          "name": "tokenId",
          "type": "uint256"
        }
      ],
      "name": "approve",
      "outputs": [],
      "stateMutability": "nonpayable",
      "type": "function"
    },
    {
      "inputs": [
        {
          "internalType": "address",
          "name": "owner",
          "type": "address"
        }
      ],
      "name": "balanceOf",
      "outputs": [
        {
          "internalType": "uint256",
          "name": "",
          "type": "uint256"
        }
      ],
      "stateMutability": "view",
      "type": "function"
    },
    {
      "inputs": [],
      "name": "collectionSize",
      "outputs": [
        {
          "internalType": "uint256",
          "name": "",
          "type": "uint256"
        }
      ],
      "stateMutability": "view",
      "type": "function"
    },
    {
      "inputs": [
        {
          "internalType": "uint256",
          "name": "tokenId",
          "type": "uint256"
        }
      ],
      "name": "getApproved",
      "outputs": [
        {
          "internalType": "address",
          "name": "",
          "type": "address"
        }
      ],
      "stateMutability": "view",
      "type": "function"
    },
    {
      "inputs": [],
      "name": "getTokenURIs",
      "outputs": [
        {
          "internalType": "string[]",
          "name": "",
          "type": "string[]"
        }
      ],
      "stateMutability": "view",
      "type": "function"
    },
    {
      "inputs": [
        {
          "internalType": "address",
          "name": "owner",
          "type": "address"
        },
        {
          "internalType": "address",
          "name": "operator",
          "type": "address"
        }
      ],
      "name": "isApprovedForAll",
      "outputs": [
        {
          "internalType": "bool",
          "name": "",
          "type": "bool"
        }
      ],
      "stateMutability": "view",
      "type": "function"
    },
    {
      "inputs": [],
      "name": "maxPerAddressDuringMint",
      "outputs": [
        {
          "internalType": "uint256",
          "name": "",
          "type": "uint256"
        }
      ],
      "stateMutability": "view",
      "type": "function"
    },
    {
      "inputs": [],
      "name": "name",
      "outputs": [
        {
          "internalType": "string",
          "name": "",
          "type": "string"
        }
      ],
      "stateMutability": "view",
      "type": "function"
    },
    {
      "inputs": [
        {
          "internalType": "address",
          "name": "owner",
          "type": "address"
        }
      ],
      "name": "numberMinted",
      "outputs": [
        {
          "internalType": "uint256",
          "name": "",
          "type": "uint256"
        }
      ],
      "stateMutability": "view",
      "type": "function"
    },
    {
      "inputs": [],
      "name": "owner",
      "outputs": [
        {
          "internalType": "address",
          "name": "",
          "type": "address"
        }
      ],
      "stateMutability": "view",
      "type": "function"
    },
    {
      "inputs": [
        {
          "internalType": "uint256",
          "name": "tokenId",
          "type": "uint256"
        }
      ],
      "name": "ownerOf",
      "outputs": [
        {
          "internalType": "address",
          "name": "",
          "type": "address"
        }
      ],
      "stateMutability": "view",
      "type": "function"
    },
    {
      "inputs": [
        {
          "internalType": "uint256",
          "name": "quantity",
          "type": "uint256"
        }
      ],
      "name": "publicSaleMint",
      "outputs": [],
      "stateMutability": "payable",
      "type": "function"
    },
    {
      "inputs": [],
      "name": "renounceOwnership",
      "outputs": [],
      "stateMutability": "nonpayable",
      "type": "function"
    },
    {
      "inputs": [
        {
          "internalType": "uint256",
          "name": "_tokenId",
          "type": "uint256"
        },
        {
          "internalType": "uint256",
          "name": "_salePrice",
          "type": "uint256"
        }
      ],
      "name": "royaltyInfo",
      "outputs": [
        {
          "internalType": "address",
          "name": "receiver",
          "type": "address"
        },
        {
          "internalType": "uint256",
          "name": "royaltyAmount",
          "type": "uint256"
        }
      ],
      "stateMutability": "view",
      "type": "function"
    },
    {
      "inputs": [
        {
          "internalType": "address",
          "name": "from",
          "type": "address"
        },
        {
          "internalType": "address",
          "name": "to",
          "type": "address"
        },
        {
          "internalType": "uint256",
          "name": "tokenId",
          "type": "uint256"
        }
      ],
      "name": "safeTransferFrom",
      "outputs": [],
      "stateMutability": "nonpayable",
      "type": "function"
    },
    {
      "inputs": [
        {
          "internalType": "address",
          "name": "from",
          "type": "address"
        },
        {
          "internalType": "address",
          "name": "to",
          "type": "address"
        },
        {
          "internalType": "uint256",
          "name": "tokenId",
          "type": "uint256"
        },
        {
          "internalType": "bytes",
          "name": "_data",
          "type": "bytes"
        }
      ],
      "name": "safeTransferFrom",
      "outputs": [],
      "stateMutability": "nonpayable",
      "type": "function"
    },
    {
      "inputs": [
        {
          "internalType": "address",
          "name": "operator",
          "type": "address"
        },
        {
          "internalType": "bool",
          "name": "approved",
          "type": "bool"
        }
      ],
      "name": "setApprovalForAll",
      "outputs": [],
      "stateMutability": "nonpayable",
      "type": "function"
    },
    {
      "inputs": [
        {
          "internalType": "string",
          "name": "baseURI",
          "type": "string"
        }
      ],
      "name": "setBaseURI",
      "outputs": [],
      "stateMutability": "nonpayable",
      "type": "function"
    },
    {
      "inputs": [
        {
          "internalType": "address",
          "name": "recipient",
          "type": "address"
        },
        {
          "internalType": "uint256",
          "name": "value",
          "type": "uint256"
        }
      ],
      "name": "setRoyalties",
      "outputs": [],
      "stateMutability": "nonpayable",
      "type": "function"
    },
    {
      "inputs": [
        {
          "internalType": "string[]",
          "name": "tokenURIs",
          "type": "string[]"
        }
      ],
      "name": "setTokenURIs",
      "outputs": [],
      "stateMutability": "nonpayable",
      "type": "function"
    },
    {
      "inputs": [
        {
          "internalType": "bytes4",
          "name": "interfaceId",
          "type": "bytes4"
        }
      ],
      "name": "supportsInterface",
      "outputs": [
        {
          "internalType": "bool",
          "name": "",
          "type": "bool"
        }
      ],
      "stateMutability": "view",
      "type": "function"
    },
    {
      "inputs": [],
      "name": "symbol",
      "outputs": [
        {
          "internalType": "string",
          "name": "",
          "type": "string"
        }
      ],
      "stateMutability": "view",
      "type": "function"
    },
    {
      "inputs": [
        {
          "internalType": "uint256",
          "name": "tokenId",
          "type": "uint256"
        }
      ],
      "name": "tokenURI",
      "outputs": [
        {
          "internalType": "string",
          "name": "",
          "type": "string"
        }
      ],
      "stateMutability": "view",
      "type": "function"
    },
    {
      "inputs": [],
      "name": "totalSupply",
      "outputs": [
        {
          "internalType": "uint256",
          "name": "",
          "type": "uint256"
        }
      ],
      "stateMutability": "view",
      "type": "function"
    },
    {
      "inputs": [
        {
          "internalType": "address",
          "name": "from",
          "type": "address"
        },
        {
          "internalType": "address",
          "name": "to",
          "type": "address"
        },
        {
          "internalType": "uint256",
          "name": "tokenId",
          "type": "uint256"
        }
      ],
      "name": "transferFrom",
      "outputs": [],
      "stateMutability": "nonpayable",
      "type": "function"
    },
    {
      "inputs": [
        {
          "internalType": "address",
          "name": "newOwner",
          "type": "address"
        }
      ],
      "name": "transferOwnership",
      "outputs": [],
      "stateMutability": "nonpayable",
      "type": "function"
    }
  ],
  "bytecode": "0x60c06040526064608090815250600a60a0908152503480156200002157600080fd5b506040518060400160405280600681526020017f4e465441567300000000000000000000000000000000000000000000000000008152506040518060400160405280600381526020017f4e415600000000000000000000000000000000000000000000000000000000008152508160029080519060200190620000a692919062000225565b508060039080519060200190620000bf92919062000225565b50620000d06200015260201b60201c565b6000819055505050620000f8620000ec6200015760201b60201c565b6200015f60201b60201c565b60405180602001604052806611c37937e0800067ffffffffffffffff16815250600960008201518160000160006101000a81548167ffffffffffffffff021916908367ffffffffffffffff1602179055509050506200033a565b600090565b600033905090565b6000600860009054906101000a900473ffffffffffffffffffffffffffffffffffffffff16905081600860006101000a81548173ffffffffffffffffffffffffffffffffffffffff021916908373ffffffffffffffffffffffffffffffffffffffff1602179055508173ffffffffffffffffffffffffffffffffffffffff168173ffffffffffffffffffffffffffffffffffffffff167f8be0079c531659141344cd1fd0a4f28419497f9722a3daafe3b4186f6b6457e060405160405180910390a35050565b828054620002339062000304565b90600052602060002090601f016020900481019282620002575760008555620002a3565b82601f106200027257805160ff1916838001178555620002a3565b82800160010185558215620002a3579182015b82811115620002a257825182559160200191906001019062000285565b5b509050620002b29190620002b6565b5090565b5b80821115620002d1576000816000905550600101620002b7565b5090565b7f4e487b7100000000000000000000000000000000000000000000000000000000600052602260045260246000fd5b600060028204905060018216806200031d57607f821691505b60208210811415620003345762000333620002d5565b5b50919050565b60805160a051613b596200036e60003960008181610ac301526110ed015260008181610ce701526111620152613b596000f3fe60806040526004361061019b5760003560e01c806370a08231116100ec578063b3ab66b01161008a578063c87b56dd11610064578063c87b56dd146105a5578063dc33e681146105e2578063e985e9c51461061f578063f2fde38b1461065c5761019b565b8063b3ab66b014610535578063b6d3564b14610551578063b88d4fde1461057c5761019b565b80638c7ea24b116100c65780638c7ea24b1461048d5780638da5cb5b146104b657806395d89b41146104e1578063a22cb4651461050c5761019b565b806370a082311461040e578063715018a61461044b5780638bc35c2f146104625761019b565b806323b872dd1161015957806342842e0e1161013357806342842e0e1461035457806345c0f5331461037d57806355f804b3146103a85780636352211e146103d15761019b565b806323b872dd146102c25780632a55205a146102eb5780632e95599a146103295761019b565b8062c07ffc146101a057806301ffc9a7146101c957806306fdde0314610206578063081812fc14610231578063095ea7b31461026e57806318160ddd14610297575b600080fd5b3480156101ac57600080fd5b506101c760048036038101906101c29190612c28565b610685565b005b3480156101d557600080fd5b506101f060048036038101906101eb9190612cc9565b61069f565b6040516101fd9190612d11565b60405180910390f35b34801561021257600080fd5b5061021b610781565b6040516102289190612db4565b60405180910390f35b34801561023d57600080fd5b5061025860048036038101906102539190612e0c565b610813565b6040516102659190612e7a565b60405180910390f35b34801561027a57600080fd5b5061029560048036038101906102909190612ec1565b61088f565b005b3480156102a357600080fd5b506102ac61099a565b6040516102b99190612f10565b60405180910390f35b3480156102ce57600080fd5b506102e960048036038101906102e49190612f2b565b6109b1565b005b3480156102f757600080fd5b50610312600480360381019061030d9190612f7e565b6109c1565b604051610320929190612fbe565b60405180910390f35b34801561033557600080fd5b5061033e610a81565b60405161034b919061300a565b60405180910390f35b34801561036057600080fd5b5061037b60048036038101906103769190612f2b565b610aa1565b005b34801561038957600080fd5b50610392610ac1565b60405161039f9190612f10565b60405180910390f35b3480156103b457600080fd5b506103cf60048036038101906103ca9190613080565b610ae5565b005b3480156103dd57600080fd5b506103f860048036038101906103f39190612e0c565b610b77565b6040516104059190612e7a565b60405180910390f35b34801561041a57600080fd5b50610435600480360381019061043091906130cd565b610b8d565b6040516104429190612f10565b60405180910390f35b34801561045757600080fd5b50610460610c5d565b005b34801561046e57600080fd5b50610477610ce5565b6040516104849190612f10565b60405180910390f35b34801561049957600080fd5b506104b460048036038101906104af9190612ec1565b610d09565b005b3480156104c257600080fd5b506104cb610df3565b6040516104d89190612e7a565b60405180910390f35b3480156104ed57600080fd5b506104f6610e1d565b6040516105039190612db4565b60405180910390f35b34801561051857600080fd5b50610533600480360381019061052e9190613126565b610eaf565b005b61054f600480360381019061054a9190612e0c565b611027565b005b34801561055d57600080fd5b506105666111f9565b6040516105739190613272565b60405180910390f35b34801561058857600080fd5b506105a3600480360381019061059e9190613335565b6112d2565b005b3480156105b157600080fd5b506105cc60048036038101906105c79190612e0c565b61134e565b6040516105d99190612db4565b60405180910390f35b3480156105ee57600080fd5b50610609600480360381019061060491906130cd565b6113ed565b6040516106169190612f10565b60405180910390f35b34801561062b57600080fd5b50610646600480360381019061064191906133b8565b6113ff565b6040516106539190612d11565b60405180910390f35b34801561066857600080fd5b50610683600480360381019061067e91906130cd565b611493565b005b80600c908051906020019061069b9291906127b8565b5050565b60007f80ac58cd000000000000000000000000000000000000000000000000000000007bffffffffffffffffffffffffffffffffffffffffffffffffffffffff1916827bffffffffffffffffffffffffffffffffffffffffffffffffffffffff1916148061076a57507f5b5e139f000000000000000000000000000000000000000000000000000000007bffffffffffffffffffffffffffffffffffffffffffffffffffffffff1916827bffffffffffffffffffffffffffffffffffffffffffffffffffffffff1916145b8061077a57506107798261158b565b5b9050919050565b60606002805461079090613427565b80601f01602080910402602001604051908101604052809291908181526020018280546107bc90613427565b80156108095780601f106107de57610100808354040283529160200191610809565b820191906000526020600020905b8154815290600101906020018083116107ec57829003601f168201915b5050505050905090565b600061081e826115f5565b610854576040517fcf4700e400000000000000000000000000000000000000000000000000000000815260040160405180910390fd5b6006600083815260200190815260200160002060009054906101000a900473ffffffffffffffffffffffffffffffffffffffff169050919050565b600061089a82610b77565b90508073ffffffffffffffffffffffffffffffffffffffff168373ffffffffffffffffffffffffffffffffffffffff161415610902576040517f943f7b8c00000000000000000000000000000000000000000000000000000000815260040160405180910390fd5b8073ffffffffffffffffffffffffffffffffffffffff16610921611643565b73ffffffffffffffffffffffffffffffffffffffff161415801561095357506109518161094c611643565b6113ff565b155b1561098a576040517fcfb3b94200000000000000000000000000000000000000000000000000000000815260040160405180910390fd5b61099583838361164b565b505050565b60006109a46116fd565b6001546000540303905090565b6109bc838383611702565b505050565b6000806000600a6040518060400160405290816000820160009054906101000a900473ffffffffffffffffffffffffffffffffffffffff1673ffffffffffffffffffffffffffffffffffffffff1673ffffffffffffffffffffffffffffffffffffffff1681526020016000820160149054906101000a900462ffffff1662ffffff1662ffffff1681525050905080600001519250612710816020015162ffffff1685610a6d9190613488565b610a779190613511565b9150509250929050565b60098060000160009054906101000a900467ffffffffffffffff16905081565b610abc838383604051806020016040528060008152506112d2565b505050565b7f000000000000000000000000000000000000000000000000000000000000000081565b610aed611643565b73ffffffffffffffffffffffffffffffffffffffff16610b0b610df3565b73ffffffffffffffffffffffffffffffffffffffff1614610b61576040517f08c379a0000000000000000000000000000000000000000000000000000000008152600401610b589061358e565b60405180910390fd5b8181600b9190610b72929190612818565b505050565b6000610b8282611bf3565b600001519050919050565b60008073ffffffffffffffffffffffffffffffffffffffff168273ffffffffffffffffffffffffffffffffffffffff161415610bf5576040517f8f4eb60400000000000000000000000000000000000000000000000000000000815260040160405180910390fd5b600560008373ffffffffffffffffffffffffffffffffffffffff1673ffffffffffffffffffffffffffffffffffffffff16815260200190815260200160002060000160009054906101000a900467ffffffffffffffff1667ffffffffffffffff169050919050565b610c65611643565b73ffffffffffffffffffffffffffffffffffffffff16610c83610df3565b73ffffffffffffffffffffffffffffffffffffffff1614610cd9576040517f08c379a0000000000000000000000000000000000000000000000000000000008152600401610cd09061358e565b60405180910390fd5b610ce36000611e82565b565b7f000000000000000000000000000000000000000000000000000000000000000081565b612710811115610d4e576040517f08c379a0000000000000000000000000000000000000000000000000000000008152600401610d45906135fa565b60405180910390fd5b60405180604001604052808373ffffffffffffffffffffffffffffffffffffffff1681526020018262ffffff16815250600a60008201518160000160006101000a81548173ffffffffffffffffffffffffffffffffffffffff021916908373ffffffffffffffffffffffffffffffffffffffff16021790555060208201518160000160146101000a81548162ffffff021916908362ffffff1602179055509050505050565b6000600860009054906101000a900473ffffffffffffffffffffffffffffffffffffffff16905090565b606060038054610e2c90613427565b80601f0160208091040260200160405190810160405280929190818152602001828054610e5890613427565b8015610ea55780601f10610e7a57610100808354040283529160200191610ea5565b820191906000526020600020905b815481529060010190602001808311610e8857829003601f168201915b5050505050905090565b610eb7611643565b73ffffffffffffffffffffffffffffffffffffffff168273ffffffffffffffffffffffffffffffffffffffff161415610f1c576040517fb06307db00000000000000000000000000000000000000000000000000000000815260040160405180910390fd5b8060076000610f29611643565b73ffffffffffffffffffffffffffffffffffffffff1673ffffffffffffffffffffffffffffffffffffffff16815260200190815260200160002060008473ffffffffffffffffffffffffffffffffffffffff1673ffffffffffffffffffffffffffffffffffffffff16815260200190815260200160002060006101000a81548160ff0219169083151502179055508173ffffffffffffffffffffffffffffffffffffffff16610fd6611643565b73ffffffffffffffffffffffffffffffffffffffff167f17307eab39ab6107e8899845ad3d59bd9653f200f220920489ca2b5937696c318360405161101b9190612d11565b60405180910390a35050565b3373ffffffffffffffffffffffffffffffffffffffff163273ffffffffffffffffffffffffffffffffffffffff1614611095576040517f08c379a000000000000000000000000000000000000000000000000000000000815260040161108c90613666565b60405180910390fd5b600060096040518060200160405290816000820160009054906101000a900467ffffffffffffffff1667ffffffffffffffff1667ffffffffffffffff168152505090506000816000015167ffffffffffffffff1690507f00000000000000000000000000000000000000000000000000000000000000008361111561099a565b61111f9190613686565b1115611160576040517f08c379a000000000000000000000000000000000000000000000000000000000815260040161115790613728565b60405180910390fd5b7f00000000000000000000000000000000000000000000000000000000000000008361118b336113ed565b6111959190613686565b11156111d6576040517f08c379a00000000000000000000000000000000000000000000000000000000081526004016111cd90613794565b60405180910390fd5b6111e03384611f48565b6111f483826111ef9190613488565b611f66565b505050565b6060600c805480602002602001604051908101604052809291908181526020016000905b828210156112c957838290600052602060002001805461123c90613427565b80601f016020809104026020016040519081016040528092919081815260200182805461126890613427565b80156112b55780601f1061128a576101008083540402835291602001916112b5565b820191906000526020600020905b81548152906001019060200180831161129857829003601f168201915b50505050508152602001906001019061121d565b50505050905090565b6112dd848484611702565b6112fc8373ffffffffffffffffffffffffffffffffffffffff16612007565b8015611311575061130f8484848461202a565b155b15611348576040517fd1a57ed600000000000000000000000000000000000000000000000000000000815260040160405180910390fd5b50505050565b6060611359826115f5565b61138f576040517fa14c4b5000000000000000000000000000000000000000000000000000000000815260040160405180910390fd5b600061139961217b565b90506000815114156113ba57604051806020016040528060008152506113e5565b806113c48461219b565b6040516020016113d59291906137f0565b6040516020818303038152906040525b915050919050565b60006113f8826122fc565b9050919050565b6000600760008473ffffffffffffffffffffffffffffffffffffffff1673ffffffffffffffffffffffffffffffffffffffff16815260200190815260200160002060008373ffffffffffffffffffffffffffffffffffffffff1673ffffffffffffffffffffffffffffffffffffffff16815260200190815260200160002060009054906101000a900460ff16905092915050565b61149b611643565b73ffffffffffffffffffffffffffffffffffffffff166114b9610df3565b73ffffffffffffffffffffffffffffffffffffffff161461150f576040517f08c379a00000000000000000000000000000000000000000000000000000000081526004016115069061358e565b60405180910390fd5b600073ffffffffffffffffffffffffffffffffffffffff168173ffffffffffffffffffffffffffffffffffffffff16141561157f576040517f08c379a000000000000000000000000000000000000000000000000000000000815260040161157690613886565b60405180910390fd5b61158881611e82565b50565b60007f01ffc9a7000000000000000000000000000000000000000000000000000000007bffffffffffffffffffffffffffffffffffffffffffffffffffffffff1916827bffffffffffffffffffffffffffffffffffffffffffffffffffffffff1916149050919050565b6000816116006116fd565b1115801561160f575060005482105b801561163c575060046000838152602001908152602001600020600001601c9054906101000a900460ff16155b9050919050565b600033905090565b826006600084815260200190815260200160002060006101000a81548173ffffffffffffffffffffffffffffffffffffffff021916908373ffffffffffffffffffffffffffffffffffffffff160217905550818373ffffffffffffffffffffffffffffffffffffffff168273ffffffffffffffffffffffffffffffffffffffff167f8c5be1e5ebec7d5bd14f71427d1e84f3dd0314c0f7b2291e5b200ac8c7c3b92560405160405180910390a4505050565b600090565b600061170d82611bf3565b90506000816000015173ffffffffffffffffffffffffffffffffffffffff16611734611643565b73ffffffffffffffffffffffffffffffffffffffff16148061176757506117668260000151611761611643565b6113ff565b5b806117ac5750611775611643565b73ffffffffffffffffffffffffffffffffffffffff1661179484610813565b73ffffffffffffffffffffffffffffffffffffffff16145b9050806117e5576040517f59c896be00000000000000000000000000000000000000000000000000000000815260040160405180910390fd5b8473ffffffffffffffffffffffffffffffffffffffff16826000015173ffffffffffffffffffffffffffffffffffffffff161461184e576040517fa114810000000000000000000000000000000000000000000000000000000000815260040160405180910390fd5b600073ffffffffffffffffffffffffffffffffffffffff168473ffffffffffffffffffffffffffffffffffffffff1614156118b5576040517fea553b3400000000000000000000000000000000000000000000000000000000815260040160405180910390fd5b6118c285858560016123cc565b6118d2600084846000015161164b565b6001600560008773ffffffffffffffffffffffffffffffffffffffff1673ffffffffffffffffffffffffffffffffffffffff16815260200190815260200160002060000160008282829054906101000a900467ffffffffffffffff160392506101000a81548167ffffffffffffffff021916908367ffffffffffffffff1602179055506001600560008673ffffffffffffffffffffffffffffffffffffffff1673ffffffffffffffffffffffffffffffffffffffff16815260200190815260200160002060000160008282829054906101000a900467ffffffffffffffff160192506101000a81548167ffffffffffffffff021916908367ffffffffffffffff160217905550836004600085815260200190815260200160002060000160006101000a81548173ffffffffffffffffffffffffffffffffffffffff021916908373ffffffffffffffffffffffffffffffffffffffff160217905550426004600085815260200190815260200160002060000160146101000a81548167ffffffffffffffff021916908367ffffffffffffffff1602179055506000600184019050600073ffffffffffffffffffffffffffffffffffffffff166004600083815260200190815260200160002060000160009054906101000a900473ffffffffffffffffffffffffffffffffffffffff1673ffffffffffffffffffffffffffffffffffffffff161415611b8357600054811015611b825782600001516004600083815260200190815260200160002060000160006101000a81548173ffffffffffffffffffffffffffffffffffffffff021916908373ffffffffffffffffffffffffffffffffffffffff16021790555082602001516004600083815260200190815260200160002060000160146101000a81548167ffffffffffffffff021916908367ffffffffffffffff1602179055505b5b50828473ffffffffffffffffffffffffffffffffffffffff168673ffffffffffffffffffffffffffffffffffffffff167fddf252ad1be2c89b69c2b068fc378daa952ba7f163c4a11628f55a4df523b3ef60405160405180910390a4611bec85858560016123d2565b5050505050565b611bfb61289e565b600082905080611c096116fd565b11158015611c18575060005481105b15611e4b576000600460008381526020019081526020016000206040518060600160405290816000820160009054906101000a900473ffffffffffffffffffffffffffffffffffffffff1673ffffffffffffffffffffffffffffffffffffffff1673ffffffffffffffffffffffffffffffffffffffff1681526020016000820160149054906101000a900467ffffffffffffffff1667ffffffffffffffff1667ffffffffffffffff16815260200160008201601c9054906101000a900460ff16151515158152505090508060400151611e4957600073ffffffffffffffffffffffffffffffffffffffff16816000015173ffffffffffffffffffffffffffffffffffffffff1614611d2d578092505050611e7d565b5b600115611e4857818060019003925050600460008381526020019081526020016000206040518060600160405290816000820160009054906101000a900473ffffffffffffffffffffffffffffffffffffffff1673ffffffffffffffffffffffffffffffffffffffff1673ffffffffffffffffffffffffffffffffffffffff1681526020016000820160149054906101000a900467ffffffffffffffff1667ffffffffffffffff1667ffffffffffffffff16815260200160008201601c9054906101000a900460ff1615151515815250509050600073ffffffffffffffffffffffffffffffffffffffff16816000015173ffffffffffffffffffffffffffffffffffffffff1614611e43578092505050611e7d565b611d2e565b5b505b6040517fdf2d9b4200000000000000000000000000000000000000000000000000000000815260040160405180910390fd5b919050565b6000600860009054906101000a900473ffffffffffffffffffffffffffffffffffffffff16905081600860006101000a81548173ffffffffffffffffffffffffffffffffffffffff021916908373ffffffffffffffffffffffffffffffffffffffff1602179055508173ffffffffffffffffffffffffffffffffffffffff168173ffffffffffffffffffffffffffffffffffffffff167f8be0079c531659141344cd1fd0a4f28419497f9722a3daafe3b4186f6b6457e060405160405180910390a35050565b611f628282604051806020016040528060008152506123d8565b5050565b80341015611fa9576040517f08c379a0000000000000000000000000000000000000000000000000000000008152600401611fa0906138f2565b60405180910390fd5b80341115612004573373ffffffffffffffffffffffffffffffffffffffff166108fc8234611fd79190613912565b9081150290604051600060405180830381858888f19350505050158015612002573d6000803e3d6000fd5b505b50565b6000808273ffffffffffffffffffffffffffffffffffffffff163b119050919050565b60008373ffffffffffffffffffffffffffffffffffffffff1663150b7a02612050611643565b8786866040518563ffffffff1660e01b8152600401612072949392919061399b565b6020604051808303816000875af19250505080156120ae57506040513d601f19601f820116820180604052508101906120ab91906139fc565b60015b612128573d80600081146120de576040519150601f19603f3d011682016040523d82523d6000602084013e6120e3565b606091505b50600081511415612120576040517fd1a57ed600000000000000000000000000000000000000000000000000000000815260040160405180910390fd5b805181602001fd5b63150b7a0260e01b7bffffffffffffffffffffffffffffffffffffffffffffffffffffffff1916817bffffffffffffffffffffffffffffffffffffffffffffffffffffffff191614915050949350505050565b6060604051806080016040528060518152602001613ad360519139905090565b606060008214156121e3576040518060400160405280600181526020017f300000000000000000000000000000000000000000000000000000000000000081525090506122f7565b600082905060005b600082146122155780806121fe90613a29565b915050600a8261220e9190613511565b91506121eb565b60008167ffffffffffffffff81111561223157612230612a12565b5b6040519080825280601f01601f1916602001820160405280156122635781602001600182028036833780820191505090505b5090505b600085146122f05760018261227c9190613912565b9150600a8561228b9190613a72565b60306122979190613686565b60f81b8183815181106122ad576122ac613aa3565b5b60200101907effffffffffffffffffffffffffffffffffffffffffffffffffffffffffffff1916908160001a905350600a856122e99190613511565b9450612267565b8093505050505b919050565b60008073ffffffffffffffffffffffffffffffffffffffff168273ffffffffffffffffffffffffffffffffffffffff161415612364576040517f35ebb31900000000000000000000000000000000000000000000000000000000815260040160405180910390fd5b600560008373ffffffffffffffffffffffffffffffffffffffff1673ffffffffffffffffffffffffffffffffffffffff16815260200190815260200160002060000160089054906101000a900467ffffffffffffffff1667ffffffffffffffff169050919050565b50505050565b50505050565b6123e583838360016123ea565b505050565b600080549050600073ffffffffffffffffffffffffffffffffffffffff168573ffffffffffffffffffffffffffffffffffffffff161415612457576040517f2e07630000000000000000000000000000000000000000000000000000000000815260040160405180910390fd5b6000841415612492576040517fb562e8dd00000000000000000000000000000000000000000000000000000000815260040160405180910390fd5b61249f60008683876123cc565b83600560008773ffffffffffffffffffffffffffffffffffffffff1673ffffffffffffffffffffffffffffffffffffffff16815260200190815260200160002060000160008282829054906101000a900467ffffffffffffffff160192506101000a81548167ffffffffffffffff021916908367ffffffffffffffff16021790555083600560008773ffffffffffffffffffffffffffffffffffffffff1673ffffffffffffffffffffffffffffffffffffffff16815260200190815260200160002060000160088282829054906101000a900467ffffffffffffffff160192506101000a81548167ffffffffffffffff021916908367ffffffffffffffff160217905550846004600083815260200190815260200160002060000160006101000a81548173ffffffffffffffffffffffffffffffffffffffff021916908373ffffffffffffffffffffffffffffffffffffffff160217905550426004600083815260200190815260200160002060000160146101000a81548167ffffffffffffffff021916908367ffffffffffffffff16021790555060008190506000858201905083801561266957506126688773ffffffffffffffffffffffffffffffffffffffff16612007565b5b1561272f575b818773ffffffffffffffffffffffffffffffffffffffff16600073ffffffffffffffffffffffffffffffffffffffff167fddf252ad1be2c89b69c2b068fc378daa952ba7f163c4a11628f55a4df523b3ef60405160405180910390a46126de600088848060010195508861202a565b612714576040517fd1a57ed600000000000000000000000000000000000000000000000000000000815260040160405180910390fd5b8082141561266f57826000541461272a57600080fd5b61279b565b5b818060010192508773ffffffffffffffffffffffffffffffffffffffff16600073ffffffffffffffffffffffffffffffffffffffff167fddf252ad1be2c89b69c2b068fc378daa952ba7f163c4a11628f55a4df523b3ef60405160405180910390a480821415612730575b8160008190555050506127b160008683876123d2565b5050505050565b828054828255906000526020600020908101928215612807579160200282015b828111156128065782518290805190602001906127f69291906128e1565b50916020019190600101906127d8565b5b5090506128149190612967565b5090565b82805461282490613427565b90600052602060002090601f016020900481019282612846576000855561288d565b82601f1061285f57803560ff191683800117855561288d565b8280016001018555821561288d579182015b8281111561288c578235825591602001919060010190612871565b5b50905061289a919061298b565b5090565b6040518060600160405280600073ffffffffffffffffffffffffffffffffffffffff168152602001600067ffffffffffffffff1681526020016000151581525090565b8280546128ed90613427565b90600052602060002090601f01602090048101928261290f5760008555612956565b82601f1061292857805160ff1916838001178555612956565b82800160010185558215612956579182015b8281111561295557825182559160200191906001019061293a565b5b509050612963919061298b565b5090565b5b80821115612987576000818161297e91906129a8565b50600101612968565b5090565b5b808211156129a457600081600090555060010161298c565b5090565b5080546129b490613427565b6000825580601f106129c657506129e5565b601f0160209004906000526020600020908101906129e4919061298b565b5b50565b6000604051905090565b600080fd5b600080fd5b600080fd5b6000601f19601f8301169050919050565b7f4e487b7100000000000000000000000000000000000000000000000000000000600052604160045260246000fd5b612a4a82612a01565b810181811067ffffffffffffffff82111715612a6957612a68612a12565b5b80604052505050565b6000612a7c6129e8565b9050612a888282612a41565b919050565b600067ffffffffffffffff821115612aa857612aa7612a12565b5b602082029050602081019050919050565b600080fd5b600080fd5b600067ffffffffffffffff821115612ade57612add612a12565b5b612ae782612a01565b9050602081019050919050565b82818337600083830152505050565b6000612b16612b1184612ac3565b612a72565b905082815260208101848484011115612b3257612b31612abe565b5b612b3d848285612af4565b509392505050565b600082601f830112612b5a57612b596129fc565b5b8135612b6a848260208601612b03565b91505092915050565b6000612b86612b8184612a8d565b612a72565b90508083825260208201905060208402830185811115612ba957612ba8612ab9565b5b835b81811015612bf057803567ffffffffffffffff811115612bce57612bcd6129fc565b5b808601612bdb8982612b45565b85526020850194505050602081019050612bab565b5050509392505050565b600082601f830112612c0f57612c0e6129fc565b5b8135612c1f848260208601612b73565b91505092915050565b600060208284031215612c3e57612c3d6129f2565b5b600082013567ffffffffffffffff811115612c5c57612c5b6129f7565b5b612c6884828501612bfa565b91505092915050565b60007fffffffff0000000000000000000000000000000000000000000000000000000082169050919050565b612ca681612c71565b8114612cb157600080fd5b50565b600081359050612cc381612c9d565b92915050565b600060208284031215612cdf57612cde6129f2565b5b6000612ced84828501612cb4565b91505092915050565b60008115159050919050565b612d0b81612cf6565b82525050565b6000602082019050612d266000830184612d02565b92915050565b600081519050919050565b600082825260208201905092915050565b60005b83811015612d66578082015181840152602081019050612d4b565b83811115612d75576000848401525b50505050565b6000612d8682612d2c565b612d908185612d37565b9350612da0818560208601612d48565b612da981612a01565b840191505092915050565b60006020820190508181036000830152612dce8184612d7b565b905092915050565b6000819050919050565b612de981612dd6565b8114612df457600080fd5b50565b600081359050612e0681612de0565b92915050565b600060208284031215612e2257612e216129f2565b5b6000612e3084828501612df7565b91505092915050565b600073ffffffffffffffffffffffffffffffffffffffff82169050919050565b6000612e6482612e39565b9050919050565b612e7481612e59565b82525050565b6000602082019050612e8f6000830184612e6b565b92915050565b612e9e81612e59565b8114612ea957600080fd5b50565b600081359050612ebb81612e95565b92915050565b60008060408385031215612ed857612ed76129f2565b5b6000612ee685828601612eac565b9250506020612ef785828601612df7565b9150509250929050565b612f0a81612dd6565b82525050565b6000602082019050612f256000830184612f01565b92915050565b600080600060608486031215612f4457612f436129f2565b5b6000612f5286828701612eac565b9350506020612f6386828701612eac565b9250506040612f7486828701612df7565b9150509250925092565b60008060408385031215612f9557612f946129f2565b5b6000612fa385828601612df7565b9250506020612fb485828601612df7565b9150509250929050565b6000604082019050612fd36000830185612e6b565b612fe06020830184612f01565b9392505050565b600067ffffffffffffffff82169050919050565b61300481612fe7565b82525050565b600060208201905061301f6000830184612ffb565b92915050565b600080fd5b60008083601f8401126130405761303f6129fc565b5b8235905067ffffffffffffffff81111561305d5761305c613025565b5b60208301915083600182028301111561307957613078612ab9565b5b9250929050565b60008060208385031215613097576130966129f2565b5b600083013567ffffffffffffffff8111156130b5576130b46129f7565b5b6130c18582860161302a565b92509250509250929050565b6000602082840312156130e3576130e26129f2565b5b60006130f184828501612eac565b91505092915050565b61310381612cf6565b811461310e57600080fd5b50565b600081359050613120816130fa565b92915050565b6000806040838503121561313d5761313c6129f2565b5b600061314b85828601612eac565b925050602061315c85828601613111565b9150509250929050565b600081519050919050565b600082825260208201905092915050565b6000819050602082019050919050565b600082825260208201905092915050565b60006131ae82612d2c565b6131b88185613192565b93506131c8818560208601612d48565b6131d181612a01565b840191505092915050565b60006131e883836131a3565b905092915050565b6000602082019050919050565b600061320882613166565b6132128185613171565b93508360208202850161322485613182565b8060005b85811015613260578484038952815161324185826131dc565b945061324c836131f0565b925060208a01995050600181019050613228565b50829750879550505050505092915050565b6000602082019050818103600083015261328c81846131fd565b905092915050565b600067ffffffffffffffff8211156132af576132ae612a12565b5b6132b882612a01565b9050602081019050919050565b60006132d86132d384613294565b612a72565b9050828152602081018484840111156132f4576132f3612abe565b5b6132ff848285612af4565b509392505050565b600082601f83011261331c5761331b6129fc565b5b813561332c8482602086016132c5565b91505092915050565b6000806000806080858703121561334f5761334e6129f2565b5b600061335d87828801612eac565b945050602061336e87828801612eac565b935050604061337f87828801612df7565b925050606085013567ffffffffffffffff8111156133a05761339f6129f7565b5b6133ac87828801613307565b91505092959194509250565b600080604083850312156133cf576133ce6129f2565b5b60006133dd85828601612eac565b92505060206133ee85828601612eac565b9150509250929050565b7f4e487b7100000000000000000000000000000000000000000000000000000000600052602260045260246000fd5b6000600282049050600182168061343f57607f821691505b60208210811415613453576134526133f8565b5b50919050565b7f4e487b7100000000000000000000000000000000000000000000000000000000600052601160045260246000fd5b600061349382612dd6565b915061349e83612dd6565b9250817fffffffffffffffffffffffffffffffffffffffffffffffffffffffffffffffff04831182151516156134d7576134d6613459565b5b828202905092915050565b7f4e487b7100000000000000000000000000000000000000000000000000000000600052601260045260246000fd5b600061351c82612dd6565b915061352783612dd6565b925082613537576135366134e2565b5b828204905092915050565b7f4f776e61626c653a2063616c6c6572206973206e6f7420746865206f776e6572600082015250565b6000613578602083612d37565b915061358382613542565b602082019050919050565b600060208201905081810360008301526135a78161356b565b9050919050565b7f45524332393831526f79616c746965733a20546f6f2068696768000000000000600082015250565b60006135e4601a83612d37565b91506135ef826135ae565b602082019050919050565b60006020820190508181036000830152613613816135d7565b9050919050565b7f5468652063616c6c657220697320616e6f7468657220636f6e74726163740000600082015250565b6000613650601e83612d37565b915061365b8261361a565b602082019050919050565b6000602082019050818103600083015261367f81613643565b9050919050565b600061369182612dd6565b915061369c83612dd6565b9250827fffffffffffffffffffffffffffffffffffffffffffffffffffffffffffffffff038211156136d1576136d0613459565b5b828201905092915050565b7f72656163686564206d617820737570706c790000000000000000000000000000600082015250565b6000613712601283612d37565b915061371d826136dc565b602082019050919050565b6000602082019050818103600083015261374181613705565b9050919050565b7f63616e206e6f74206d696e742074686973206d616e7900000000000000000000600082015250565b600061377e601683612d37565b915061378982613748565b602082019050919050565b600060208201905081810360008301526137ad81613771565b9050919050565b600081905092915050565b60006137ca82612d2c565b6137d481856137b4565b93506137e4818560208601612d48565b80840191505092915050565b60006137fc82856137bf565b915061380882846137bf565b91508190509392505050565b7f4f776e61626c653a206e6577206f776e657220697320746865207a65726f206160008201527f6464726573730000000000000000000000000000000000000000000000000000602082015250565b6000613870602683612d37565b915061387b82613814565b604082019050919050565b6000602082019050818103600083015261389f81613863565b9050919050565b7f4e65656420746f2073656e64206d6f7265204554482e00000000000000000000600082015250565b60006138dc601683612d37565b91506138e7826138a6565b602082019050919050565b6000602082019050818103600083015261390b816138cf565b9050919050565b600061391d82612dd6565b915061392883612dd6565b92508282101561393b5761393a613459565b5b828203905092915050565b600081519050919050565b600082825260208201905092915050565b600061396d82613946565b6139778185613951565b9350613987818560208601612d48565b61399081612a01565b840191505092915050565b60006080820190506139b06000830187612e6b565b6139bd6020830186612e6b565b6139ca6040830185612f01565b81810360608301526139dc8184613962565b905095945050505050565b6000815190506139f681612c9d565b92915050565b600060208284031215613a1257613a116129f2565b5b6000613a20848285016139e7565b91505092915050565b6000613a3482612dd6565b91507fffffffffffffffffffffffffffffffffffffffffffffffffffffffffffffffff821415613a6757613a66613459565b5b600182019050919050565b6000613a7d82612dd6565b9150613a8883612dd6565b925082613a9857613a976134e2565b5b828206905092915050565b7f4e487b7100000000000000000000000000000000000000000000000000000000600052603260045260246000fdfe68747470733a2f2f676174657761792e70696e6174612e636c6f75642f697066732f516d63324554553368566e317575446565384d324b696963624a61506238513276385976384352696667423763432fa264697066735822122089c75a21931a29bb60c0f4d12d81523d67d0f73d242068143de4315ef0b16e8a64736f6c634300080b0033",
  "linkReferences": {},
  "deployedLinkReferences": {}
}